:020000040800F2
:1000000040620020610200081B300008052400083F
:10001000193000088D0A000815390008000000009A
:10002000000000000000000000000000A101000826
:10003000650B000800000000FD0100089532000873
:100040007B0200087B0200087B0200087B0200089C
:100050007B0200087B0200087B0200087B0200088C
:100060007B0200087B0200087B0200087B0200087C
:100070007B0200087B0200087B0200087B0200086C
:10008000910A00089D0A00087B0200087B02000814
:100090007B0200087B0200087B0200087B0200084C
:1000A0007B020008553300087B0200087B02000831
:1000B0007B0200087B0200087B0200087B0200082C
:1000C0007B0200087B0200087B0200087B0200081C
:1000D0007B020008FD380008093900087B0200088F
:1000E0007B0200087B0200087B0200087B020008FC
:1000F0007B0200087B0200087B0200087B020008EC
:100100007B0200087B0200087B0200087B020008DB
:100110007B0200087B0200087B0200087B020008CB
:100120007B0200087B020008A90A00087B02000885
:100130007B0200087B0200087B0200087B020008AB
:100140007B0200087B0200087B0200087B0200089B
:100150007B0200087B020008B50A00087B02000849
:100160007B0200087B0200087B0200087B0200087B
:100170007B0200087B0200087B02000800000000F0
:100180007B0200087B020008DFF810D000F0BAFA0A
:10019000004800470D500008AFF300804062002087
:1001A0002C4B19680868B0E8F04F80F30988BFF35A
:1001B0006F8F4FF0000080F311887047000000003F
:1001C00008480068006880F308884FF0000080F35A
:1001D000148862B661B6BFF34F8FBFF36F8F00DF35
:1001E00000BF00BF08ED00E0DFF80C00016841F43B
:1001F00070010160704700BF88ED00E0EFF30980F7
:10020000BFF36F8F134B1A681EF0100F08BF20ED5D
:10021000108A20E9F04F106009B44FF0500080F3CD
:100220001188BFF34F8FBFF36F8F06F0B5F84FF013
:10023000000080F3118809BC19680868B0E8F04F25
:100240001EF0100F08BFB0EC108A80F30988BFF3CE
:100250006F8F704778000020EFF305807047000033
:100260000648804706480047FEE7FEE7FEE7FEE750
:10027000FEE7FEE7FEE7FEE7FEE7FEE745330008A0
:10028000890100082DE9F05F0546002092469B4653
:1002900088460646814640241BE02846414647469C
:1002A000224600F0DCF953465A46C01A914110D359
:1002B00011461846224600F0C3F92D1A67EB0108D3
:1002C0004F4622460120002100F0BAF917EB000941
:1002D0004E41201EA4F10104DFDC484631462A4687
:1002E0004346BDE8F09F40EA01039B0703D009E0C5
:1002F00008C9121F08C0042AFAD203E011F8013B12
:1003000000F8013B521EF9D27047D2B201E000F86A
:10031000012B491EFBD270470022F6E710B51346A9
:100320000A4604461946FFF7F0FF204610BD30B5D7
:1003300005462A460B4612F8010B13F8014B08B18B
:10034000A042F8D01CB1002802D06D1CF1E728466D
:1003500030BDCAB2401E10F8011F8A4202D00029E7
:10036000F9D100207047421C10F8011B0029FBD175
:10037000801A704710B5002200E0521C835C8C5C30
:10038000A34201D1002BF8D1D8B2E1B2401A10BD7E
:1003900030B505460020034600E05B1C934205D2C1
:1003A000EC5CC85C201A01D1002CF6D130BD0000F5
:1003B0000FB400B58DB010A909900B9000914FF0CB
:1003C000FF300A9000200C900548069005480790E1
:1003D0006A4609A80F9900F067F90DB05DF814FBA3
:1003E000C5060008E30600082DE9FF5F1D464FF033
:1003F000FF3BD5E9014691465F464FF00008A969E9
:100400007F1C01988847296A824688470028F6D1D0
:10041000BAF1FF3F0CD024F4C064002E19DD600651
:1004200014D5BAF12B0F09D0BAF12D0F0ED103E07C
:10043000584604B0BDE8F09F44F48064A9697F1C6D
:1004400001988847761E8246002E02DDBAF1300FF1
:1004500003D0B9F1000F26D032E0A969761E44F42A
:1004600000747F1C019888478246002E05DDBAF192
:10047000780F06D0BAF1580F03D0B9F1000F10D0A1
:100480001EE0B9F1000F02D0B9F1100F18D1A9691F
:10049000761E24F400747F1C019888478246102041
:1004A00002E0082000E00A20814609E008FB090874
:1004B000A969761E44F400747F1C0198884782461F
:1004C000002E05DD4946504600F0D9F80028EDDA47
:1004D000E96901988847A00502D46FF00100A8E7F8
:1004E000E00725D1600613D5600502D5C8F10000EC
:1004F00000E0404629680A1D2A600968220501D5E6
:10050000087015E0220701D5088011E008600FE0AF
:100510002868011D29600068210502D580F8008047
:1005200006E0210702D5A0F8008001E0C0F80080B5
:1005300038467EE72DE9FF5FD2E901A74FF00008BA
:10054000916999461446DDF838B0464601988847C7
:10055000054659EA0B0005D009E0A169761C01980F
:1005600088470546216A284688470028F5D1681C37
:1005700003D05FEACA7005D015E04FF0FF3004B039
:10058000BDE8F09F2068011D2160D0F800800AE0DE
:100590005FEACA7001D108F8015BA169761C7F1E71
:1005A000019888470546002F1ADD681C18D0B9F15C
:1005B000000F0DD0E81705EBD060421120F01F00AE
:1005C00059F822102A1A012090400142E0D107E098
:1005D000BBF1000FDCD1216A284688470028D7D01C
:1005E000E16901988847BBF1000F07D1002E05DDB6
:1005F0005FEACA7002D1002188F80010A068B842F2
:1006000003DDBBF1000F03D017B16FF00100B6E7B7
:100610003046B4E730B50B460146002020220124C5
:1006200009E021FA02F59D4205D303FA02F5491BC0
:1006300004FA02F52844151EA2F10102F1DC30BDD6
:10064000202A04DB203A00FA02F100207047914092
:10065000C2F1200320FA03F3194390407047202A87
:1006600004DB203A21FA02F00021704721FA02F35C
:10067000D040C2F1200291400843194670473A2801
:1006800000D2303820F02002412A01D3A2F13700F5
:10069000884201D34FF0FF307047000002681144D8
:1006A0001378016018467047D160044951610449CC
:1006B000116200211161114600F03CB89D0600084E
:1006C00029070008426842B1016811F8013B23B1D3
:1006D000521EC0E90012184670470121C160881EF1
:1006E000704742685AB1C368016843B983688B4256
:1006F00005D0491E521CC0E90012002070474FF07F
:10070000FF307047064C074D06E0E06840F00103FB
:1007100094E8070098471034AC42F6D3FFF738FD51
:100720002873000848730008C0B24FF4F05100F07D
:1007300099B900002DE9F34F8BB04FF0000801F19B
:100740000C000C464FF0010B46460DF1080A0190D3
:100750006269012101989047051E2DD0252D2CD0CE
:10076000216A8847C0B16269012101989047216AD6
:1007700088470028F7D1411E62690198904700E040
:10078000761CA1690B988847216A88470028F7D111
:10079000E1690B988847DBE7A1690B988847074612
:1007A000A84201D1761CD3E7E1690B9888477F1CEA
:1007B00002D1B8F1000F6FD047E1002762693D46D2
:1007C0003946019890472A2804D16269012101988D
:1007D00090470125DFF888926269012101989047CE
:1007E000A0F130010A290AD24F45E5DC07EB870169
:1007F00000EB4107303FDFD445F01005ECE7E90698
:1008000001D46FF000476C280AD04C2814D0682817
:1008100015D06A280DD074281CD07A281AD01DE073
:1008200062690121019890476C2802D045F00405C7
:1008300014E045F002050DE045F020050AE062698C
:10084000012101989047682802D045F0080505E08D
:1008500045F400656269012101989047C4E9015798
:1008600065283DD019DC58287AD00CDC452837D0D3
:1008700004DC252826D0412831D131E046282FD06C
:1008800047282CD12CE05B2877D0612828D063281A
:100890007CD0642823D15AE0D1E06F2848D008DC0E
:1008A00066281DD067281BD0692821D06E2816D154
:1008B00027E0702845D0732868D0752847D078285D
:1008C0000DD14DE0A1690B988847054625283FF4D6
:1008D00069AFE1690B9888476D1C3FF46AAFB4E0DB
:1008E00023466A466FF001000B99AFF300809FE04A
:1008F00045F040006060A80723464FF0000236D460
:100900003EE0E8077FF447AF2068011D21600068E2
:10091000290501D506701BE7290701D5068017E7D1
:10092000A90703D5F117C0E9006111E706600FE7D9
:1009300045F040006060A80723464FF0080216D437
:100940001EE040F60E0125EA0100606016E045F069
:1009500040006060A80723464FF00A0207D40FE06A
:1009600045F040006060A80708D5234610226FF0CC
:1009700001000B99AFF300805AE007E023461022F4
:100980006FF001000B99FFF72FFD51E04FF00009C8
:100990004F464B46632802D05B2807D041E02079C0
:1009A000C00601D40120A06001273AE0626901215C
:1009B000019890475E2805D14FF0010962694946C8
:1009C00001989047216939B900210A46534643F8F6
:1009D0002120491C0829FADBB0B3216969B9C11784
:1009E00000EBD16253110AEB830122F01F02821A3D
:1009F00001200B68904003430B606269012101985C
:100A000090475D28E8D1B9F1000F09D00020514688
:100A100051F82020D24341F82020401C0828F7DB61
:100A200002AB224600976FF001000B99FFF782FDA1
:100A300000280CDA401C08D1BBF1000F05D04FF0A4
:100A4000FF300DB0BDE8F08FFFE74046F9E7E9075A
:100A500001D108F1010806444FF0000B78E60000D0
:100A6000CCCCCC0C7F2801D9002208E0064A02EB4E
:100A70005002C007127800D1120902F00F020120C3
:100A80009040084070470000BC720008FEE700007C
:100A9000014800F037B90000B0080020014800F01C
:100AA00031B9000010090020014800F02BB9000006
:100AB000F0070020014800F025B900005008002090
:100AC00001681823CAB2103AB2FBF3F2054B6FF378
:100AD0000901032A9B5CC36500D9091D816508468D
:100AE000704700004472000810B5014600208B6971
:100AF0008A6A4FF0C07453B1B3F5005F15D072B17C
:100B0000012A0CD0022A0AD0032A09D104E01AB122
:100B1000012A06D0022A03D1C96AC90100D50120E1
:100B200010BDC96AA142FAD010BD002AF7D0012A2F
:100B3000F2D0022AF3D0032AF3D010BD30B50468F6
:100B4000256825F480252560046863608368402B50
:100B5000036803D099600068C26030BD9A60006885
:100B6000C16030BD704772B6FEE770472DE9FF41A6
:100B7000054616460F46002402A8019305F0A8FB7F
:100B80004FF00408CDF80080002201AB1146286820
:100B900005F02EF8321B39190023286803F0E9F814
:100BA000002801DD044402E001DA044607E0B44213
:100BB00005DA01A902A806F083F80028E2D004B003
:100BC0002046BDE8F0812DE9FF41054616460F4657
:100BD000002402A8019305F07BFB4FF00408CDF838
:100BE000008001AB01220021286805F001F8321BCA
:100BF00039190023286803F0C3F8002801DD0444F4
:100C000002E001DA044607E0B44205DA01A902A8CD
:100C100006F056F80028E2D004B02046BDE8F08186
:100C200070B5094D0646002455F824000168304689
:100C3000FFF7A0FB20B1641C022CF5D3002070BD8F
:100C400055F8240070BD0000080000202DE9F04197
:100C50000446876D00F0C6FA064694F83500002574
:100C6000022806D08020606584F834500120BDE859
:100C7000F0812068016821F0160101602068416957
:100C800021F080014161206C08B9A06C20B120687E
:100C9000016821F0080101602068016821F001016C
:100CA00001600CE000F09EFA801B052807D9202087
:100CB0006065032084F8350084F83450D7E7206855
:100CC0000068C007EED194F85C103F208840B860FF
:100CD000012084F8350084F834500020C7E790F8EC
:100CE0003510022903D0802141650120704705217C
:100CF00080F835100068016821F0010101600020D2
:100D0000704700002DE9F84304464FF00009CDF884
:100D1000009063484FF41651A56D0068B0FBF1F7E1
:100D20002E6894F85C10082000FA01F131420FD0CF
:100D300021680A6852070BD50A6822F004020A608B
:100D400094F85C108840A860606D40F00100606518
:100D500094F85C104FF0010808FA01F0304208D016
:100D600021684969090604D5A860606D40F0020059
:100D7000606594F85C1004208840304208D02168F7
:100D80000968890704D5A860606D40F004006065BB
:100D900094F85C1010208840304218D0216809680F
:100DA000090714D5A86020680168490304D50068C4
:100DB000000308D5A16C07E00168C90503D40168E8
:100DC00021F008010160216C09B12046884794F8A0
:100DD0005C1020208840304231D021680968C90663
:100DE0002DD5A86094F8350005282068016806D044
:100DF000490347D5006800031DD4616C1CE021F055
:100E0000160101602068416921F080014161206C78
:100E100008B9A06C20B12068016821F008010160C8
:100E200094F85C103F208840A86084F8358084F8EE
:100E30003490216D1FE0E16B09B120468847606D59
:100E400000282BD0606DC00714D0052084F8350031
:100E50002068016821F0010101600098401C0090A9
:100E6000B84203D820680068C007F6D184F83580FE
:100E700084F83490E16C002910D001B02046BDE820
:100E8000F04308470168C905D5D4016821F0100175
:100E9000016084F8358084F83490CCE7BDE8F883AD
:100EA000740000202DE9F041044600F09BF906464D
:100EB0005CB1022084F83500002584F834502068A5
:100EC000016821F0010101600DE00120BDE8F08121
:100ED00000F088F9801B052805D9202060650320D3
:100EE00084F83500F2E720680068C007F0D1226876
:100EF000116820480140D4E901031843D4E90336BE
:100F00003343184363691843A3691843E3691843DB
:100F1000236A18430843616A042903D1D4E90B13F7
:100F200019430843106020684069666A20F0070191
:100F300030460E43012704280CD1A06A0643E06A1C
:100F400040B12046FFF7D0FD20B14020606584F815
:100F50003570BAE7206846612046FFF7B1FD94F886
:100F60005C203F2191408160656584F835700020E8
:100F7000ACE700003F8010F02DE9F0410446866D9B
:100F800090F83400002501280DD0012084F83400A9
:100F900094F835700020012F07D084F83400022522
:100FA0002846BDE8F0810220FBE7022784F835706F
:100FB00060652046FFF7C2FD94F85C103F20884032
:100FC000B0602068016841F016010160206C20B11A
:100FD0002068016841F0080101602068016841F063
:100FE00001010160DCE700002DE9F84FDFF8BCA14A
:100FF0000022012503264FF00F090AF1040BAAF184
:10100000040E00BF0B6805FA02F42340A34270D11E
:101010000F7907F00307012F01D0022F16D187683F
:101020004FEA420806FA08FC27EA0C07D1F80CC080
:101030000CFA08FC4CEA070CC0F808C04768A74344
:101040000C79C4F3001494403C4344600C79E443AD
:10105000A4070AD0C4684FEA420C06FA0CF7BC4356
:101060008F6807FA0CF72743C7600C7904F0030474
:10107000022C12D1D40800EB840CDCF82040570776
:10108000FF0E09FA07F824EA0804D1F8108008FADC
:1010900007F848EA0408CCF8208004684FEA420CBC
:1010A00006FA0CF7BC430F7907F0030707FA0CF7B1
:1010B000274307604C6814F4403F70D03C4C2768CD
:1010C00047F480472760246822F0030704F4804433
:1010D0000094384C07EB040CDCF8084897074FEAFB
:1010E000177809FA08F7BC43334FB84202D10027FA
:1010F00024E054E0314FB84201D101271EE0304FC7
:10110000B84201D1022719E02E4FB84201D103277E
:1011100014E02D4FB84201D104270FE02B4FB84205
:1011200001D105270AE02A4FB84201D1062705E080
:10113000284FB84201D1072700E0082707FA08F72F
:101140002743CCF80878DAF800405746D1F804C0B5
:101150009C435FEACC2C00D51C433C60DBF800408C
:101160005F46D1F804C09C435FEA8C2C00D51C4339
:101170003C60DEF800407746D1F804C09C435FEA4B
:101180008C3C00D51C433C60084F083F3C68D1F8BC
:1011900004C09C435FEACC3C00D51C433C60521C1D
:1011A000102AFFF42FAFBDE8F88F0000083C014083
:1011B0004438024000300140000002400004024078
:1011C00000080240000C02400010024000140240DF
:1011D00000180240001C02400AB1816170470904F6
:1011E000FBE70000014880687047000068000020AD
:1011F00070B5040025D094F83D00002520B984F88E
:101200003C50204600F0B8F8242084F83D002068C7
:10121000016821F0010101602068016841F400418A
:1012200001602068016821F40041016000F058FA73
:101230004D4A6168914201D84C4900E04C498842CE
:1012400001D2012070BD4B492368B0FBF1F15E680B
:1012500026F03F060E435E606368934206D94FF462
:10126000967359434FF47A73B1FBF3F12368491C29
:101270001E6A26F03F06314319626168914210D818
:101280004900401EB0FBF1F2521CC2F30B02042ACB
:1012900001D2042022E0B0FBF1F0401CC0F30B00AF
:1012A0001CE0A268F2B301EBC10303EB0116431E7D
:1012B000B3FBF6F35B1C43F480431B0549D092B3A8
:1012C00001EBC10202EB0111401EB0FBF1F0401C2A
:1012D000C0F30B0040F4804040F400402168CA692C
:1012E0004CF6FF739A431043C861D4E907100143D9
:1012F0002068026822F0C00211430160D4E90301B2
:1013000001432068826848F2FF339A4311438160A9
:10131000D4E9050108432168CA6822F0FF0210439E
:10132000C86001E00EE016E02068016841F00101AC
:1013300001602564202084F83D00256384F83E5038
:10134000002070BD01EB4106431EB3FBF6F35B1CAE
:10135000B3E70120C2E701EB4101401EB0FBF1F011
:10136000401CC0F30B00B7E7A086010080841E007C
:1013700000093D0040420F0010B586B0044614211C
:101380006846FEF7C9FF14492068884221D11348F6
:101390000021026842F002020260006800F00200D0
:1013A00005904FF4407000901220CDE90101032018
:1013B00003900420049069460948FFF715FE07488A
:1013C0001030016841F400110160006800F4001061
:1013D000059006B010BD00000054004030380240B7
:1013E000000402400248816802781144816070471D
:1013F000680000200B4810B5016841F400710160DD
:10140000016841F480610160016841F4807101600C
:10141000032000F099F80F2000F006F800F04AF8D9
:10142000002010BD003C024030B505461C4887B086
:101430000024016841F001010160006806A900F084
:101440000100009001A800F02BF900F059F91549AE
:101450004000B0FBF1F11548134A491E026040F20A
:10146000E732C0E90324C0E90114846100F042FBC3
:10147000040012D10D4800F06BFB04000DD11920BF
:1014800000F034F8102D07D200222946192000F070
:101490003BF80748056000E0012407B0204630BD56
:1014A0004438024040420F00000001407009002013
:1014B0006C0000200C4882B0016841F4804101605A
:1014C000006800F4804000900748001F016841F068
:1014D000805101600068002200F0805000900F21D0
:1014E000901E02B000F010B844380240002809DB1A
:1014F00000F01F02012191404009800000F1E0202E
:10150000C0F8001170470000F0B40E4B1B680C4689
:10151000C3F30223C3F10705042D00D90425191DC7
:10152000072901D2002300E0DB1E012606FA05F19F
:10153000491E214099409E40761E16403143F0BC22
:1015400002F028BA0CED00E0064900F00702086836
:101550004FF6FF03184040EA0220034A1043086098
:10156000704700000CED00E00000FA052DE9F0479F
:101570000E46050065D0DFF81481D8F80000F7B2F8
:1015800000F00700B04207D288F80070D8F80000D9
:1015900000F00700B04254D128683D4C810712D5B5
:1015A000400703D5206840F4E05020602878000709
:1015B00003D5206840F4604020602068A96820F0CE
:1015C000F000084320602878C0072DD030496868B3
:1015D0000839012812D0022813D0032811D0096835
:1015E000890700292DDA216821F0030101432160D8
:1015F000FFF7F8FD814641F2883A0EE00968890359
:10160000EFE709688901ECE7FFF7ECFDA0EB0901C2
:10161000514502D90320BDE8F0872068696800F0D1
:101620000C00B0EB810FEFD1D8F80010404601F06C
:101630000701B14207D90770006800F00700B04207
:1016400001D00120E7E72878400705D52068E96840
:1016500020F4E050084320602878000706D5206871
:10166000296920F4604040EAC100206000F058F889
:101670002168084AC1F30311515CC840064908605B
:1016800006480068FFF7D0FE0020C4E7003C024097
:10169000083802404C720008740000206C000020E2
:1016A0000F2202600C4A136803F0030343601368BF
:1016B00003F0F0038360136803F4E053C36012681F
:1016C0004FF4E05303EAD20202610448006800F0DC
:1016D000070008607047000008380240003C0240E4
:1016E0000448054900680968044AC1F38221515C35
:1016F000C840704774000020083802405C7200083F
:101700000448054900680968044AC1F34231515C44
:10171000C840704774000020083802405C7200081E
:10172000154810B5006810F00C02144813D0144985
:10173000042A0FD0082A0ED10F4C241F22682368D8
:1017400002F03F025B0207D52068C0F38810A0FBBF
:10175000010106E0084610BD2168C1F38811A1FB14
:1017600000010023FEF78EFD2168C1F30141491CF1
:101770004900B0FBF1F010BD083802400024F4002D
:1017800040787D012DE9F84F04006ED02078DFF815
:101790004C93C007A9F104054AD009F1040001687F
:1017A000C1F38101012908D00068C0F3810002283B
:1017B0000AD1D9F80000400206D52868800337D541
:1017C00060680028E1D033E06068B0F5803F10D059
:1017D000B0F5A02F286810D020F480302860286849
:1017E00020F4802028606068A8B1FFF7FBFC064663
:1017F0000DE0286840F48030F4E740F48020286051
:10180000F7E700BFFFF7EEFC801B642873D8286859
:101810008003F7D50CE0FFF7E5FC064605E000BFC6
:10182000FFF7E0FC801B6428F0D828688003F7D419
:101830002078DFF8AC8280074FF0000A3ED5A74839
:10184000001D016811F00C0F08D00068C0F3810082
:1018500002280BD1D9F80000400207D4286880077D
:1018600016D5E068012800D112E033E1E068B8B194
:101870000120C8F80000FFF7B5FC064605E000BFF0
:10188000FFF7B0FC801B0228C0D828688007F7D576
:101890002868216920F0F80040EAC10028600DE0C6
:1018A000C8F800A0FFF79EFC064604E0FFF79AFC8C
:1018B000801B02281FD828688007F7D420780007EB
:1018C00022D5864F87486169703771B10121016067
:1018D000FFF788FC064604E0FFF784FC801B022823
:1018E00009D838688007F7D50EE0C0F800A0FFF7E8
:1018F00079FC064605E082E0FFF774FC801B0228B5
:101900007DD838688007F7D42078400768D5DFF89D
:10191000CCB100270BF13C0BDBF80000C0000BD46E
:10192000DBF8001041F08051CBF80010DBF800002C
:10193000012700F0805000906B4E3068C00510D435
:10194000306840F480703060FFF74CFC009005E098
:10195000FFF748FC0099401A022850D83068C005AB
:10196000F6D55E4EA0686C3601280FD00528306889
:1019700010D020F001003060306820F004003060AA
:10198000A068B8B1FFF72EFC00900FE0306840F07F
:101990000100F4E740F004003060F7E7FFF722FCB5
:1019A0000099411A41F28830814266D83068800738
:1019B000F4D50EE0FFF716FC009007E0FFF712FCED
:1019C0000099411A41F28830814256D83068800728
:1019D000F4D42FB1DBF8001021F08051CBF80010C7
:1019E000A069C8B33D49091D0968C1F381010229F5
:1019F0004AD00228504607D0C8F8600000E03CE01A
:101A0000FFF7F0FB04463BE04746C8F86000FFF7ED
:101A1000E9FB064605E000BFFFF7E4FB801B022858
:101A20002BD828688001F7D4D4E907010843A16ABC
:101A30002E4A490802EB0141626A41EA82110843D9
:101A400094F82C1040EA0161C9F8001001203866B2
:101A5000FFF7C8FB044606E03EE000BFFFF7C2FB0D
:101A6000001B022809D828688001F7D534E000BFA0
:101A7000FFF7B8FB001B022802D90320BDE8F88F4E
:101A800028688001F4D427E00128F7D0D9F80000B5
:101A9000E26900F4800191421CD1226A00F03F010A
:101AA000914217D147F6C071626A0140B1EB821FC3
:101AB00010D1A26A4FF0FF3300F4403103EB520221
:101AC000B1EB024F06D194F82C1000F07060B0EB2F
:101AD000016F01D00120D1E70020CFE70438024098
:101AE00000004742800E4742007000400000FFFFA8
:101AF0007047704710B5040003D094F83D0010B152
:101B000007E0012010BD002084F83C00204600F0D2
:101B10001EF8022084F83D00211D206801F020FC01
:101B2000012084F8460084F83E0084F83F0084F8E1
:101B3000400084F8410084F8420084F8430084F8AF
:101B4000440084F8450084F83D00002010BD704733
:101B500090F83D10012901D001207047022180F842
:101B60003D100168CA6842F00102CA60006811496C
:101B7000884214D0B0F1804F11D00F4988420ED066
:101B80000E4988420BD00E49884208D00D49884240
:101B900005D00D49884202D00C49884204D18168A1
:101BA00001F00701062903D0016841F0010101603D
:101BB0000020704700000140000400400008004081
:101BC000000C0040000401400040014000180040AB
:101BD00070472DE9F04104460068C66805694FF07A
:101BE0000007A90713D5B10711D5F91E016101201E
:101BF0002077206880698007204602D0FFF7E8FF41
:101C000004E000F07EF8204600F07CF827776807B3
:101C100016D5700714D521686FF004000861022002
:101C200020772068806910F4407F204602D0FFF7BB
:101C3000CFFF04E000F065F8204600F063F8277756
:101C4000280715D5300713D521686FF00800086103
:101C5000042020772068C0698007204602D0FFF763
:101C6000B7FF04E000F04DF8204600F04BF827776E
:101C7000E80616D5F00614D521686FF0100008614B
:101C8000082020772068C06910F4407F204602D0E9
:101C9000FFF79EFF04E000F034F8204600F032F831
:101CA0002777E80708D0F00706D021686FF0010019
:101CB0000861204600F028F8280608D5300606D529
:101CC00021686FF0800008612046FFF711FF680669
:101CD00008D5700606D521686FF0400008612046DF
:101CE00000F01CF8A8060AD5B00608D521686FF0E8
:101CF000200008612046BDE8F041FFF7FABEBDE8CC
:101D0000F08170477047000000680349884201D1A4
:101D1000FFF768BB7047000000000140704738B50E
:101D2000044690F84200202801D0022038BD61B15D
:101D30005AB10120206300206063204601F05CFD61
:101D40000028F3D1216B012901D0012038BD216881
:101D50000A684968009121680C3151E8002F42F06F
:101D6000100241E80023002BF5D138BD2DE9F041E8
:101D7000074619480E468068B84210D1164CDFF865
:101D80005C80E56808E000BF002308EB05011A4607
:101D9000606804F08FFD6D1CB542F5DB14E00E4861
:101DA00010308068B8420FD10B4CDFF8348010340B
:101DB000E56807E0002308EB05011A46606804F0B7
:101DC00079FD6D1CB542F5DBE660786B002800D12B
:101DD000E060BDE8F0810000100000200C01002050
:101DE0000C030020016882B000220B684B6800934E
:101DF0000B684B6800930B684B6800930B6849684D
:101E000000910D498968814205D10B49CA604FF4A0
:101E100000720A490AE0084910318968814208D1F4
:101E200005491031CA6006494FF4806202B0FFF7DD
:101E300076BF02B070470000100000200C010020A7
:101E40000C030020F8B5016804460868CA684B69AD
:101E500010F00F0F4FF0000559D003F0010602F407
:101E60009077374365D0C10705D0D10503D5616CA4
:101E700041F001016164410705D5D90703D0616CC8
:101E800041F002016164810705D5D90703D0616C77
:101E900041F004016164010707D502F020013143DC
:101EA00003D0616C41F008016164616C00293AD093
:101EB000800604D5900602D5204601F0B5FB2068C7
:101EC0004069616CC0F38010090700D460B32046FC
:101ED00001F075FB20684069400621D52068143068
:101EE00050E8001F21F0400140E80012002AF5D11F
:101EF000E06BA8B16E490165E06BFEF7F0FE0028CB
:101F000011D0E06B016D01B0BDE8F04008478306D9
:101F10000FD593060DD52046BDE8F84001F084BBEF
:101F20002046FFF75FFFF8BD2046FFF75BFF6564C3
:101F3000F8BD266B2023012E7DD1C6067BD5D606A3
:101F400079D508684868009048694FF00206400655
:101F500041D5E16B086840680004000CE8D0A28D10
:101F60008242E5D9E085C869B0F5807F2DD0206830
:101F70000C3050E8001F21F4807140E80012002A64
:101F8000F5D12068143050E8001F21F0010140E82D
:101F90000012002AF5D12068143050E8001F21F00B
:101FA000400140E80012002AF5D184F84230256350
:101FB00020680C3050E8001F21F0100140E80012AA
:101FC000002AF5D1E06BFEF741FE6663A08DE18D3E
:101FD000401A81B22AE0A08DE18D401A81B2E08DD5
:101FE0000028A5D00029A3D022680C3252E8000FA7
:101FF00020F4907042E80007002FF5D120681430DB
:1020000050E8002F22F0010240E80027002FF5D110
:1020100084F84230256320680C3050E8002F22F00D
:10202000100240E80023002BF5D166632046FFF73D
:102030009DFEF8BDFFE705062BD5150629D594F8BA
:1020400041002128F5D1A068B0F5805F01D1206959
:10205000B0B1206A411C2162216800784860E08CA0
:10206000401E0004000CE084E3D12068C16821F028
:102070008001C1602068C16841F04001C160D8E7BB
:10208000206A0088C0F308004860206A801C206233
:10209000E5E74006CDD55006CBD5CA68204622F0EC
:1020A0004002CA6084F8413000F096F9C1E70000B0
:1020B0007534000870B5040004D094F84100002580
:1020C00010B106E0012070BD84F84050204600F0B9
:1020D00023F8242084F841002068C16821F40051CD
:1020E000C160204601F002FB2068016921F49041A3
:1020F00001612068416921F02A0141612068C168BD
:1021000041F40051C1606564202084F8410084F8E6
:1021100042006563002070BD2DE9F04F87B0044692
:1021200014216846FEF7F8F8DFF870C1022126682E
:102130005B4803220723DFF86C8100258F064FF4EC
:10214000807A4FF0400B4FF4806966454ED1544E73
:102150001436D6F800C04CF0100CC6F800C0366833
:1021600006F010060596066846F00106066000684F
:1021700000F00100059050028DE8230069464046BA
:10218000CDE90323FEF730FF484E4748B84630609C
:10219000C6E90175C6E903597561C6E9065A356293
:1021A0004F4630467562FEF77DFE08B1FEF7DBFC58
:1021B000E663B4633D4E3C4860367830C6E9035769
:1021C0007561B561F5613562756286E80109304671
:1021D000FEF768FE08B1FEF7C6FCA66300220521E3
:1021E0002520B463FFF790F9252051E0DFF8C0C047
:1021F00066454FD12A4E1036D6F800C04CF4003C4C
:10220000C6F800C0366806F400360596066846F043
:1022100001060660006800F0010005900C208DE8C2
:10222000230069464046CDE90323FEF7DDFE1F4E3D
:102230002048C036B8463060C6E90175C6E9035982
:102240007561C6E9065A35624F4630467562FEF73B
:1022500029FE08B1FEF787FCE663B463164E154805
:10226000C6E903577561B561F5613562183075626D
:1022700086E801093046FEF715FE08B1FEF773FC4B
:10228000A663002205212620B463FFF73DF926202E
:10229000FFF72CF907B0BDE8F08F000000100140F7
:1022A000303802400000024040640240F007002045
:1022B00000440040886002401009002070477047C9
:1022C0002DE9F843044690F84100984616460D461D
:1022D000202802D00220BDE8F88385B17EB100201D
:1022E0006064212084F84100FEF77CFFA6848146CB
:1022F000E684A0682027B0F5805F02D003E00120CB
:10230000E9E7206910B12E4600250EE000260CE01A
:102310008021204601F0B8FAA8B9C6B116F8010B21
:1023200021684860E08C401EE084E08C4B464FF012
:102330000002CDF800800028EAD14FF0400120468D
:1023400001F0A2FA40B184F841700320C3E735F8E8
:10235000020BC0F30800E3E784F841700020BAE7FD
:1023600070B5044690F84100202801D0022070BDCD
:1023700049B342B32162A284E28400206064212335
:1023800084F84130A56B114BEB63A56B104B2B64AC
:10239000A56B104BEB64A36B1865256813462A1DCB
:1023A000A06BFEF7E9FD21686FF04000086020682F
:1023B000143050E8001F41F0800140E80012002A6C
:1023C000F5D1002070BD012070BD000073350008FC
:1023D000B535000885340008084A9268824201D168
:1023E000064906E0054A10329268824201D103494B
:1023F00010310868002104F0BCBA00001000002071
:102400007047000008B5074B0649181D0C310A1D1E
:102410001C680094046800940C680094146800948C
:1024200000BEF5E728ED00E000210A4600EBC103FD
:10243000491C9A620529F9DB704700002DE9F0413B
:102440000446DDE90765069F416500214FEA01006A
:1024500004EBC10C491CCCF828000529F8DB2062EC
:1024600066616062C4E90127C4E9035320772065EF
:102470000120206004F1580000F0E6FF04F1640040
:10248000BDE8F04100F0E0BF07A001F070FC4FF4A0
:102490007A7409A10BA001F052FC18B1204603F098
:1024A00067FEF6E703F0FAFB73746D33325F663450
:1024B0005F7561727432000077787731323334356A
:1024C0003600000054656E64610000000021017751
:1024D0000162416A002901D0FFF7A6BF704708B525
:1024E0006A4600F001F808BD2DE9F0419AB01646A1
:1024F0000F4604464FF0FF384546582225496846A6
:10250000FDF7F1FE206A00283FD116A800F09CFFDD
:1025100016A8616800F095FF07B96F46398BA16175
:10252000B87E606204F1640000F086FF3A46A1685C
:10253000206900F04FFA011E03DC17A001F0ECF94E
:1025400023E016AA204603F029FB050004D001462B
:1025500013A001F0E1F918E016AA0221204603F0C9
:102560004DFF02280AD10027377077703146701C62
:10257000E368626900F03EF8012801D0454604E0B6
:10258000357815B90120206227771AB02846BDE8B2
:10259000F08100006472000831207263200D0A008F
:1025A00032207263202564200D0A00002DE9FC41D1
:1025B000074615460E4600246846009303F068FA65
:1025C00060F30704C4F3C00030702009387001A91B
:1025D000009800F0DDF80099019A014400910A4446
:1025E000511A022904DB684603F058FA28800120BA
:1025F000BDE8FC812DE9FC41074600240E46254636
:102600006846009203F044FA0146204661F3070051
:102610000009022819D101A9009800F0B9F8009921
:1026200005460844019900900144081A02280CDB71
:10263000684603F02DFA60F3070404F001003870D7
:10264000684603F025FA307001252846BDE8FC8174
:102650002DE9FC5F8046DDE90EA00024CDE90004F1
:10266000994617460E462546DDF834B0684603F015
:102670000FFA60F30704200903282CD1C4F3C0012A
:1026800088F80010C4F34100306004F00100387095
:1026900001A9009800F07CF80099054608440199CA
:1026A00000904418224669460C9803F000FA90B155
:1026B0000098201A0FD43068002804DD684603F023
:1026C000EDF9A9F800000098211ACAF80010009945
:1026D0000125CBF800102846BDE8FC9F2DE9FC47FA
:1026E00081460A98002400909A4616468846254658
:1026F000684603F0CDF90146204661F30700000962
:10270000092826D101A9009800F042F80099054651
:102710000844019900904718381A022819DB6846C6
:1027200003F0BCF9A9F8000034600EE031684145BF
:1027300002DD4FF0FF350CE0684603F0A9F931687F
:102740008B00491C31604AF803000098B842EDD371
:1027500001252846BDE8FC87F8B5012500240E4672
:1027600007460C60641C042C0FDC01216846B84746
:1027700001280AD19DF80000316800F07F0202FBB9
:102780000511ED0131600006ECD42046F8BD0000D3
:10279000024A10600248FFF7DFBF0000FC00002083
:1027A000893E000810B503460020CA1701EB5264A9
:1027B00024F07F02891ACAB2E111002902DD00BFAC
:1027C00042F080021A5400F10100EEDC10BD70B539
:1027D00004680E4624B12046FDF7C5FD054601E01C
:1027E000D0E901543046FDF7BEFD854205D12A46A9
:1027F00031462046FDF7CCFD08B1002070BD012018
:1028000070BD0000401C802801DA401C7047B0F504
:10281000804F01DA801C70470349884201DAC01CEE
:102820007047001D70470000FFFF1F002DE9F047B3
:1028300006464FF0FF37006ADFF80CA18AB0154654
:102840003C464FF00008894660B107A800F0FCFD47
:1028500007A8716800F0F5FD2878012806D0022845
:1028600004D007E039A001F057F861E0304602F0EB
:102870000BFBA880D5E90201CDE90501CDE902985D
:10288000CDF81080A9886878CDE900012B78002266
:10289000B168306900F068F9011E03DC2DA001F079
:1028A0003BF845E007AA304603F078F9040004D06D
:1028B00001462BA001F030F832E02878012802D040
:1028C000022815D02CE007AA0421304603F096FD1B
:1028D000042801D025A01FE0F068009001AA02A9F9
:1028E00003A87369FFF762FE012819D021A013E045
:1028F00007AA0721304603F081FD072801D01FA059
:102900000AE0F068009001AA02A903A87369FFF722
:102910004DFE012804D01BA000F0FEFF3C4607E05E
:10292000601C05D0CAF804800AB02046BDE8F087D4
:10293000DAF80410491CCAF804100B29F4D1304607
:10294000FFF7C4FDF0E700000001002030300D0A61
:10295000000000003131206C656E2025640D0A00F6
:1029600032322072632025640D0A00003434200DB9
:102970000A0000003333200D0A0000003636200D17
:102980000A0000003535200D0A000000F8B50024CB
:10299000069E05460090042901DAA01EF8BD62F3E8
:1029A000071463F3C304062A24F0060000D1801C38
:1029B000C1B2684603F04DFD02210098FFF7F2FE18
:1029C0000099084400903146684603F048FD00989D
:1029D000401BF8BD2DE9F843074600908846144691
:1029E0000025104600F082F88146FFF70BFF4045B6
:1029F00002DDA81EBDE8F8832E46314666F30701C6
:102A00006846103103F025FD49460098FFF7CAFEDD
:102A1000009908440090207A04281DD02FA1684610
:102A200003F003FD0321684603F013FDA07E66F367
:102A3000070560F34105E07E08B145F0040568072D
:102A400007D594F83D0060F3C40594F83C0060F3AA
:102A50004515206C40B905E022A1684603F0E5FC6D
:102A60000421E0E7A06C08B145F08005E06C08B9EE
:102A7000606D08B145F040052946684603F0E9FC61
:102A8000218B684603F0EBFC04F10C0168460EC98B
:102A900003F0F4FCE07E68B12434684694E80E004C
:102AA000243C03F0EBFC3034684694E80E00303CE4
:102AB00003F0E4FC280605D504F1400168460EC980
:102AC00003F0DCFC680605D54C34684694E80E003B
:102AD00003F0D4FC0098C01B8CE700004D514973F3
:102AE000647000004D5154540000000070B504465D
:102AF000007A0025032802D0042802D002E00C2529
:102B000000E00A2504F10C0007C800F0A7F905440D
:102B1000E07EAD1C78B1243494E80700243C00F03A
:102B20009DF93034064694E80700303C00F096F9F1
:102B3000304405442D1D206C08B9A16C29B1D4E99D
:102B4000111200F08BF90544AD1CE06C08B9616D01
:102B500029B1D4E9141200F081F90544AD1C2846CE
:102B600070BD0C2200F0AFB82DE9FC5F1C46129E30
:102B7000CDE90060DDF838B09046DDF830A0DDE941
:102B80000F23894607465946204600F030F805468F
:102B9000FFF738FE484503DD6FF00100BDE8FC9FFC
:102BA000302168F3C30164F342016AF3000101A814
:102BB00003F04FFC29460198FFF7F4FD0199084402
:102BC0000190DDE90F23594601A803F057FC002CC2
:102BD00003DD01A80D9903F042FC324611990198DA
:102BE000FDF781FB019830440190C01BD6E770B51A
:102BF0000E46114604461A463046049D00F02EF952
:102C00002844801C002C00DD801C70BD2DE9FF4F86
:102C100083B0064610A8894690E8800900249246B1
:102C2000254641463846009600F036F80190FFF7F9
:102C3000E9FD484503DDA01E07B0BDE8F08F64F351
:102C4000070480346AF3C30424F00600801CC1B278
:102C5000684603F0FEFBDDE90001FFF7A3FD0099E4
:102C6000084400906846069903F0F9FB0FE000BFA6
:102C700005EB450108EB810090E80E00684603F083
:102C8000FDFB1BF82510684603F0E3FB6D1CBD42FD
:102C9000EEDB0098801BCFE72DE9F04102250F46BF
:102CA000064600240AE000BF04EB440007EB800066
:102CB00007C800F0D3F80544641CED1CB442F3DBF4
:102CC0002846BDE8F08138B500230446009002296B
:102CD00001DA981E38BD194663F3070162F3071144
:102CE000684603F0B6FB00210098FFF75BFD0099F2
:102CF00008440090001B38BD2DE9F047174689466F
:102D000006464FF0FF35002406EBC408D8F828002B
:102D100018B14946FDF72EFB30B1641C052CF3DBDE
:102D200017B3681C0DD01FE0002F06D106EBC401BD
:102D30004FF000008862C8F82C004FF000050DD15C
:102D400012E04FF0000400BF06EBC400806A20B11F
:102D500004F10104052CF7DB06E00025052C03DA5D
:102D600006EBC400C0E90A972846BDE8F0871CB509
:102D700001AC009400F001F81CBD2DE9FF478EB0B6
:102D800000261A9F05460796089606914FF0FF38D1
:102D9000006A9A468946444620B309A800F054FBCD
:102DA00009A8696800F04DFB284602F06DF883B26F
:102DB00010AA06A901208DE807000022A968286949
:102DC000FFF724FF011E27DD09AA284602F0E6FED0
:102DD00004001FD109AA0921284603F00FFB092886
:102DE00001D0444618E002963E70E9686869CDE972
:102DF00000013B4602AA012103A8FFF76FFC01284E
:102E000008D13878802805D0524649462846FFF731
:102E100073FF0446601C02D12846FFF757FB12B02F
:102E20002046BDE8F087FEB506460D4600246846FC
:102E300000F00AFB2946684600F003FB694630466D
:102E400001F034F8002802DA4FF0FF3404E068465D
:102E500000F0FFFA0028F1D02046FEBD10B510B1F9
:102E6000FDF781FA0146084610BD0000194808B573
:102E7000016841F480010160016801F48001009162
:102E8000016841F4001101600068002200F40010A4
:102E9000009005211020FEF737FB1020FEF726FBDF
:102EA000002205211120FEF72FFB1120FEF71EFB4B
:102EB000002205213A20FEF727FB3A20FEF716FBF9
:102EC000002205214620FEF71FFBBDE808404620F2
:102ED000FEF70CBB3038024010B5044A002104480C
:102EE00002F010F90349086010BD0000C871000825
:102EF0008D3000086000002070B586B0142168464F
:102F0000FDF70AFA16480024016841F0200101602B
:102F1000016801F020010591016841F001010160A3
:102F2000016801F001010591016841F002010160B1
:102F300000680C4E00F002004FF4C06505900022BE
:102F400029463046FEF748F901200095CDE90104F5
:102F5000694630460394FEF747F806B070BD00009E
:102F600030380240001402400D4810B50B49016092
:102F70000C49416000214FF480428160C0E9031296
:102F800041618161C1610162FEF732F9002803D01D
:102F9000BDE81040FDF7E7BD10BD00000054004043
:102FA0000C070020A08601000C4810B50A490160FA
:102FB0004FF4E1314160002181600C22C160C0E921
:102FC00004128161C161FFF775F8002803D0BDE8E4
:102FD0001040FDF7C8BD10BD001001406007002083
:102FE0000C4810B50A4901604FF4E13141600021FD
:102FF00081600C22C160C0E904128161C161FFF7E8
:1030000059F8002803D0BDE81040FDF7ACBD10BD55
:1030100000440040A8070020FEE7FEE72DE9FF413D
:10302000054617464FF0FF36084600F08AFE0400BA
:1030300018D0B8B201F08EFFADF802000220019462
:10304000ADF800000622012100F01CFF28600028D6
:1030500008DB1022694600F070FE060002D52868E1
:1030600000F069FE04B03046BDE8F0810021016047
:1030700003494160034981600349C1607047000012
:103080006D0B0008C70B00086B0B00080020FFF752
:10309000FBF90C4C4FF400764FF4FA7500223146E0
:1030A0002046FEF799F8284603F062F801223146DF
:1030B0002046FEF791F8284603F05AF8012001F067
:1030C000E6FFEBE700140240ADF5067DDFF8748102
:1030D0005DA0FDF7A5FD002406464FF0FF3B4FF431
:1030E000FF774FF0010A6D468094F3685A4681A934
:1030F000304698478098B8421DD880999DF80402C0
:1031000068548098284444708098042840D352A181
:103110006846FDF70CF95FEA000939D03A21FDF75E
:1031200018F970B382A9484601F010FC90B1809460
:103130008DF80040D9E74FF48072684640A9FDF74A
:10314000D2F89DF804028DF800018DF8014140F29B
:1031500001102AE09DF8080201F0A2FE5FEA0009D2
:1031600010D082AA314601F0B1FD0028DFD1D9F894
:1031700030000028DBD000231A46194603F0EAFA93
:10318000D5E705E0BDF80A12304601F0FFFDCEE7B5
:10319000809840B1284410F8010C0D2803D1809884
:1031A000285C0A2803D08098401C80909DE7809876
:1031B0002BA1401E80902C546846FDF7B8F80028DB
:1031C000B5D12AA16846FDF7B2F820B12C21684696
:1031D000FDF7BFF8ABE727A16846FDF7A8F868B987
:1031E00026A16846FDF7A3F880B902E0D8F8380AAE
:1031F000C1E725A16846FDF79AF810B1C8F800406C
:10320000F4E722A16846FDF792F810B1C8F800A0D3
:10321000ECE7D8F82C0A0A2889D2809908EB8000BC
:10322000491CC0F8041AD8F82C1A08EB0120491CD4
:10323000C8F82C1A809A6946001D521CFDF753F8F5
:1032400075E70000B452002073746D33325F66344A
:103250005F756172743200002B4950442C000000ED
:103260002C434F4E4E454354000000002C434C4F1E
:103270005345440053454E44204F4B0053454E4464
:10328000204641494C0000004F4B00004552524F30
:103290005200000010B54FF0E020006903F0A2FDDD
:1032A000012803D0BDE8104003F07EB910BD000036
:1032B00030B593B030216846FDF72EF814210CA8E4
:1032C000FDF72AF81D480025016841F08051016092
:1032D000006800F0805011901948016841F4804165
:1032E00001600068022400F48040119001200390E6
:1032F00010200490009406940820CDE90750A820DF
:10330000CDE9090404200B906846FEF73BFA08B1AA
:1033100072B6FEE70CA90F2081E831004FF4A050EF
:103320000F904FF48050109005210CA8FEF71EF965
:10333000002801D072B6FEE713B030BD403802401D
:10334000007000400248016841F47001016070475C
:1033500088ED00E00148FEF73CBC00007009002049
:10336000F0B50268294C2A4D2A4E2B4F2B4B4FF0BB
:10337000804CA04209D0604507D0A84205D0B04299
:1033800003D0B84201D0984204D122F0700E4A68AE
:1033900042EA0E02A0421BD0604519D0A84217D0C5
:1033A000B04215D0B84213D0984211D01C4DA8425B
:1033B0000ED01C4DA8420BD01B4DA84208D01B4D6F
:1033C000A84205D01A4DA84202D01A4DA84203D1F6
:1033D00022F44075CA682A434D6922F080022A43CC
:1033E00002608A68C2620A688262A04201D0984282
:1033F00001D109690163012141610169C90703D054
:10340000016921F001010161F0BD000000000140EF
:103410000004004000080040000C0040000401408F
:1034200000400140004401400048014000180040B5
:10343000001C0040002000404FF47A725143AFF36B
:10344000008002C002F044BF002101604160816041
:10345000704710B50146001D03F032FC012800D072
:10346000002010BD10B504460146001D03F028FCE5
:10347000206810BD10B5806B0021C185C184FEF7A6
:10348000B1FC10BD70B5846B2068406994F84110A0
:10349000C0F3C0100025212904D118B1E5842046CD
:1034A00000F0B4F82068406994F84210C0F380102E
:1034B000222904D118B1E585204600F080F8606C1F
:1034C00040F0100060642046FEF78CFC70BD10B523
:1034D0000146806B096809684FF00002C9052ED4C7
:1034E000C28501680C3151E8003F23F4807341E844
:1034F0000034002CF5D10168143151E8003F23F06D
:10350000010341E80034002CF5D10168143151E881
:10351000003F23F0400341E80034002CF5D1202186
:1035200080F84210016B012909D101680C3151E882
:10353000003F23F0100341E80034002CF5D1426332
:10354000016B012902D0FEF7B9FE10BD818DFEF797
:103550000DFC10BD10B5806B01214163016B012989
:1035600002D0FEF7ACFE10BD818D4908FEF7FEFBD0
:1035700010BD10B50146806B09680968C90516D4ED
:103580000021C1840168143151E8002F22F080022B
:1035900041E80023002BF5D101680C3151E8002FE0
:1035A00042F0400241E80023002BF5D110BDFEF7A8
:1035B00013FF10BD10B5806BFEF722FF10BD016830
:1035C0000C3151E8002F22F4907241E80023002BC7
:1035D000F5D10168143151E8002F22F0010241E8D1
:1035E0000023002BF5D1016B012909D101680C31B1
:1035F00051E8002F22F0100241E80023002BF5D102
:10360000202180F8421000210163704701680C31CD
:1036100051E8002F22F0C00241E80023002BF5D131
:10362000202180F84110704708B590F842102229F7
:1036300001D0022008BD82684FF480539A4201D124
:10364000016921B1816A9A421BD04AB10AE002683D
:10365000816A5268C2F308020A80816A891C08E004
:10366000026972B10268526802F07F020A70816AD0
:10367000491C8162C18D491E0904090CC18503D012
:103680001BE002685268F1E70168CA6822F0200274
:10369000CA600168CA6822F48072CA6001684A6917
:1036A00022F001024A61202180F84210002141638A
:1036B000026B012A03D0FEF701FE002008BD016362
:1036C00001680C3151E8002F22F0100241E800237C
:1036D000002BF5D101680A68D20602D50A6849684C
:1036E0000091818DFEF742FBE7E7000070B50446CC
:1036F00000680169E26821F44051114301612169C8
:10370000A068E26908436169114308432168CA68F7
:1037100049F20C639A430243CA6020684169A26976
:1037200021F440711143416131492068884202D03F
:103730003049884202D1FDF7E3FF01E0FDF7D0FFF9
:10374000E2690023192164253226B2F5004F626830
:1037500028D0A0FB0101930F9200FCF793FD0146D6
:10376000B0FBF5F06FF01802504301EB800006EB60
:103770000010B0FBF5F000F0F002B1FBF5F002EB49
:103780000012B1FBF5F06FF01803584301EB800015
:1037900006EB0010B0FBF5F000F00F0021681044BC
:1037A000886070BDA0FB010192185B41FCF76AFDC7
:1037B0000146B0FBF5F00201B1FBF5F06FF0180324
:1037C000584301EB800006EBC000B0FBF5F000F0C1
:1037D000F80002EB4002B1FBF5F0584301EB80002A
:1037E00006EBC000B0FBF5F000F00700D6E70000E4
:1037F000001001400014014038B581620446828502
:10380000002013466064222284F84220E56B1B4AA4
:10381000EA63E56B1A4A2A64E56B1A4AEA64E26BCA
:1038200010650A462168E06B091DFDF7A5FB2068BD
:10383000016840680090206948B120680C3050E869
:10384000001F41F4807140E80012002AF5D1206881
:10385000143050E8001F41F0010140E80012002A36
:10386000F5D12068143050E8001F41F0400140E8D5
:103870000012002AF5D1002038BD0000CF34000826
:1038800055350008853400082DE9F8439846174659
:103890000D460446089E24E0701C22D0FDF7A2FCD1
:1038A000A0EB0800B0421AD8CEB12068C168490721
:1038B00017D5802D15D0402D13D00168C9430907B5
:1038C0000FD401680025406800902046FFF777FE7E
:1038D0000820606484F840500120BDE8F88303208C
:1038E000FBE72068006835EA000004D00020B842F9
:1038F000D2D00020F1E70120F9E700000148FEF7EF
:10390000A1BA0000600700200148FEF79BBA000042
:10391000A8070020FEE700000FB4054B10B503A96F
:10392000044A029800F056F810BC5DF814FB000041
:10393000714E0008080100200FB47CB50C0009ADE1
:1039400001D0611E00E00021CDE90001064B6A466E
:103950002946089800F03EF8002C02D0009A002179
:1039600011707CBC5DF814FB173D00080FB4084BC8
:1039700010B504A902AA039800F02CF8044602A985
:10398000002000F0D3F9204610BC5DF814FB0000C5
:103990002D3D00080907090E002804DB00F1E02096
:1039A00080F80014704700F00F0000F1E02080F86C
:1039B000141D704702E008C8121F08C1002AFAD17E
:1039C00070477047002001E001C1121F002AFBD19F
:1039D000704700002DE9FF4F8BB088460546002652
:1039E00006E025280BD0DDE90D1290476D1C761CF2
:1039F00028780028F5D10FB03046BDE8F08F0024BC
:103A0000A146A2460122AE4900E0044315F8013F59
:103A1000203B02FA03F00842F7D128782A2810D078
:103A20006FF02F022878A0F13001092915D809EB91
:103A3000890102EB410144F0020400EB01096D1C15
:103A4000F0E758F8041B5FEA010903D544F4005479
:103A5000C9F1000944F002046D1C28782E2817D102
:103A600015F8010F44F004042A280ED06FF02F023D
:103A70002878A0F1300109290AD80AEB8A0102EB63
:103A8000410100EB010A6D1CF2E758F804AB6D1C14
:103A900028786C280FD006DC4C2817D068280DD069
:103AA0006A2814D104E0742810D07A280FD10DE0D0
:103AB00044F400140AE044F4801401E044F4401497
:103AC0006978814202D104F580146D1C6D1C287840
:103AD000692865D006DC00288DD0632827D06428AB
:103AE00006D15DE06E2808D073282AD0752877D0DB
:103AF000DDE90D129047761CE0E0C4F30250022885
:103B000009D003280DD0D8F8001004280DD00E607D
:103B100008F10408D2E0D8F80010F217C1E90062F9
:103B2000F6E7D8F800100E80F2E70E70F0E718F80C
:103B3000041B8DF8001000208DF80100EB460120D9
:103B400003E058F804BB4FF0FF3061074FF0000767
:103B500001D40AE07F1C57450DDA8742FADB1BF8D7
:103B600007100029F6D106E07F1C8742FCDB1BF81A
:103B700007100029F8D1DDE90D23A9EB07008146E4
:103B8000214600F0B1F83044C61904E0DDE90D1219
:103B90001BF8010B90477F1EF8D22146484688E06B
:103BA00058F8040BC4F302514FF00A0B032900D15B
:103BB00000B2042900D140B2002802DA40422D218F
:103BC00002E0210505D52B218DF82410012104E008
:103BD00006E0E10710D02021F6E708AF089113E0D6
:103BE00058F8040BC4F302514FF00A0B032900D11B
:103BF00080B2042900D1C0B20021EEE75946FCF79B
:103C000009FD303107F8011D0028F7D1ADEB0700A1
:103C100000F1200B600702D524F4803401E04FF05E
:103C2000010ADA4502DDAAEB0B0000E00020824623
:103C300000EB0B0108980144A9EB01000A90E00396
:103C400006D4DDE90D2321460A9800F04DF806441C
:103C50004FF0000908E009A911F80900DDE90D128B
:103C6000904709F10109761C08998945F3DBE003C7
:103C70000CD5DDE90D2321460A9800F035F80644FD
:103C800004E0DDE90D1230209047761CBAF1000106
:103C9000AAF1010AF5DC05E0DDE90D1217F8010BC8
:103CA0009047761CBBF10001ABF1010BF4DC0A98E4
:103CB0002146DDE90D2300F005F806446D1C97E66A
:103CC000092801002DE9F041044600251E4617464B
:103CD000880404D405E039462020B0476D1C641EDA
:103CE000F9D52846BDE8F0812DE9F04104460025CC
:103CF0001E469046C80301D5302700E020278804DF
:103D000004D505E041463846B0476D1C641EF9D520
:103D10002846BDE8F0814A68002A06D00A68531C8C
:103D20000B6010704868401E486070470A68531C5A
:103D30000B601070704700F0ADB900F0BDBA00F034
:103D4000FFBB08B5002208E02E2B05D0303B092B25
:103D500002D900F00DFD08BD521C835C002BF3D18D
:103D600001466A46022001F0FBF8009808BD00F009
:103D700049BD1CB500240094019400F095FE1CBDC3
:103D800000F0CABE2DE9F05F8A46DDE90A790446F3
:103D90004FF0FF31D0F8406A9B4690460D46D0F870
:103DA000340A02F0D1FE0020C4F82C0A2060282139
:103DB00004F60420FCF7B0FA5046FCF7D4FA0246A9
:103DC000D6F808C04B4651463046E0474FF47A716A
:103DD00009FB01F0B0FBF1F1D4F8380A02F0B4FEAF
:103DE00001281ED1B8F1000F1AD00020054611E0BD
:103DF00004EB8501D1F8042ABA4200D93A46861864
:103E0000BE4206D804EB05214044091DFCF76BFABD
:103E100030466D1CD4F82C1AA942E9D8CBF8000022
:103E2000256800231A461946D4F8340A02F092FC99
:103E30002846BDE8F09F2DE9F04104460F461D4697
:103E40001646D0F8340A4FF0FF3104F6342402F05D
:103E50007BFEE0682B463246D0F808C03946E04782
:103E600006464FF47A704543B5FBF0F1606802F006
:103E70006BFE00231A461946206802F06BFC3046A0
:103E8000BDE8F08100F0D2BE30B5044606480023FC
:103E9000026803E012F8015B25705B1C8B42F9DBC2
:103EA0000260084630BD0000FC0000202DE9F0470C
:103EB0008EB08A460546002401F013FE671EDFF827
:103EC00020910646A0460E2808D2DFE800F06E07D3
:103ED0006E096E49496E076E076E076C044669E00D
:103EE000CDF8208008AA6969E8680292CDE903103C
:103EF00007AB0AA8CDE9000305A8031D421C09A9C8
:103F0000801CFEF7A5FB01285FD109988DF81400ED
:103F100005AA0AA9284600F065F89DF81400E8B340
:103F2000012802D0022808D037E0BDF81800009020
:103F300000230422A968286906E0BDF81800009053
:103F400000230522A9682869FEF720FD011E24DD53
:103F50005246284601F022FE0446401C2BD024E0A5
:103F6000E868009001AA02A903A86B69FEF71EFB8E
:103F7000012812D1BDF804000090052E11D00722AF
:103F80000023A9682869FEF701FD011E05DD5246E0
:103F9000284601F003FE040007D000E005E03C469F
:103FA00009E00622ECE785F81C80284601F002F8BB
:103FB0000028F2D14CB1286A70B1D9F80010491C20
:103FC000C9F800100B2904D006E03446C9F8008077
:103FD00002E02846FEF77AFA0EB02046BDE8F087E8
:103FE000000100202DE9FC479146884606464FF027
:103FF000FF34002506EBC507B96AD1B34046FEF78A
:10400000E6FB70BBD8E901100A18BB6A20E000BFCC
:1040100090F800C0BCF12F0F0AD02B290BD0232918
:1040200013D0614518D12B2905D023290DD00DE0DF
:104030002F2911D10AE0411C01E0811C401C914252
:1040400004D209782F29F8D100E0501E401C5B1CD7
:10405000197809B19042DBD390420AD111F0FF0FD9
:1040600007D1F86A28B1CDE90098F96A684688470F
:1040700000246D1C052DBDDB601C07D1306D28B1FF
:10408000CDE90098316D6846884700242046BDE898
:10409000FC8700002DE9F14F94B0DFF8F08114980F
:1040A00000F0DCFE0446302102A8FCF735F94FF0A1
:1040B000000A8DF838A0504656464FF0FF310FAA3F
:1040C000914642F82010401C0528F9DB14980A2874
:1040D0000AD2B8F1000F07D034B1207A012805D0F8
:1040E000002015B0BDE8F08F0846FAE78B46606BFC
:1040F00002F02AFD6068401C16D0302102A8FCF7AF
:104100000BF9A07A022819D061A2302102A86368B5
:10411000FFF712FC41F28831CDE900A100231A46D5
:1041200002A94046FFF72EFE00231A461946606B8F
:1041300002F010FBA07A022806D05BE059A23021E1
:1041400002A8FFF7F9FBE5E7E08900F09BFF0026F6
:1041500037460090D8F83C0A00EB8715A54246D0B8
:10416000297A05F10C00012941D1A97A01293ED112
:10417000408800F087FF0099884238D1284600F037
:1041800037FE002349F826001A461946286B02F02C
:10419000E1FA5946686B02F0D7FC00220EA9E86AE2
:1041A00002F036FC0128F8D085F808A0C5F804B064
:1041B00085F80AA085F80BA0C5F80CA0C5F810A0DA
:1041C000C5F814A0C5F818A0C5F81CA0C5F820A013
:1041D000C5F824A0C5F828A059F8260000F018FE5C
:1041E00000231A461946686B02F0B4FA761C7F1C4D
:1041F000052FAFDB00231A461946206B02F0AAFAFE
:104200005F465946606B02F09FFC00220EA9E06AEF
:1042100002F0FEFB0128F8D084F808A0676084F85B
:104220000AA084F80BA0C4F80CA0C4F810A0C4F82D
:1042300014A0C4F818A0C4F81CA0C4F820A0C4F8A6
:1042400024A0C4F828A0002384F809A055461A46E3
:104250001946606B02F07EFA02F096F8149800F0AE
:10426000D7FD00244F460CE057F82400002807DB58
:1042700000F0F4FD00B1457257F8240000F0C8FDCD
:10428000641CB442F0DB02F0D9FE29E7B4520020EE
:1042900041542B434950434C4F53453D25750D0A1E
:1042A0000000000041542B4349505345525645529B
:1042B0003D300D0A000000002DE9F04F9FB00D4683
:1042C00004464FF0FF370A281FD2F5B1102A1CD33D
:1042D000298863A0FFF720FB2888022815D1664EA5
:1042E000204600F0BBFD04000FD064A0FFF714FBD4
:1042F000BA463946606B02F027FC217A61A0FFF7CD
:104300000BFB207A01283CD103E038461FB0BDE802
:10431000F08FA07A012802D1607A012839D02F4687
:10432000688800F0AFFE7D68814629465BA0FFF7F4
:10433000F3FA4FF00008CDF86C80CDF87080CDF81E
:1043400074802A0EC5F30741C5F30720CDF87880A5
:104350008DE80700EBB255A210211BA8FFF7ECFA7D
:104360005146D6F8300A02F0EFFB00F0CDFD0546CD
:10437000052812D300231A461946D6F8300A02F04F
:10438000E9F900231A461946606B02F0E3F950463A
:10439000BCE749A0FFF7C0FAF3E7012065600023FE
:1043A00060721A461946D6F8300A02F0D3F9602135
:1043B00003A8FBF7B1FFE17A43A0FFF7ADFAE07A7B
:1043C0000DF16C0A41F2883B012802D002280DD081
:1043D00025E0CDE900A92B4642A2602103A8FFF702
:1043E000ABFA03A947A0FFF797FA0FE0E08900F0C6
:1043F00049FE08B940F2D240CDF800A0CDE90190C5
:104400002B4641A2602103A8FFF796FACDE9008B65
:1044100000231A4603A93046FFF7B4FC78B143A045
:10442000FFF77AFA4FF0FF356560002384F80980C2
:104430001A461946606B02F08DF9284666E701209E
:10444000A07297E80F0004F11C0585E80F00002317
:104450001A461946606B02F07DF9002056E700000D
:104460003320616464722D3E73615F66616D696CB7
:1044700079202025640D0A00B452002036200D0A50
:104480000000000070536F636B65742D3E6F7065A4
:104490006E5F666C61672025640D0A0072656D6F42
:1044A0007465206970202564200D0A0025752E256D
:1044B000752E25752E2575003920534F434B4554D5
:1044C0005F555345440D0A0070536F636B65742D3F
:1044D0003E736F636B65745F747970652025640D3E
:1044E0000A00000041542B43495053544152543D5B
:1044F00025642C22544350222C222573222C25750E
:104500000D0A00002573000041542B4349505354B9
:104510004152543D25642C22554450222C222573AF
:10452000222C25752C25752C300D0A0041542B4367
:1045300049505354415254206572720D0A000000D4
:104540002DE9F0430024A3B0244E0F46814641F2EA
:1045500088354FF0FF382346224621A13046CDE969
:104560000045FFF70FFC002835D14B461EA28021E5
:1045700002A80097FFF7E0F900231A4602A9304687
:10458000CDE90045FFF7FEFB002824D1304600F0BE
:1045900047F8F8B100231A4619A13046CDE9004585
:1045A000FFF7F0FB002816D100231A4618A1304669
:1045B000CDE90045FFF7E6FB00280CD1802102A8D9
:1045C00000F084F8002806D0494602A8FBF7D2FE86
:1045D000002800D0404623B0BDE8F083B45200204C
:1045E000415445300D0A000041542B43574A415075
:1045F0003D222573222C222573220D0A0000000083
:1046000041542B4349504D55583D310D0A0000008F
:1046100041542B43495044494E464F3D310D0A0009
:1046200070B58CB00446202102A8FBF775FE002669
:104630000A96D4F8440A354600280BD141F2883056
:10464000CDE9006000231A4617A12046FFF79AFB28
:1046500010B100200CB070BDD4F82C0A00280FDD7A
:1046600004EB052002AA13A1001DFBF7A1FE0128FF
:1046700010D0D4F82C0A6D1CA84201DD0A2DEFDB06
:10468000C4F82C6A282104F604202660FBF744FEB7
:104690000A98DFE70AAA02A9022000F061FC0A9842
:1046A000C4F8440AECE7000041542B4349465352F6
:1046B0000D0A00002B43494653523A535441495086
:1046C0002C222533315B5E225D220000F0B5A3B0C1
:1046D0000F460546194C802102A8FBF71DFE00205D
:1046E000229041F288318020CDE9000122AB02AA5C
:1046F00013A12046FFF746FB4FF0FF36D8B913A1B0
:1047000002A8FBF714FE04000ED055B1002F08DDFF
:1047100039462846FBF700FE2A460EA12046FBF745
:1047200047FE012023B0F0BD0FA102A8FBF7FFFD5B
:1047300008B10020F6E73046F4E70000B45200204C
:1047400041542B43574A41503F0D0A002B43574ACF
:1047500041503A002B43574A41503A222536335BA9
:104760005E225D22000000004E6F204150000000DC
:1047700030B5B1B00546174CFBF7F5FD572811D8F9
:104780002B4615A2642102A8FFF7D6F841F2883122
:104790004020CDE900012FAB1BAA02A92046FFF75C
:1047A000F1FA10B1002031B030BD2EA92DA8CDE90D
:1047B00000012CAB2BAA0DA11BA8FBF7F9FD2B9830
:1047C0002C99000640EA01402D9940EA01202E99DB
:1047D0000843E8E7B452002041542B434950444F6A
:1047E0004D41494E3D222573220D0A002B4349506D
:1047F000444F4D41494E3A25642E25642E25642EA2
:10480000256400002DE9FC5F424D834640F64821B7
:104810002846FBF781FD05F64820C5F83C0A012033
:1048200005F5236501F0F3FE2860012001F0EFFE9D
:10483000686003220021012001F0F4FEA8602968CD
:104840004FF0FF34A5F5236500295ED0D5F8341A62
:1048500000295AD0002858D02FA0FFF75DF8002774
:104860003E46A0464FF4807A4FF47A79D5F83C0A58
:10487000002100EB87140A20C4F80080C4F80480EB
:10488000667201F0A7FE2063012001F0C0FE6063A4
:1048900000220121504601F0C5FEE062A672C4F874
:1048A000389026720146C4F83C90206B78B371B3FF
:1048B000606B60B37F1C052FD8DB5846FCF7B0F95E
:1048C000C5F8400A00960123446808224FF4E131FC
:1048D000A04715491920CDE900012B464FF400727D
:1048E00012A1164802F026FA41F28830CDE90060A4
:1048F00000231A4612A12846FFF744FA4FF4FA6043
:1049000001F036FC0020BDE8FC9F2046FBE7FFE7F6
:104910004046F8E7B4520020657370383236365F8F
:10492000696E69740D0A0000F8000020537461720A
:10493000745F726563765F7461736B00C9300008E1
:1049400041542B5253540D0A00000000F0B591B0B1
:104950000C4605000DD064B1002626606660A66096
:1049600005224FA1E660FBF713FD28B1B01E11B080
:10497000F0BD4FF0FF30FAE76D1D0FA968460095B6
:1049800000F005FC10B16FF00200F0E70F9804286A
:1049900002D96FF00300EAE72070009801782C2913
:1049A00002D06FF00400E2E7401C00900FA96846B7
:1049B00000F0EDFB10B16FF00500D8E70F984FF451
:1049C0008037B84202D36FF00600D0E760800099CC
:1049D00008783A2804D02C2806D06FF00700C6E7E4
:1049E0002671A660A68158E0491C01200091207123
:1049F0000878222801D000981FE0491C0846009141
:104A000001E0401C0090027852B1222AF9D1451AE7
:104A1000401C009002782C2A05D06FF00900A6E710
:104A20006FF00800A3E7401C00900DB12E2D0DD3B0
:104A30006FF00B009BE7401C009002781AB12C2A03
:104A4000F9D1451AEFE76FF00A0090E72A4603A86C
:104A5000FBF749FC03A80146465504F10802022071
:104A600000F07EFA012802D06FF00C007FE70FA95A
:104A7000684600F08CFB10B16FF00D0077E70F98DF
:104A8000B84202D36FF00E0071E7A0810098007861
:104A90003A2802D06FF00F0069E7002067E70000B6
:104AA0002B4950442C0000002DE9F04117460E0020
:104AB0004FF0FF342DD067B300F0D0F9050028D0B7
:104AC000E86A30B3002407E031190022E86A01F0F7
:104AD0009FFF012802D1641CBC42F5DBCCB9A86B56
:104AE00005E000BFB8F10A0F11DDA8F10A00804609
:104AF0000A21286B02F028F80128F3D107E03119C8
:104B00000022E86A01F084FF012802D1641CBC4243
:104B1000F5DB2046BDE8F0812DE9F04F0F46044655
:104B20008FB0154611462EA0FEF7F6FE4FF0FF3669
:104B30000A2C10D27FB195B1DFF8B4B0204600F056
:104B40008DF9040007D03146606B01F0FDFF207A3B
:104B5000012815D105E030460FB0BDE8F08F0020E8
:104B6000FAE7607A01280BD16068401C08D0B8468B
:104B70000027302102A8FBF7CFFB4FF4006A25E0A5
:104B800000231A461946606B01F0E4FDE3E7564640
:104B9000B54200D82E46009616A2302102A86368BE
:104BA000FEF7CAFE002141F28839CDE900190B4613
:104BB0000A4602A95846FFF7E5F808EB07014B46FD
:104BC00032465846FFF737F93744AD1B002DDEDC7F
:104BD00000231A461946606B01F0BCFD3846BBE75E
:104BE0005B53454E445D206C656E3D25640D0A00A7
:104BF000B452002041542B43495053454E443D2567
:104C0000752C25750D0A000007491B68D1F83C1A60
:104C100012B1012A02D005E0382200E03C2202EB6A
:104C200080100B5000207047B45200202DE9F04155
:104C30000D464FF0FF3702281AD1012D01D0022D69
:104C400016D100F04FF9040012D001F09DFB204670
:104C500000F0B4F806460121024621720EA0FEF7CC
:104C60005BFE002E07DA304600F0D2F802F0E6F9DB
:104C70003846BDE8F08100206072A072E572E06005
:104C800020616061A061E061206260626760A06293
:104C900002F0D4F93046ECE7657370383236365F8F
:104CA000736F636B65742070736F636B65742D3EF7
:104CB0006F70656E5F666C61672025642C736F632F
:104CC0006B66642025640D0A000000002DE9F8439E
:104CD000054614468846C06A01F015F90246618807
:104CE00022A0FEF719FE4FF0FF3785B1B8F1000F93
:104CF0000DD064B1E86A60B101F005F961888842BD
:104D00000ED2404600F042F8B81EBDE8F88338469F
:104D1000FBE76188404600F039F86FF00100F4E7E6
:104D2000207958B101F04CF90220A883A0682862CC
:104D3000A08900F00FF9E88301F062F9002610E085
:104D40006946404600F02EF800233A466946E86A74
:104D500001F000FD012802D06FF00300D5E7761CBA
:104D6000B6B26088B042EBD80020CEE75B49504431
:104D70005D20646174615F6C656E3D2564207370B5
:104D80006163653D25640D0A0000000038B50C46DE
:104D9000054603E06946284600F004F8641EA4B204
:104DA000F8D238BD70B50D4604460022E3682946A6
:104DB000204698470028F8D170BD000010B50200C9
:104DC0004FF0FF3008D0094B002100BF53F82140BD
:104DD0001CB1491C0A29F9DB10BD43F82120012030
:104DE000107253F821000160084610BD8C5200205B
:104DF0000146064A002000BF52F820308B4204D002
:104E0000401C0A28F8DB4FF0FF3070478C5200201E
:104E100070B504464FF0FF350A2801D3284670BD0F
:104E2000014607A0FEF778FD0B48002150F824202A
:104E3000117250F82420156040F82410084670BD07
:104E400066645F736F636B65745F66726565206629
:104E5000642025640D0A00008C5200200A2801D32A
:104E600000207047014951F8200070478C52002003
:104E700013B50A23012269460248FDF721FA00987A
:104E80001CBD0000600700200168A1F57F42FF3AC9
:104E900003D0491C0160084670470121FAE7000071
:104EA00070B50F4A002104230924D2F83C2A0825B2
:104EB00003EB81169659864209D104EB8116965D63
:104EC000012E09D005EB8116965D012E04D0491CF8
:104ED0000529EDDB002070BD02EB811070BD0000E4
:104EE000B452002007480021D0F83C2A02EB811080
:104EF000437A13B9037A002B03D0491C0529F5DB4B
:104F000000207047B45200207CB50020104900906A
:104F1000019009240425D1F83C2A01264FEA0D010D
:104F200004EB8013D35C012B05D105EB8013D35820
:104F3000052B00D2CE54401C0528F1DB00200A5C72
:104F4000002A04D0401C0528F9DB4FF0FF307CBD5F
:104F5000B4520020010241EA102080B270470000E4
:104F600070B586B00E46022803D04FF0FF3006B071
:104F700070BD154605AA04A8CDE9000202AC224680
:104F800009A13046231DFBF713FA042804D10020A1
:104F900054F82010FF2901D90020E8E72954401CCB
:104FA0000428F5DB0120E2E725642E25642E256424
:104FB0002E2564003EB504468069002520B304F127
:104FC0005800FEF746FA20B904F16400FEF741FAF2
:104FD000D0B1207F10B14FF0FF3515E06846FEF7E5
:104FE00033FA4FF47A716846FEF72BFAA16820690C
:104FF000FDF7B7FD011E07DD6A46204600F0CEFD35
:10500000050001D10120207728463EBDFCF7F2F9CA
:10501000FEF74EF9FDF770FFFDF728FFFDF7C4FF1F
:10502000FDF7A2FFFDF7DCFF00F03EF8FDF754FFAF
:1050300000F04CF8FEE7000000B50068C1B00AA21D
:105040008068009007480368591C01604FF4807124
:1050500001A8FEF771FC01A907A0FEF75DFC41B0B5
:1050600000BD000064000020676574206D73672038
:1050700025643A20257300007375622025730D0A9C
:1050800000000000010241EA102080B2704710B514
:10509000EFF3058111B16FF0050403E0002408B1BE
:1050A00001F066F8204610BDEFF3058010B16FF0F7
:1050B000050070470448016811B14FF0FF30704798
:1050C0000121016000207047C800002010B5EFF3F7
:1050D000058010B16FF0050010BD08480168012976
:1050E00002D04FF0FF3010BD054A002182F8141D98
:1050F0000221016001F004F9002010BDC800002069
:105100000BE000E02DE9FF414FEA01034FF00005FD
:10511000EFF30581039549BB40B380271821002494
:105120004AB3166806B1344696691EB13146761EFA
:10513000382E02D21679F60703D0002004B0BDE85D
:10514000F081566906B1B708D2F808C0BCF1000F6B
:105150000DD0D5685C2D18D312693AB136B18DE8FF
:1051600006103A46214601F012FE03900DE0D66883
:105170005EB912694AB903AACDE90012BAB2214652
:1051800001F0D8FD012800D003950398D6E7F0B5CB
:1051900000231D466FF02F06026806E003EB830331
:1051A000012506EB43032344521C1478A4F1300775
:1051B000092FF3D91DB10B6002600020F0BD4FF044
:1051C000FF30F0BD2DE9F041134C0F460546E6686F
:1051D0002068001D00F084FE681C07D137B12168EB
:1051E000BDE8F0410D48091D00F0DEBE20683544E1
:1051F000B5424560216805D2A06BBDE8F041091DAC
:1052000000F0BABE606B091D00F0B6FEA06A8542D0
:1052100000D2A562BDE8F08178000020A80E002031
:105220002DE9F041054600F0CBFE2D4CA068401C56
:10523000A06020682B4F10B1606930B32BE025606F
:10524000A068012827D1002606EB860007EB800026
:1052500000F084FE761C382EF6D3234800F07EFE44
:105260002148143000F07AFE1F48283000F076FE06
:105270001D483C3000F072FE1B48503000F06EFEBE
:10528000194860631430A06305E02068E96AC06AC9
:10529000884200D82560606A401C60626864E86AE1
:1052A0002169884200D9206100EB800007EB800073
:1052B000291D00F079FE00F0A3FE606900280CD0E3
:1052C0002068E96AC06A884207D208494FF08050D6
:1052D0000860BFF34F8FBFF36F8FBDE8F081000010
:1052E00078000020F8090020580E002004ED00E0AE
:1052F00038B500F065FE104C2068C8B90F4800F0C2
:105300002DFE0E48143000F029FE0C48E0601430E9
:1053100020610A4B0020F03B009003F15002102165
:105320000A2001F0A0F9206010B105A100F0EAFE0A
:10533000BDE8384000F064BEB4000020AC0F00208F
:10534000546D72510000000030B4026C0B46002A0C
:105350000BD0C1681144C1608468A14201D30168C7
:10536000C16030BC1846FAF7BEBF30BC70472DE9AB
:10537000F041856B174604460026026C82B1C7B126
:10538000E068FAF7B0FFE168206C091AE160226872
:10539000914202D2A168081AE060022F16D017E0ED
:1053A0002068A8B9A06801F095FD06460020A0601D
:1053B0000EE06068FAF797FF216C6068084460604F
:1053C000A168884204D32068606001E005B16D1EC9
:1053D0006D1CA5633046BDE8F08110B5044690F819
:1053E000590058B101280CD002280FD0502080F36A
:1053F0001188BFF34F8FBFF36F8FFEE7206B00F074
:1054000013FE2046BDE8104000F00EBE10BD0000A7
:1054100010484FF47051420706D0C01D0D4920F0CE
:105420000700411AC1F570510B4A00230144C2E93B
:1054300000030839183A21F0070111604B600B6036
:105440000B1AC0E9001393604FF0004053605061A5
:10545000704700008C160020E4000020144E154C0C
:10546000A6F29C474FF08058DFF84C9012E000BF46
:1054700000F0A6FDF068C568281D00F031FDA068A9
:10548000401EA0606068401E606000F0B9FD2846C4
:10549000FFF7A3FF60680028EAD138680128F9D92E
:1054A000C9F80080BFF34F8FBFF36F8FF2E70000A2
:1054B000940E00207800002004ED00E0002807D0C2
:1054C0000021816001600B460A46C16001F042B9CB
:1054D0007047000070B51D46049C51B1C4F800200F
:1054E000C4E90F010121204601F0F0F884F84C5086
:1054F00070BD2460F4E700002DE9F05F8846DDE927
:105500000B941546834691009A460A9EA522206B6D
:10551000FAF7FBFE6FF00301206B01EB85010844F5
:1055200020F00707780707D0502080F31188BFF3D9
:105530004F8FBFF36F8FFEE70025B8F1000F0FD03C
:105540005FF00000221818F8001082F8341018F8E4
:10555000001011B1401C1028F4D384F8435001E02E
:1055600084F83450382E00D33726E662C4E9136538
:10557000201D00F0FEFC04F1180000F0FAFC24618C
:10558000C6F138006462A061656584F858505246DF
:105590005946384600F066FA2060B9F1000F01D094
:1055A000C9F80040BDE8F09F30B5114900E0114650
:1055B0000A688242FBD34B685C18844203D140687E
:1055C00018444860084643681C18944209D1084CA6
:1055D000183C2468A24209D052681A4442600A6802
:1055E00012680260814200D0086030BD0460F9E7B3
:1055F000E400002070B5002441600B4D0061914231
:1056000006D8D11A8269914206D2011D286907E0A5
:105610009A4203D2994201D3012403E0011DE868B4
:1056200000F0AAFC204670BDB400002010B504466E
:1056300000F0C6FCA06B28B15FF0000400F0E0FCB5
:10564000204610BD0124F9E730B589B03C4D6EE02D
:105650000498002806DADDE90601059A90470498C7
:10566000002864DB069C606910B1201D00F038FC46
:1056700003A800F0D7F8024604980A2857D2DFE8BA
:1056800000F00505052D334A05052D3394F8280053
:1056900040F0010084F828000599A069059B0144A9
:1056A0002046FFF7A7FF68B3216A2046884794F891
:1056B000280040073BD5002000900598A1690023F1
:1056C00042181946204601F04BFDD8B9502080F30E
:1056D0001188BFF34F8FBFF36F8FFEE714F8280FC9
:1056E00020F00100207022E094F8280040F0010032
:1056F00084F828000598A06128B181181346204637
:10570000FFF778FF13E0502080F31188BFF34F8F2D
:10571000BFF36F8FFEE794F82800810703D420467B
:1057200000F082FC03E020F0010084F82800002251
:1057300004A9286801F06CF9002889D109B030BDAE
:10574000B40000202DE9FC410F46054600F01CFE88
:1057500001A800F067F80446019818B101F06EFC4A
:10576000BDE8FC81254EAFB130690068D0B3002799
:10577000291B3A46306800F0D9FC01F05FFC002894
:10578000EED11F494FF080500860BFF34F8FBFF339
:105790006F8FE5E7A542EBD801F050FCF068274693
:1057A000C068C468201D00F09BFB94F828004107E6
:1057B00019D5A0692B4641193A462046FFF71AFF32
:1057C000A8B100200346014600902A46204601F079
:1057D000C7FC60B9502080F31188BFF34F8FBFF32F
:1057E0006F8FFEE707E020F0010084F82800216AAF
:1057F00020468847B4E70127BAE70000B40000203C
:1058000004ED00E00648416B096829B1416BC968A5
:10581000C9684968816270474FF0FF31FAE70000BC
:105820007800002070B5054601F0EAFA064E0446FD
:10583000B068844203D200F009F8012000E00020A3
:1058400028602046B46070BDB4000020F8B5194D42
:1058500020E0C068C4680668201D00F041FB216A92
:105860002046884794F82800400713D5A0693044A3
:10587000B04206D924616060211DE86800F07CFB1D
:1058800008E000200346014600903246204601F021
:1058900067FC38B1E86801680029DAD12969C5E9EF
:1058A0000310F8BD502080F31188BFF34F8FBFF372
:1058B0006F8FFEE7B400002008484068401C4FF09E
:1058C000500080F3118804D0BFF34F8FBFF36F8F68
:1058D000FEE7BFF34F8FBFF36F8FFEE7EC000020B2
:1058E000074CE068016841B1C0680021D0F80000B1
:1058F000FFF728FFFFF7A8FEF3E701210020F7E7F5
:10590000B40000202DE9F041044600F059FB94F961
:10591000455004F1240609E0606A48B1304601F0C0
:1059200055FB08B100F052FC6D1E6DB2002DF3DC8A
:105930004FF0FF3684F8456000F062FB00F040FB5A
:1059400094F9445004F1100709E0206948B1384641
:1059500001F03CFB08B100F039FC6D1E6DB2002D6A
:10596000F3DC84F84460BDE8F04100F049BB00007E
:105970002DE9F0410546002700F006FD324E306863
:1059800008B9FFF745FD706905424ED1C5B308352A
:1059900068070ED005F00700C0F10800054468074D
:1059A00007D0502080F31188BFF34F8FBFF36F8F64
:1059B000FEE72DB37068854237D82348183001467A
:1059C0000C6801E020460C466168A94202D22168B9
:1059D0000029F7D131688C4227D00768216801601F
:1059E00060680837411B10290FD96019420708D099
:1059F000502080F31188BFF34F8FBFF36F8FFEE706
:105A000013E041606560FFF7CFFD61687068401A80
:105A10007060B268904200D2B060706901430020AB
:105A2000C4E90001F068401CF06001F007FB780752
:105A300007D0502080F31188BFF34F8FBFF36F8FD3
:105A4000FEE73846BDE8F081CC0000200449086834
:105A500018B10868026D521C0265086870470000A2
:105A60007800002010B5031F4FF080741C601B1FCE
:105A700021F001011960191F044B0B6014390A60F1
:105A8000091F6FF0020244380A6010BDB9580008BF
:105A9000016811F8012B01601046704701684A78CF
:105AA00011F8023B016002EB032210467047F0B58B
:105AB000054608680026101A17460C4601280CDD1A
:105AC0000846FFF7EBFF686021680A18BA4204D85D
:105AD000A960216801260844206000202860304623
