:020000040800F2
:100000003864002061020008632600088524000887
:10001000612600086F0B00088D2D0008000000000D
:10002000000000000000000000000000A101000826
:10003000450C000800000000FD01000849270008E9
:100040007B0200087B0200087B0200087B0200089C
:100050007B0200087B0200087B0200087B0200088C
:100060007B0200087B0200087B0200087B0200087C
:100070007B0200087B0200087B0200087B0200086C
:10008000710B00087D0B00087B0200087B02000852
:100090007B0200087B0200087B0200087B0200084C
:1000A0007B020008092800087B0200087B02000888
:1000B0007B0200087B0200087B0200087B0200082C
:1000C0007B0200087B0200087B0200087B0200081C
:1000D0007B020008752D0008812D00087B020008B6
:1000E0007B0200087B0200087B0200087B020008FC
:1000F0007B0200087B0200087B0200087B020008EC
:100100007B0200087B0200087B0200087B020008DB
:100110007B0200087B0200087B0200087B020008CB
:100120007B0200087B020008890B00087B020008A4
:100130007B0200087B0200087B0200087B020008AB
:100140007B0200087B0200087B0200087B0200089B
:100150007B0200087B020008950B00087B02000868
:100160007B0200087B0200087B0200087B0200087B
:100170007B0200087B0200087B02000800000000F0
:100180007B0200087B020008DFF810D000F0E8FADC
:100190000048004791450008AFF300803864002014
:1001A0002C4B19680868B0E8F04F80F30988BFF35A
:1001B0006F8F4FF0000080F311887047000000003F
:1001C00008480068006880F308884FF0000080F35A
:1001D000148862B661B6BFF34F8FBFF36F8F00DF35
:1001E00000BF00BF08ED00E0DFF80C00016841F43B
:1001F00070010160704700BF88ED00E0EFF30980F7
:10020000BFF36F8F134B1A681EF0100F08BF20ED5D
:10021000108A20E9F04F106009B44FF0500080F3CD
:100220001188BFF34F8FBFF36F8F05F089FA4FF03E
:10023000000080F3118809BC19680868B0E8F04F25
:100240001EF0100F08BFB0EC108A80F30988BFF3CE
:100250006F8F70477C000020EFF30580704700002F
:100260000648804706480047FEE7FEE7FEE7FEE750
:10027000FEE7FEE7FEE7FEE7FEE7FEE7F9270008F8
:10028000890100082DE9F05F0546002092469B4653
:1002900088460646814640241BE02846414647469C
:1002A000224600F0D3F953465A46C01A914110D362
:1002B00011461846224600F0BAF92D1A67EB0108DC
:1002C0004F4622460120002100F0B1F917EB00094A
:1002D0004E41201EA4F10104DFDC484631462A4687
:1002E0004346BDE8F09F40EA01039B0703D009E0C5
:1002F00008C9121F08C0042AFAD203E011F8013B12
:1003000000F8013B521EF9D27047D2B201E000F86A
:10031000012B491EFBD270470022F6E710B51346A9
:100320000A4604461946FFF7F0FF204610BD30B5D7
:1003300005462A460B4612F8010B13F8014B08B18B
:10034000A042F8D01CB1002802D06D1CF1E728466D
:1003500030BDCAB2401E10F8011F8A4202D00029E7
:10036000F9D100207047421C10F8011B0029FBD175
:10037000801A704710B5002200E0521C835C8C5C30
:10038000A34201D1002BF8D1D8B2E1B2401A10BD7E
:1003900030B505460020034600E05B1C934205D2C1
:1003A000EC5CC85C201A01D1002CF6D130BD0000F5
:1003B0000FB400B58DB010A909900B9000914FF0CB
:1003C000FF300A9000200C900548069005480790E1
:1003D0006A4609A80F9900F05DF90DB05DF814FBAD
:1003E000B1060008CF0600082DE9FF5F1D464FF05B
:1003F000FF3BD5E9014691465F464FF00008A969E9
:100400007F1C01988847296A824688470028F6D1D0
:10041000BAF1FF3F0CD024F4C064002E19DD600651
:1004200014D5BAF12B0F09D0BAF12D0F0ED103E07C
:10043000584604B0BDE8F09F44F48064A9697F1C6D
:1004400001988847761E8246002E02DDBAF1300FF1
:1004500003D0B9F1000F26D032E0A969761E44F42A
:1004600000747F1C019888478246002E05DDBAF192
:10047000780F06D0BAF1580F03D0B9F1000F10D0A1
:100480001EE0B9F1000F02D0B9F1100F18D1A9691F
:10049000761E24F400747F1C019888478246102041
:1004A00002E0082000E00A20814609E008FB090874
:1004B000A969761E44F400747F1C0198884782461F
:1004C000002E05DD4946504600F0D0F80028EDDA50
:1004D000E96901988847A00502D46FF00100A8E7F8
:1004E000E00725D1600613D5600502D5C8F10000EC
:1004F00000E0404629680A1D2A600968220501D5E6
:10050000087015E0220701D5088011E008600FE0AF
:100510002868011D29600068210502D580F8008047
:1005200006E0210702D5A0F8008001E0C0F80080B5
:1005300038467EE72DE9FF5FD2E901A74FF00008BA
:10054000916999461446DDF838B0464601988847C7
:10055000054659EA0B0005D009E0A169761C01980F
:1005600088470546216A284688470028F5D1681C37
:1005700003D05FEACA7005D015E04FF0FF3004B039
:10058000BDE8F09F2068011D2160D0F800800AE0DE
:100590005FEACA7001D108F8015BA169761C7F1E71
:1005A000019888470546002F1ADD681C18D0B9F15C
:1005B000000F0DD0E81705EBD060421120F01F00AE
:1005C00059F822102A1A012090400142E0D107E098
:1005D000BBF1000FDCD1216A284688470028D7D01C
:1005E000E16901988847BBF1000F07D1002E05DDB6
:1005F0005FEACA7002D1002188F80010A068B842F2
:1006000003DDBBF1000F03D017B16FF00100B6E7B7
:100610003046B4E770B5064602F0F4FB04680546C0
:100620000A220021304600F063F82C6070BD202AB9
:1006300004DB203A00FA02F1002070479140C2F139
:10064000200320FA03F3194390407047202A04DB6B
:10065000203A21FA02F00021704721FA02F3D0403B
:10066000C2F1200291400843194670473A2800D24F
:10067000303820F02002412A01D3A2F1370088420D
:1006800001D34FF0FF3070470268114413780160C6
:1006900018467047D1600449516104491162002134
:1006A0001161114600F07CB8890600088D0700082A
:1006B000426842B1016811F8013B23B1521EC0E902
:1006C0000012184670470121C160881E70474268B9
:1006D0005AB1C368016843B983688B4205D0491E8B
:1006E000521CC0E90012002070474FF0FF307047E5
:1006F0002DE9F04791460F4680460446002614F83F
:10070000015B2DB100F03EF80068405DC007F6D1F6
:100710002B2D02D02D2D18D0641E4A463946204676
:1007200000F0D6F927B13968A14201D1C7F800809D
:1007300071054FF002040BD54042002803DD02F0A2
:1007400061FB0460A007BDE8F08746F48066E4E73B
:100750000028F8DA02F056FB04606FF00040F2E780
:10076000064C074D06E0E06840F0010394E80700FE
:1007700098471034AC42F6D3FFF70AFD046E000828
:10078000246E000800487047F868000810B5044659
:10079000FFF7F8FF0068005D00F0010010BD0000E9
:1007A0002DE9F34F8BB04FF0000801F10C000C461F
:1007B0004FF0010B46460DF1080A019062690121D4
:1007C00001989047051E2DD0252D2CD0216A8847F1
:1007D000C0B16269012101989047216A88470028C9
:1007E000F7D1411E62690198904700E0761CA1692B
:1007F0000B988847216A88470028F7D1E1690B9850
:100800008847DBE7A1690B9888470746A84201D1D2
:10081000761CD3E7E1690B9888477F1C02D1B8F1B9
:10082000000F6FD047E1002762693D4639460198C5
:1008300090472A2804D16269012101989047012537
:10084000DFF888926269012101989047A0F1300198
:100850000A290AD24F45E5DC07EB870100EB410787
:10086000303FDFD445F01005ECE7E90601D46FF026
:1008700000476C280AD04C2814D0682815D06A2864
:100880000DD074281CD07A281AD01DE0626901218D
:10089000019890476C2802D045F0040514E045F01B
:1008A00002050DE045F020050AE06269012101988A
:1008B0009047682802D045F0080505E045F400653A
:1008C0006269012101989047C4E9015765283DD02C
:1008D00019DC58287AD00CDC452837D004DC2528D0
:1008E00026D0412831D131E046282FD047282CD1BD
:1008F0002CE05B2877D0612828D063287CD064283E
:1009000023D15AE0D1E06F2848D008DC66281DD0FA
:1009100067281BD0692821D06E2816D127E07028BF
:1009200045D0732868D0752847D078280DD14DE080
:10093000A1690B988847054625283FF469AFE1690E
:100940000B9888476D1C3FF46AAFB4E023466A46B3
:100950006FF001000B99AFF300809FE045F040007D
:100960006060A80723464FF0000236D43EE0E80757
:100970007FF447AF2068011D21600068290501D57B
:1009800006701BE7290701D5068017E7A90703D5DD
:10099000F117C0E9006111E706600FE745F040007C
:1009A0006060A80723464FF0080216D41EE040F608
:1009B0000E0125EA0100606016E045F0400060602D
:1009C000A80723464FF00A0207D40FE045F0400085
:1009D0006060A80708D5234610226FF001000B992C
:1009E000AFF300805AE007E0234610226FF00100C9
:1009F0000B99FFF7F9FC51E04FF000094F464B46C9
:100A0000632802D05B2807D041E02079C00601D4DA
:100A10000120A06001273AE0626901210198904716
:100A20005E2805D14FF00109626949460198904757
:100A3000216939B900210A46534643F82120491C4F
:100A40000829FADBB0B3216969B9C11700EBD1629B
:100A500053110AEB830122F01F02821A01200B6856
:100A6000904003430B6062690121019890475D2823
:100A7000E8D1B9F1000F09D00020514651F82020EB
:100A8000D24341F82020401C0828F7DB02AB224665
:100A900000976FF001000B99FFF74CFD00280CDA6E
:100AA000401C08D1BBF1000F05D04FF0FF300DB056
:100AB000BDE8F08FFFE74046F9E7E90701D108F10B
:100AC000010806444FF0000B78E60000CCCCCC0CBB
:100AD0002DE9F05F82460078002715468B460AF123
:100AE0000104B946302801D09DB113E014F8010B80
:100AF0000127782803D0582801D045B10AE00DB16C
:100B0000102D07D10027102514F8010B02E008254D
:100B100000E00A250026B0460EE005FB080005FBB4
:100B200006F1012701EB10461FFA80F8B6F5803F69
:100B300000D3B94614F8010B2946FFF797FD0028AA
:100B4000EBDABBF1000F05D00FB1641E00E0544694
:100B5000CBF80040B9F1000F06D002F053F90221A2
:100B60000160C81EBDE8F09F48EA0640FAE7FEE7CC
:100B7000014800F001B90000AC0A0020014800F073
:100B8000FBB800000C0B0020014800F0F5B8000095
:100B9000EC090020014800F0EFB800004C0A0020EA
:100BA00001681823CAB2103AB2FBF3F2054B6FF397
:100BB0000901032A9B5CC36500D9091D81650846AC
:100BC000704700005468000810B5014600208B698A
:100BD0008A6A4FF0C07453B1B3F5005F15D072B19B
:100BE000012A0CD0022A0AD0032A09D104E01AB142
:100BF000012A06D0022A03D1C96AC90100D5012001
:100C000010BDC96AA142FAD010BD002AF7D0012A4E
:100C1000F2D0022AF3D0032AF3D010BD30B5046815
:100C2000256825F480252560046863608368402B6F
:100C3000036803D099600068C26030BD9A600068A4
:100C4000C16030BD7047000010B54FF4FA7101204B
:100C500000F00AF8034C00212080022000F004F884
:100C6000608010BD6800002030B50346074A084682
:100C70004FF0016511684C1C06D08CB29C4200D12B
:100C8000080C121DAA42F5D330BD000000000E086A
:100C900072B6FEE770B5094D0646002455F82400EB
:100CA00001683046FFF766FB20B1641C022CF5D3C7
:100CB000002070BD55F8240070BD00000800002021
:100CC0002DE9F0410446876D00F0CEFA064694F80F
:100CD00035000025022806D08020606584F8345055
:100CE0000120BDE8F0812068016821F01601016053
:100CF0002068416921F080014161206C08B9A06C35
:100D000020B12068016821F00801016020680168B5
:100D100021F0010101600CE000F0A6FA801B05281B
:100D200007D920206065032084F8350084F834500A
:100D3000D7E720680068C007EED194F85C103F2028
:100D40008840B860012084F8350084F834500020D1
:100D5000C7E790F83510022903D0802141650120B2
:100D60007047052180F835100068016821F0010105
:100D700001600020704700002DE9F84304464FF061
:100D80000009CDF8009063484FF41651A56D006836
:100D9000B0FBF1F72E6894F85C10082000FA01F11E
:100DA00031420FD021680A6852070BD50A6822F039
:100DB00004020A6094F85C108840A860606D40F0FE
:100DC0000100606594F85C104FF0010808FA01F02A
:100DD000304208D021684969090604D5A860606DD1
:100DE00040F00200606594F85C10042088403042B6
:100DF00008D021680968890704D5A860606D40F0B3
:100E00000400606594F85C1010208840304218D0CF
:100E100021680968090714D5A8602068016849039A
:100E200004D50068000308D5A16C07E00168C90576
:100E300003D4016821F008010160216C09B120464A
:100E4000884794F85C1020208840304231D02168D7
:100E50000968C9062DD5A86094F8350005282068D2
:100E6000016806D0490347D5006800031DD4616CB2
:100E70001CE021F0160101602068416921F0800129
:100E80004161206C08B9A06C20B12068016821F094
:100E90000801016094F85C103F208840A86084F845
:100EA000358084F83490216D1FE0E16B09B1204654
:100EB0008847606D00282BD0606DC00714D00520D6
:100EC00084F835002068016821F001010160009874
:100ED000401C0090B84203D820680068C007F6D1D3
:100EE00084F8358084F83490E16C002910D001B08A
:100EF0002046BDE8F04308470168C905D5D401681C
:100F000021F01001016084F8358084F83490CCE73A
:100F1000BDE8F883780000202DE9F041044600F098
:100F2000A3F906465CB1022084F83500002584F858
:100F300034502068016821F0010101600DE00120BA
:100F4000BDE8F08100F090F9801B052805D920202C
:100F50006065032084F83500F2E720680068C00768
:100F6000F0D12268116820480140D4E901031843F8
:100F7000D4E903363343184363691843A36918431C
:100F8000E3691843236A18430843616A042903D1BB
:100F9000D4E90B1319430843106020684069666A5E
:100FA00020F0070130460E43012704280CD1A06A27
:100FB0000643E06A40B12046FFF706FE20B140201C
:100FC000606584F83570BAE7206846612046FFF70F
:100FD000E7FD94F85C203F2191408160656584F8CD
:100FE00035700020ACE700003F8010F02DE9F041A3
:100FF0000446866D90F83400002501280DD00120AC
:1010000084F8340094F835700020012F07D084F85C
:10101000340002252846BDE8F0810220FBE70227C4
:1010200084F8357060652046FFF7F8FD94F85C1091
:101030003F208840B0602068016841F016010160DF
:10104000206C20B12068016841F00801016020682F
:10105000016841F001010160DCE700002DE9F84F73
:10106000DFF8BCA10022012503264FF00F090AF189
:10107000040BAAF1040E00BF0B6805FA02F423402A
:10108000A34270D10F7907F00307012F01D0022F7F
:1010900016D187684FEA420806FA08FC27EA0C07CF
:1010A000D1F80CC00CFA08FC4CEA070CC0F808C0D8
:1010B0004768A7430C79C4F3001494403C43446050
:1010C0000C79E443A4070AD0C4684FEA420C06FA3C
:1010D0000CF7BC438F6807FA0CF72743C7600C79FD
:1010E00004F00304022C12D1D40800EB840CDCF8C9
:1010F00020405707FF0E09FA07F824EA0804D1F840
:10110000108008FA07F848EA0408CCF82080046840
:101110004FEA420C06FA0CF7BC430F7907F00307BD
:1011200007FA0CF7274307604C6814F4403F70D06F
:101130003C4C276847F480472760246822F0030767
:1011400004F480440094384C07EB040CDCF80848A5
:1011500097074FEA177809FA08F7BC43334FB842AC
:1011600002D1002724E054E0314FB84201D10127D9
:101170001EE0304FB84201D1022719E02E4FB8428D
:1011800001D1032714E02D4FB84201D104270FE00D
:101190002B4FB84201D105270AE02A4FB84201D1AE
:1011A000062705E0284FB84201D1072700E00827AD
:1011B00007FA08F72743CCF80878DAF800405746D2
:1011C000D1F804C09C435FEACC2C00D51C433C60A2
:1011D000DBF800405F46D1F804C09C435FEA8C2CEA
:1011E00000D51C433C60DEF800407746D1F804C0CF
:1011F0009C435FEA8C3C00D51C433C60084F083F91
:101200003C68D1F804C09C435FEACC3C00D51C4349
:101210003C60521C102AFFF42FAFBDE8F88F00008D
:10122000083C0140443802400030014000000240C8
:101230000004024000080240000C0240001002407E
:101240000014024000180240001C0240426921EADA
:1012500002030A4043EA0241816170470AB1816199
:1012600070470904FBE700000148806870470000F0
:101270006C00002070B5040025D094F83D000025D6
:1012800020B984F83C50204600F0B8F8242084F8B7
:101290003D002068016821F00101016020680168BB
:1012A00041F4004101602068016821F400410160BF
:1012B00000F058FA4D4A6168914201D84C4900E06B
:1012C0004C49884201D2012070BD4B492368B0FBD4
:1012D000F1F15E6826F03F060E435E60636893425C
:1012E00006D94FF4967359434FF47A73B1FBF3F177
:1012F0002368491C1E6A26F03F0631431962616863
:10130000914210D84900401EB0FBF1F2521CC2F3CA
:101310000B02042A01D2042022E0B0FBF1F0401CB1
:10132000C0F30B001CE0A268F2B301EBC10303EBB6
:101330000116431EB3FBF6F35B1C43F480431B050D
:1013400049D092B301EBC10202EB0111401EB0FB88
:10135000F1F0401CC0F30B0040F4804040F400402A
:101360002168CA694CF6FF739A431043C861D4E9F7
:10137000071001432068026822F0C0021143016097
:10138000D4E9030101432068826848F2FF339A439D
:1013900011438160D4E9050108432168CA6822F03D
:1013A000FF021043C86001E00EE016E0206801680B
:1013B00041F0010101602564202084F83D0025638F
:1013C00084F83E50002070BD01EB4106431EB3FB84
:1013D000F6F35B1CB3E70120C2E701EB4101401EBD
:1013E000B0FBF1F0401CC0F30B00B7E7A086010092
:1013F00080841E0000093D0040420F0010B586B0F9
:10140000044614216846FEF787FF14492068884285
:1014100021D113480021026842F0020202600068F4
:1014200000F0020005904FF4407000901220CDE9CA
:101430000101032003900420049069460948FFF746
:101440000DFE07481030016841F40011016000688A
:1014500000F40010059006B010BD000000540040DC
:10146000303802400004024002488168027811448A
:10147000816070476C0000200B4810B5016841F492
:1014800000710160016841F480610160016841F40C
:1014900080710160032000F099F80F2000F006F839
:1014A00000F04AF8002010BD003C024030B505466F
:1014B0001C4887B00024016841F001010160006808
:1014C00006A900F00100009001A800F02BF900F03F
:1014D00059F915494000B0FBF1F11548134A491E6E
:1014E000026040F2E732C0E90324C0E901148461DC
:1014F00000F042FB040012D10D4800F06BFB040029
:101500000DD1192000F034F8102D07D20022294601
:10151000192000F03BF80748056000E0012407B0FF
:10152000204630BD4438024040420F0000000140D8
:101530006C0B0020700000200C4882B0016841F460
:1015400080410160006800F4804000900748001F5F
:10155000016841F0805101600068002200F0805075
:1015600000900F21901E02B000F010B844380240E5
:10157000002809DB00F01F02012191404009800092
:1015800000F1E020C0F8001170470000F0B40E4BED
:101590001B680C46C3F30223C3F10705042D00D9D1
:1015A0000425191D072901D2002300E0DB1E0126B6
:1015B00006FA05F1491E214099409E40761E1640CC
:1015C0003143F0BC01F00EBC0CED00E0064900F028
:1015D000070208684FF6FF03184040EA0220034A5A
:1015E00010430860704700000CED00E00000FA05B1
:1015F0002DE9F0470E46050065D0DFF81481D8F8D4
:101600000000F7B200F00700B04207D288F800707F
:10161000D8F8000000F00700B04254D128683D4CD3
:10162000810712D5400703D5206840F4E0502060C0
:101630002878000703D5206840F4604020602068C7
:10164000A96820F0F000084320602878C0072DD05A
:10165000304968680839012812D0022813D00328BD
:1016600011D00968890700292DDA216821F00301CA
:1016700001432160FFF7F8FD814641F2883A0EE010
:1016800009688903EFE709688901ECE7FFF7ECFDDA
:10169000A0EB0901514502D90320BDE8F08720687D
:1016A000696800F00C00B0EB810FEFD1D8F80010A2
:1016B000404601F00701B14207D90770006800F009
:1016C0000700B04201D00120E7E72878400705D5A0
:1016D0002068E96820F4E05008432060287800077B
:1016E00006D52068296920F4604040EAC1002060E6
:1016F00000F058F82168084AC1F30311515CC84052
:101700000649086006480068FFF7D0FE0020C4E7DD
:10171000003C0240083802405C6800087800002065
:10172000700000200F2202600C4A136803F00303CC
:101730004360136803F0F0038360136803F4E0531D
:10174000C36012684FF4E05303EAD2020261044816
:10175000006800F007000860704700000838024089
:10176000003C02400448054900680968044AC1F386
:101770008221515CC8407047780000200838024040
:101780006C6800080448054900680968044AC1F308
:101790004231515CC8407047780000200838024050
:1017A0006C680008154810B5006810F00C02144869
:1017B00013D01449042A0FD0082A0ED10F4C241F2D
:1017C0002268236802F03F025B0207D52068C0F35D
:1017D0008810A0FB010106E0084610BD2168C1F396
:1017E0008811A1FB00010023FEF74CFD2168C1F325
:1017F0000141491C4900B0FBF1F010BD083802401E
:101800000024F40040787D012DE9F84F04006ED0EB
:101810002078DFF84C93C007A9F104054AD009F1FC
:1018200004000168C1F38101012908D00068C0F3F8
:10183000810002280AD1D9F80000400206D52868A4
:10184000800337D560680028E1D033E06068B0F5E8
:10185000803F10D0B0F5A02F286810D020F4803041
:101860002860286820F4802028606068A8B1FFF70D
:10187000FBFC06460DE0286840F48030F4E740F4B5
:1018800080202860F7E700BFFFF7EEFC801B64288C
:1018900073D828688003F7D50CE0FFF7E5FC06460F
:1018A00005E000BFFFF7E0FC801B6428F0D8286843
:1018B0008003F7D42078DFF8AC8280074FF0000A6D
:1018C0003ED5A748001D016811F00C0F08D0006834
:1018D000C0F3810002280BD1D9F80000400207D4E0
:1018E0002868800716D5E068012800D112E033E1AE
:1018F000E068B8B10120C8F80000FFF7B5FC064663
:1019000005E000BFFFF7B0FC801B0228C0D82868A4
:101910008007F7D52868216920F0F80040EAC10067
:1019200028600DE0C8F800A0FFF79EFC064604E022
:10193000FFF79AFC801B02281FD828688007F7D47D
:101940002078000722D5864F87486169703771B1CA
:1019500001210160FFF788FC064604E0FFF784FCE4
:10196000801B022809D838688007F7D50EE0C0F838
:1019700000A0FFF779FC064605E082E0FFF774FC63
:10198000801B02287DD838688007F7D4207840076C
:1019900068D5DFF8CCB100270BF13C0BDBF8000079
:1019A000C0000BD4DBF8001041F08051CBF80010E0
:1019B000DBF80000012700F0805000906B4E30688B
:1019C000C00510D4306840F480703060FFF74CFCE4
:1019D000009005E0FFF748FC0099401A022850D813
:1019E0003068C005F6D55E4EA0686C3601280FD071
:1019F0000528306810D020F001003060306820F0F9
:101A000004003060A068B8B1FFF72EFC00900FE032
:101A1000306840F00100F4E740F004003060F7E780
:101A2000FFF722FC0099411A41F28830814266D8C2
:101A300030688007F4D50EE0FFF716FC009007E051
:101A4000FFF712FC0099411A41F28830814256D8C2
:101A500030688007F4D42FB1DBF8001021F08051FA
:101A6000CBF80010A069C8B33D49091D0968C1F34E
:101A7000810102294AD00228504607D0C8F86000E8
:101A800000E03CE0FFF7F0FB04463BE04746C8F8C7
:101A90006000FFF7E9FB064605E000BFFFF7E4FB47
:101AA000801B02282BD828688001F7D4D4E90701CD
:101AB0000843A16A2E4A490802EB0141626A41EAE1
:101AC0008211084394F82C1040EA0161C9F8001013
:101AD00001203866FFF7C8FB044606E03EE000BF81
:101AE000FFF7C2FB001B022809D828688001F7D540
:101AF00034E000BFFFF7B8FB001B022802D9032027
:101B0000BDE8F88F28688001F4D427E00128F7D0D9
:101B1000D9F80000E26900F4800191421CD1226AE8
:101B200000F03F01914217D147F6C071626A01404F
:101B3000B1EB821F10D1A26A4FF0FF3300F44031A5
:101B400003EB5202B1EB024F06D194F82C1000F0D7
:101B50007060B0EB016F01D00120D1E70020CFE72A
:101B60000438024000004742800E474200700040A7
:101B70000000FFFF7047704710B5040003D094F8D1
:101B80003D0010B107E0012010BD002084F83C00AA
:101B9000204600F01EF8022084F83D00211D206838
:101BA00000F038FE012084F8460084F83E0084F8F6
:101BB0003F0084F8400084F8410084F8420084F833
:101BC000430084F8440084F8450084F83D00002078
:101BD00010BD704790F83D10012901D001207047D9
:101BE000022180F83D100168CA6842F00102CA6013
:101BF00000681149884214D0B0F1804F11D00F49CC
:101C000088420ED00E4988420BD00E49884208D037
:101C10000D49884205D00D49884202D00C498842BE
:101C200004D1816801F00701062903D0016841F061
:101C300001010160002070470000014000040040E5
:101C400000080040000C004000040140004001403A
:101C50000018004070472DE9F04104460068C6684E
:101C600005694FF00007A90713D5B10711D5F91E73
:101C7000016101202077206880698007204602D01A
:101C8000FFF7E8FF04E000F07EF8204600F07CF863
:101C90002777680716D5700714D521686FF0040000
:101CA0000861022020772068806910F4407F204678
:101CB00002D0FFF7CFFF04E000F065F8204600F007
:101CC00063F82777280715D5300713D521686FF0FB
:101CD00008000861042020772068C069800720463A
:101CE00002D0FFF7B7FF04E000F04DF8204600F007
:101CF0004BF82777E80616D5F00614D521686FF063
:101D000010000861082020772068C06910F4407F27
:101D1000204602D0FFF79EFF04E000F034F8204692
:101D200000F032F82777E80708D0F00706D02168DE
:101D30006FF001000861204600F028F8280608D559
:101D4000300606D521686FF0800008612046FFF755
:101D500011FF680608D5700606D521686FF04000AF
:101D60000861204600F01CF8A8060AD5B00608D580
:101D700021686FF0200008612046BDE8F041FFF7C0
:101D8000FABEBDE8F0817047704700000068034963
:101D9000884201D1FFF768BB704700000000014096
:101DA000704738B5044690F84200202801D0022040
:101DB00038BD61B15AB10120206300206063204624
:101DC00000F056FF0028F3D1216B012901D001203A
:101DD00038BD21680A684968009121680C3151E8D2
:101DE000002F42F0100241E80023002BF5D138BD4E
:101DF0002DE9F041074619480E468068B84210D1D7
:101E0000164CDFF85C80E56808E000BF002308EBB3
:101E100005011A46606804F081F86D1CB542F5DBD7
:101E200014E00E4810308068B8420FD10B4CDFF838
:101E300034801034E56807E0002308EB05011A46FA
:101E4000606804F06BF86D1CB542F5DBE660786BFA
:101E5000002800D1E060BDE8F08100001000002003
:101E60000801002008030020016882B000230A68EE
:101E70004A6800920A684A6800920A684A680092B2
:101E80000A68496800910C494FF4007289688142E0
:101E900003D10949CB60094908E007491031896835
:101EA000814206D104491031CB60054902B0FFF7E9
:101EB00078BF02B070470000100000200801002029
:101EC00008030020F8B5016804460868CA684B6931
:101ED00010F00F0F4FF0000559D003F0010602F487
:101EE0009077374365D0C10705D0D10503D5616C24
:101EF00041F001016164410705D5D90703D0616C48
:101F000041F002016164810705D5D90703D0616CF6
:101F100041F004016164010707D502F0200131435B
:101F200003D0616C41F008016164616C00293AD012
:101F3000800604D5900602D5204600F0B1FD206849
:101F40004069616CC0F38010090700D460B320467B
:101F500000F071FD20684069400621D520681430EA
:101F600050E8001F21F0400140E80012002AF5D19E
:101F7000E06BA8B16E490165E06BFEF7EAFE002850
:101F800011D0E06B016D01B0BDE8F0400847830659
:101F90000FD593060DD52046BDE8F84000F080BD72
:101FA0002046FFF761FFF8BD2046FFF75DFF65643F
:101FB000F8BD266B2023012E7DD1C6067BD5D60623
:101FC00079D508684868009048694FF002064006D5
:101FD00041D5E16B086840680004000CE8D0A28D90
:101FE0008242E5D9E085C869B0F5807F2DD02068B0
:101FF0000C3050E8001F21F4807140E80012002AE4
:10200000F5D12068143050E8001F21F0010140E8AC
:102010000012002AF5D12068143050E8001F21F08A
:10202000400140E80012002AF5D184F842302563CF
:1020300020680C3050E8001F21F0100140E8001229
:10204000002AF5D1E06BFEF73BFE6663A08DE18DC3
:10205000401A81B22AE0A08DE18D401A81B2E08D54
:102060000028A5D00029A3D022680C3252E8000F26
:1020700020F4907042E80007002FF5D1206814305A
:1020800050E8002F22F0010240E80027002FF5D190
:1020900084F84230256320680C3050E8002F22F08D
:1020A000100240E80023002BF5D166632046FFF7BD
:1020B0009FFEF8BDFFE705062BD5150629D594F838
:1020C00041002128F5D1A068B0F5805F01D12069D9
:1020D000B0B1206A411C2162216800784860E08C20
:1020E000401E0004000CE084E3D12068C16821F0A8
:1020F0008001C1602068C16841F04001C160D8E73B
:10210000206A0088C0F308004860206A801C2062B2
:10211000E5E74006CDD55006CBD5CA68204622F06B
:102120004002CA6084F8413000F096F9C1E700002F
:10213000ED28000870B5040004D094F84100002593
:1021400010B106E0012070BD84F84050204600F038
:1021500023F8242084F841002068C16821F400514C
:10216000C160204600F0FEFC2068016921F4904126
:1021700001612068416921F02A0141612068C1683C
:1021800041F40051C1606564202084F8410084F866
:1021900042006563002070BD2DE9F04F87B0044612
:1021A00014216846FEF7B8F8DFF870C102212668EE
:1021B0005B4803220723DFF86C8100258F064FF46C
:1021C000807A4FF0400B4FF4806966454ED1544EF3
:1021D0001436D6F800C04CF0100CC6F800C03668B3
:1021E00006F010060596066846F0010606600068CF
:1021F00000F00100059050028DE82300694640463A
:10220000CDE90323FEF72AFF484E4748B846306021
:10221000C6E90175C6E903597561C6E9065A356212
:102220004F4630467562FEF777FE08B1FEF730FD87
:10223000E663B4633D4E3C4860367830C6E90357E8
:102240007561B561F5613562756286E801093046F0
:10225000FEF762FE08B1FEF71BFDA6630022052112
:102260002520B463FFF792F9252051E0DFF8C0C0C4
:1022700066454FD12A4E1036D6F800C04CF4003CCB
:10228000C6F800C0366806F400360596066846F0C3
:1022900001060660006800F0010005900C208DE842
:1022A000230069464046CDE90323FEF7D7FE1F4EC3
:1022B0002048C036B8463060C6E90175C6E9035902
:1022C0007561C6E9065A35624F4630467562FEF7BB
:1022D00023FE08B1FEF7DCFCE663B463164E154836
:1022E000C6E903577561B561F561356218307562ED
:1022F00086E801093046FEF70FFE08B1FEF7C8FC7C
:10230000A663002205212620B463FFF73FF92620AB
:10231000FFF72EF907B0BDE8F08F00000010014074
:10232000303802400000024040640240EC090020C6
:1023300000440040886002400C0B0020704770474A
:102340002DE9F843044690F84100984616460D469C
:10235000202802D00220BDE8F88385B17EB100209C
:102360006064212084F84100FEF77EFFA684814648
:10237000E684A0682027B0F5805F02D003E001204A
:10238000E9E7206910B12E4600250EE000260CE09A
:102390008021204600F0B4FCA8B9C6B116F8010BA4
:1023A00021684860E08C401EE084E08C4B464FF092
:1023B0000002CDF800800028EAD14FF0400120460D
:1023C00000F09EFC40B184F841700320C3E735F86B
:1023D000020BC0F30800E3E784F841700020BAE77D
:1023E00070B5044690F84100202801D0022070BD4D
:1023F00049B342B32162A284E284002060642123B5
:1024000084F84130A56B114BEB63A56B104B2B642B
:10241000A56B104BEB64A36B1865256813462A1D4A
:10242000A06BFEF7E3FD21686FF0400008602068B4
:10243000143050E8001F41F0800140E80012002AEB
:10244000F5D1002070BD012070BD0000EB2900080F
:102450002D2A0008FD280008084A9268824201D10E
:10246000064906E0054A10329268824201D10349CA
:1024700010310868002103F0B0BD000010000020FA
:102480007047000008B5074B0649181D0C310A1D9E
:102490001C680094046800940C680094146800940C
:1024A00000BEF5E728ED00E0194808B5016841F4E1
:1024B00080010160016801F480010091016841F42C
:1024C000001101600068002200F400100090052156
:1024D0001020FFF75BF81020FFF74AF800220521D3
:1024E0001120FFF753F81120FFF742F800220521D1
:1024F0003A20FFF74BF83A20FFF73AF8002205217F
:102500004620FFF743F8BDE808404620FFF730B803
:102510003038024010B5044A0021044802F08EF819
:102520000349086010BD00003068000865260008F7
:102530006400002030B587B014216846FDF7ECFE3A
:1025400019480024016841F020010160016801F090
:1025500020010591016841F001010160016801F06D
:1025600001010591016841F00201016000680F4D11
:1025700000F00200059000224FF400712846FEF79B
:102580006DFE012291022846FEF768FE4FF4C060FE
:1025900000900120CDE90104694628460394FEF726
:1025A0005DFD07B030BD000030380240001402402D
:1025B0000D4810B50B4901600C49416000214FF4F2
:1025C00080428160C0E9031241618161C1610162A1
:1025D000FEF750FE002803D0BDE81040FEF758BBC0
:1025E00010BD00000054004008090020A086010032
:1025F0000C4810B50A4901604FF4E13141600021F7
:1026000081600C22C160C0E904128161C161FFF7E1
:1026100091FD002803D0BDE81040FEF739BB10BD86
:10262000001001405C0900200C4810B50A49016007
:102630004FF4E1314160002181600C22C160C0E9AA
:1026400004128161C161FFF775FD002803D0BDE868
:102650001040FEF71DBB10BD00440040A40900203F
:10266000FEE7FEE702F072FD4FF4FA74204602F036
:1026700023FF012001F0A6FFF8E70000ADF5816D12
:10268000DFF8A0B028A0FEF705FB0024074640F2C3
:10269000FF3A6D464FEA0406FB684FF0FF320DF536
:1026A000806138469847544502D300248DF8006075
:1026B0009DF8000405EB0408285588F80160042CF7
:1026C00010D31DA16846FDF732FE5FEA000909D06C
:1026D0003A21FDF73EFE28B14A465946384601F0F8
:1026E0000BFE1AE034B118F8010C0D2802D1285D58
:1026F0000A2801D0641CCFE7641E11A12E5568463C
:10270000FDF715FE20B16946584601F0B9FD04E019
:1027100022466946584601F05FFD00248DF80060AE
:10272000BAE70000B054002073746D33325F663432
:102730005F756172743200002B4950442C00000018
:102740002C434C4F5345440010B54FF0E020006936
:1027500003F07CFE012803D0BDE8104003F058BA16
:1027600010BD000030B593B030216846FDF7D4FDB0
:1027700014210CA8FDF7D0FD1D480025016841F08B
:1027800080510160006800F0805011901948016884
:1027900041F4804101600068022400F480401190FF
:1027A0000120039010200490009406940820CDE9A5
:1027B0000750A820CDE9090404200B906846FFF7D4
:1027C00023F808B172B6FEE70CA90F2081E83100AA
:1027D0004FF4A0500F904FF48050109005210CA89A
:1027E000FEF706FF002801D072B6FEE713B030BD39
:1027F00040380240007000400248016841F4700116
:102800000160704788ED00E00148FFF724BA00003E
:102810006C0B0020F0B50268294C2A4D2A4E2B4F34
:102820002B4B4FF0804CA04209D0604507D0A84206
:1028300005D0B04203D0B84201D0984204D122F072
:10284000700E4A6842EA0E02A0421BD0604519D0C1
:10285000A84217D0B04215D0B84213D0984211D038
:102860001C4DA8420ED01C4DA8420BD01B4DA842B7
:1028700008D01B4DA84205D01A4DA84202D01A4DCF
:10288000A84203D122F44075CA682A434D6922F058
:1028900080022A4302608A68C2620A688262A04299
:1028A00001D0984201D109690163012141610169A7
:1028B000C90703D0016921F001010161F0BD0000E9
:1028C000000001400004004000080040000C0040EF
:1028D0000004014000400140004401400048014024
:1028E00000180040001C00400020004010B5806B24
:1028F0000021C185C184FFF7B7FA10BD70B5846BA4
:102900002068406994F84110C0F3C01000252129C7
:1029100004D118B1E584204600F0B4F8206840697D
:1029200094F84210C0F38010222904D118B1E58533
:10293000204600F080F8606C40F010006064204693
:10294000FFF792FA70BD10B50146806B09680968FF
:102950004FF00002C9052ED4C28501680C3151E840
:10296000003F23F4807341E80034002CF5D1016866
:10297000143151E8003F23F0010341E80034002CFA
:10298000F5D10168143151E8003F23F0400341E8DC
:102990000034002CF5D1202180F84210016B012970
:1029A00009D101680C3151E8003F23F0100341E8E0
:1029B0000034002CF5D14263016B012902D0FFF7EE
:1029C000BDFC10BD818DFFF713FA10BD10B5806BF3
:1029D00001214163016B012902D0FFF7B0FC10BD5A
:1029E000818D4908FFF704FA10BD10B50146806BD0
:1029F00009680968C90516D40021C1840168143129
:102A000051E8002F22F0800241E80023002BF5D18D
:102A100001680C3151E8002F42F0400241E80023E8
:102A2000002BF5D110BDFFF717FD10BD10B5806B61
:102A3000FFF726FD10BD01680C3151E8002F22F48C
:102A4000907241E80023002BF5D10168143151E860
:102A5000002F22F0010241E80023002BF5D1016B89
:102A6000012909D101680C3151E8002F22F0100230
:102A700041E80023002BF5D1202180F842100021ED
:102A80000163704701680C3151E8002F22F0C00249
:102A900041E80023002BF5D1202180F84110704738
:102AA00008B590F84210222901D0022008BD8268A2
:102AB0004FF480539A4201D1016921B1816A9A424F
:102AC0001BD04AB10AE00268816A5268C2F3080268
:102AD0000A80816A891C08E0026972B10268526842
:102AE00002F07F020A70816A491C8162C18D491E11
:102AF0000904090CC18503D01BE002685268F1E7A4
:102B00000168CA6822F02002CA600168CA6822F41B
:102B10008072CA6001684A6922F001024A6120217C
:102B200080F8421000214163026B012A03D0FFF7B5
:102B300005FC002008BD016301680C3151E8002F3D
:102B400022F0100241E80023002BF5D101680A6849
:102B5000D20602D50A6849680091818DFFF748F9CD
:102B6000E7E7000070B5044600680169E26821F4F7
:102B70004051114301612169A068E269084361691C
:102B8000114308432168CA6849F20C639A4302431F
:102B9000CA6020684169A26921F440711143416112
:102BA00031492068884202D03049884202D1FEF77C
:102BB000E9FD01E0FEF7D6FDE26900231921642555
:102BC0003226B2F5004F626828D0A0FB0101930FB6
:102BD0009200FDF757FB0146B0FBF5F06FF01802CD
:102BE000504301EB800006EB0010B0FBF5F000F065
:102BF000F002B1FBF5F002EB0012B1FBF5F06FF063
:102C00001803584301EB800006EB0010B0FBF5F011
:102C100000F00F0021681044886070BDA0FB010126
:102C200092185B41FDF72EFB0146B0FBF5F0020167
:102C3000B1FBF5F06FF01803584301EB800006EB91
:102C4000C000B0FBF5F000F0F80002EB4002B1FB71
:102C5000F5F0584301EB800006EBC000B0FBF5F047
:102C600000F00700D6E7000000100140001401400A
:102C700038B58162044682850020134660642222B2
:102C800084F84220E56B1B4AEA63E56B1A4A2A6422
:102C9000E56B1A4AEA64E26B10650A462168E06B4C
:102CA000091DFEF7A3F920680168406800902069BB
:102CB00048B120680C3050E8001F41F4807140E8B2
:102CC0000012002AF5D12068143050E8001F41F0AE
:102CD000010140E80012002AF5D12068143050E8C4
:102CE000001F41F0400140E80012002AF5D1002009
:102CF00038BD000047290008CD290008FD2800083C
:102D00002DE9F843984617460D460446089E24E0F0
:102D1000701C22D0FEF7A8FAA0EB0800B0421AD827
:102D2000CEB12068C168490717D5802D15D0402D38
:102D300013D00168C94309070FD401680025406812
:102D400000902046FFF777FE0820606484F840502A
:102D50000120BDE8F8830320FBE72068006835EA1E
:102D6000000004D00020B842D2D00020F1E70120BA
:102D7000F9E700000148FFF7A5B800005C09002052
:102D80000148FFF79FB80000A4090020FEE70000FB
:102D90000FB4054B10B503A9044A029800F046F899
:102DA00010BC5DF814FB0000654100080001002024
:102DB0000FB47CB50C0009AD01D0611E00E000210C
:102DC000CDE90001064B6A462946089800F02EF826
:102DD000002C02D0009A002111707CBC5DF814FB1D
:102DE000833200080907090E002804DB00F1E02007
:102DF00080F80014704700F00F0000F1E02080F828
:102E0000141D7047004870470401002002E008C804
:102E1000121F08C1002AFAD170477047002001E054
:102E200001C1121F002AFBD1704700002DE9FF4F9E
:102E30008DB00F460546002606E025280BD0DDE9BB
:102E40000F1290476D1C761C28780028F5D111B020
:102E50003046BDE8F08F0024A246A1460122E94990
:102E600000E0044315F8013F203B02FA03F008425A
:102E7000F7D128782A2810D06FF02F022878A0F1F7
:102E80003001092914D80AEB8A0102EB410144F010
:102E9000020400EB010A6D1CF0E701CF5FEA000AB3
:102EA00003D544F40054CAF1000A44F002046D1C36
:102EB00028782E2817D115F8010F44F004042A2889
:102EC0000ED06FF02F022878A0F1300109290AD81E
:102ED00009EB890102EB410100EB01096D1CF2E7EE
:102EE00057F8049B6D1C28786C280FD006DC4C2802
:102EF00017D068280DD06A2814D104E0742810D0A7
:102F00007A280FD10DE044F400140AE044F4801450
:102F100001E044F440146978814202D104F5801440
:102F20006D1C6D1C28786E281ED00CDC632830D0F8
:102F300004DC00288BD0582811D19FE0642867D08A
:102F400069280CD164E073282DD004DC6F2872D07E
:102F5000702804D194E075286ED078286DD0DDE912
:102F60000F129047761C4BE1C4F30250022806D0A2
:102F7000032809D0042801CF09D0066040E101CF21
:102F8000F117C0E900613BE101CF068038E106702E
:102F900036E117F8040B8DF8000000208DF80100D1
:102FA000EB46012003E057F804BB4FF0FF30610708
:102FB0004FF0000102D40DE008F1010188464945B7
:102FC0000FDA8045F8DB1BF808100029F4D108E07F
:102FD00008F1010188468142FADB1BF8081000293C
:102FE000F6D1DDE90F23AAEB08008146214600F067
:102FF00031F9304400EB080604E0DDE90F121BF85C
:10300000010B9047B8F10108F7D221464846F2E09B
:103010000A21C4F302524FF0000B0891022A04D097
:1030200001CFC117032A09D00AE0FF1D27F00707C7
:10303000F7E8020108E02CE01EE01FE000B2C11733
:10304000042A01D140B2C117021E71F1000206DA52
:103050000023D0EB030063EB01012D2202E02205E7
:1030600004D52B228DF82420012203E0E20701D0B1
:103070002022F7E7904653E00A210BE0102109E0F7
:1030800010214FF0000B44F004044FF008090891A0
:1030900003E008214FF0000B0891C4F30252022A0A
:1030A00004D001CF0021032A06D006E0FF1D27F03F
:1030B0000707F7E8020103E080B2042A00D1C0B29A
:1030C0004FF0000822072BD52A78702A07D0DDF8A8
:1030D00020C08CF0100C5CEA0B0C05D00EE04022F6
:1030E0008DF82420012208E050EA010306D03023A5
:1030F0008DF824308DF8252002229046089B83F01D
:10310000080353EA0B030BD150EA010201D1620715
:1031100006D530228DF824204FF00108A9F10109CD
:103120002A78582A04D038A20B9208AA0A920BE0F7
:103130003AA2F9E75B46089AFDF7A4F80B9B9B5C63
:103140000A9A521E0A92137050EA0102F2D10A98AA
:10315000ADEB000000F1200B600702D524F48034B1
:1031600001E04FF00109D94502DDA9EB0B0000E0B9
:10317000002000EB0B0141440890AAEB010AE00398
:1031800006D4DDE90F232146504600F063F80644DB
:103190004FF0000908E009A911F80900DDE90F1254
:1031A000904709F10109761CC145F4DBE0030CD519
:1031B000DDE90F232146504600F04CF8064404E0B8
:1031C000DDE90F1230209047761C0899481E0890C0
:1031D0000029F5DC08E00A980A990078491C0A9150
:1031E000DDE90F129047761CBBF10001ABF1010B3A
:1031F000F1DC21465046DDE90F2300F019F80644C2
:103200006D1C21E609280100303132333435363760
:103210003839616263646566000000003031323322
:1032200034353637383941424344454600000000C2
:103230002DE9F041044600251E461746880404D4B3
:1032400005E039462020B0476D1C641EF9D528469C
:10325000BDE8F0812DE9F041044600251E46904668
:10326000C80301D5302700E02027880404D505E0F5
:1032700041463846B0476D1C641EF9D52846BDE866
:10328000F0814A68002A06D00A68531C0B6010704F
:103290004868401E4860704700F0A2B800F068B966
:1032A00000F0DCB900F04EBA00F01ABC00F0BEBC71
:1032B0001CB500240094019400F0EEFD1CBD10B577
:1032C0000446282100F60420FDF726F80020C4F863
:1032D0002C0A206010BD00F031BE00002DE9F05F27
:1032E0008A46DDE90A7904464FF0FF31D0F87C6B5D
:1032F0009B4690460D46D0F8340A02F059FF20460E
:10330000FFF7DDFF0120C4F8840B5046FDF72BF8D2
:103310000246D6F808C04B4651463046E0474FF4C7
:103320007A7109FB01F0B0FBF1F1D4F8380A02F030
:103330003FFF01281FD1B8F1000F1BD00020054628
:1033400012E000BF04EB8501D1F8042ABA4200D98B
:103350003A468618BE4206D804EB05214044091DB2
:10336000FCF7C1FF30466D1CD4F82C1AA942E9D8ED
:10337000CBF80000256800231A461946D4F8340A11
:1033800002F01CFD2846BDE8F09F2DE9F0410446FF
:103390000F461D461646D0F8340A4FF0FF3104F6AA
:1033A000342402F005FFD4F848012B463246D0F809
:1033B00008C03946E04706464FF47A704543B5FBEE
:1033C000F0F1606802F0F4FE00231A461946206806
:1033D00002F0F4FC3046BDE8F08100F02BBE0000A6
:1033E0002DE9F04F9BB016468946604C00F0B0FEC8
:1033F00005006ED0A87A02286BD1287A002868D000
:1034000019AA6946204600F00DFA5FEA000A60D466
:103410000027A4E007EB870B6C4604EB8B08D8F879
:10342000100002287ED0E88901F0C7F8B8F80E1025
:10343000884277D154F82B0000F0A0FE04003BD066
:103440005FEA080032D06168026891422ED1216A99
:10345000826891422AD1B8F80C0000F0B5FFE18BE8
:10346000884223D1E089002878D102F061F90C3537
:1034700004F10C0795E80F0087E80F000120A07207
:1034800003F010F9B9F1000F0CD05EB130681028CC
:1034900008D304F11C0110202EC989E80E00C9F8D8
:1034A0000C50306020681BB0BDE8F08F207A0128F6
:1034B00002D1607A012851D002F03AF900F07CFE86
:1034C000040004D000F010FE5FEA000A02D503F009
:1034D000E9F847E001202072C4F800A06072A072F1
:1034E00007EB8701684600EB810102270979E17249
:1034F0005DF82B006060A783D8F808002062B8F858
:103500000C0000F061FFE0830C350C3495E80F00EF
:1035100084E80F0003F0C6F8B9F1000F1CD0DEB14B
:10352000306800E01AE0102816D30020C9F8000027
:10353000C9F80400C9F80800C9F80C00A9F800701F
:10354000D8F80800C9F804004C46B8F80C0000F0A0
:103550003BFF6080102030605046A4E77F1C574539
:10356000FFF658AF4FF0FF309DE70000B054002049
:103570002DE9F04700260D46B1464FF0FF380A28E6
:1035800016D2ADB1102A13D32988022910D1324F97
:1035900000F0DEFD04000BD0688801F00EF838B1B1
:1035A0004146606B02F004FE207A012838D102E027
:1035B0004046BDE8F087E07A012801D002282FD1EB
:1035C000A07A68BB607A01282AD06068401C27D1A5
:1035D000E08928BB4146D7F8300A02F0E9FD00BF78
:1035E00007EB861000F63C20A0420CD0017A01299E
:1035F00009D18189022906D1C0896988884202D10E
:103600004FF0010902E0761C052EE9DB00231A4683
:103610001946D7F8300A02F0D1FBB9F1000F06D0F5
:1036200000231A461946606B02F0C8FBC0E7002071
:10363000E06020616061A06195E80F0004F10C0674
:1036400086E80F0002200023A0811A461946606B0D
:1036500002F0B4FB0020ACE7B05400202DE9F041AB
:1036600090B080462D4F00F073FD0446302102A833
:10367000FCF752FE4FF0FF3614B1207A012803D038
:10368000304610B0BDE8F0813146606B02F090FD2D
:1036900060680025401C13D0302102A8FCF73CFED6
:1036A0001FA2302102A86368FFF782FB41F2883035
:1036B000CDE9005000231A4602A93846FFF70EFE56
:1036C00000231A461946606B02F078FB00220EA90F
:1036D000E06A02F0D1FC0128F8D000231A4619460E
:1036E000206B02F06BFB02F023F825726660A57276
:1036F000E572E56025616561A561E5612562656248
:10370000A56265720BA02660FFF742FB404600F001
:1037100001FD02F0C7FF0020B3E70000B054002015
:1037200041542B434950434C4F53453D25750D0A99
:1037300000000000657370383236365F636C6F735B
:10374000650D0A002DE9F0430024A3B0244E0F4676
:10375000814641F288354FF0FF382346224621A1A9
:103760003046CDE90045FFF7B9FD002835D14B467D
:103770001EA2802102A80097FFF71AFB00231A4619
:1037800002A93046CDE90045FFF7A8FD002824D165
:10379000304600F0FDF8F8B100231A4619A1304672
:1037A000CDE90045FFF79AFD002816D100231A46FF
:1037B00018A13046CDE90045FFF790FD00280CD157
:1037C000802102A800F03AF9002806D0494602A854
:1037D000FCF7D0FD002800D0404623B0BDE8F083C0
:1037E000B0540020415445300D0A000041542B4391
:1037F000574A41503D222573222C222573220D0A5F
:103800000000000041542B4349504D55583D310DA7
:103810000A00000041542B43495044494E464F3D55
:10382000310D0A002DE9F04F040097B017468A4683
:103830004FF000054FF0FF3076D0BAF1000F73D093
:10384000002F71D04FF00009386041F28831CDE986
:10385000009180464B464A4637A12046FFF73EFD81
:10386000002854D1D4F82C0A002850D03A4636A16A
:10387000201DFCF79DFD012849D101263FE000BF36
:1038800004EB0620001D83460B2232A1FCF780FDCD
:10389000A0BB11AB0FAA0EA906A88DE80F0014ABB0
:1038A00010AA2FA15846FCF783FD062826D105AAA9
:1038B00006A90220CDF8149000F002FE01281DD1C7
:1038C00005EB85010AEB810B1099CBF800100599E7
:1038D000CBF80810BDF83810ABF80C10BDF83C1050
:1038E000ABF80E101199CBF8101028A114A86D1C7C
:1038F000FCF740FDD8B10121CBF80410761CD4F8B8
:103900002C0AB04203DD0A2E01DA052DB8DBC4F81B
:103910002C9A282104F60420C4F80090FCF7FCFC43
:103920003868002805DB284617B0BDE8F08F022173
:10393000E2E74046F8E7000041542B434950535416
:10394000415455530D0A00005354415455533A25E0
:10395000640000002B4349505354415455533A00DE
:103960002B4349505354415455533A25642C222536
:10397000395B5E225D222C222533315B5E225D2283
:103980002C2568752C2568752C256400554450003D
:1039900070B58CB00446202102A8FCF7BDFC0026BF
:1039A0000A96D4F8800B354600280BD141F28830B6
:1039B000CDE9006000231A4617A12046FFF78EFCD0
:1039C00010B100200CB070BDD4F82C0A00280FDD17
:1039D00004EB052002AA13A1001DFCF7E9FC012855
:1039E00010D0D4F82C0A6D1CA84201DD0A2DEFDBA3
:1039F000C4F82C6A282104F604202660FCF78CFC0D
:103A00000A98DFE70AAA02A9022000F059FD0A98E5
:103A1000C4F8800BECE7000041542B434946535255
:103A20000D0A00002B43494653523A535441495022
:103A30002C222533315B5E225D220000F0B5A3B05D
:103A40000F460546194C802102A8FCF765FC0020B2
:103A5000229041F288318020CDE9000122AB02AAF8
:103A600013A12046FFF73AFC4FF0FF36D8B913A157
:103A700002A8FCF75CFC04000ED055B1002F08DD55
:103A800039462846FCF748FC2A460EA12046FCF79A
:103A90008FFC012023B0F0BD0FA102A8FCF747FC6A
:103AA00008B10020F6E73046F4E70000B0540020EB
:103AB00041542B43574A41503F0D0A002B43574A6C
:103AC00041503A002B43574A41503A222536335B46
:103AD0005E225D22000000004E6F20415000000079
:103AE0002DE9FC5F434D834640F688312846FCF7BC
:103AF00013FC012002F0BFF8C5F8300A012002F0E3
:103B0000BAF8C5F8340A03220021012002F0BEF8F9
:103B10000026C5F8846BC5F8380AD5F8300A741E3B
:103B2000002861D0D5F8340A00285DD0D5F8380ACD
:103B3000002859D030A0FFF72BF90027A0464FF4FA
:103B4000806A4FF47A7900BF05EB87140021C4F82E
:103B50003C8AC4F8408A84F8456A0A2004F63C246A
:103B600002F06CF82063012002F085F86063002207
:103B70000121504602F08AF8E062A672C4F838903B
:103B80002672C4F83C90206B80B3E06A70B3606B1F
:103B900060B37F1C052FD7DB5846FDF77BF8C5F8CF
:103BA0007C0B00960123446808224FF4E131A047C2
:103BB00015491920CDE900012B464FF4007213A1DD
:103BC000164802F0EBFB41F28830CDE9006000239B
:103BD0001A4613A12846FFF781FB4FF4FA6001F063
:103BE0006BFC0020BDE8FC9F2046FBE7FFE740465A
:103BF000F8E70000B0540020657370383236365F45
:103C0000696E69740D0A0000FC0000205374617233
:103C1000745F726563765F7461736B007D26000864
:103C200041542B5253540D0A000000002DE9F0437B
:103C300093B00D464FF0FF360A2815D2002D01DC57
:103C4000012502E0042D00DD0425DFF8BC8000F032
:103C50007FFA040008D0B1463146606B02F0A8FA42
:103C6000207A012839D103E0304613B0BDE8F08353
:103C7000E07A012831D1E08900282ED0A07A0228EC
:103C80002BD0002741F28836CDE900763B463A46F4
:103C90001EA14046FFF722FBF8B92B461FA2402188
:103CA00002A8FFF785F8CDE9007600231A4602A99D
:103CB0004046FFF713FBE08900F07FFC03461EA29D
:103CC000402102A8FFF774F8CDE9007600231A46D8
:103CD00002A94046FFF702FB38B100231A461946F5
:103CE000606B02F06BF84846BFE71848606002203E
:103CF000A0720120002360721A461946606B02F020
:103D00005DF80020B1E70000B054002041542B437F
:103D100049504D55583D310D0A00000041542B4388
:103D200049505345525645524D4158434F4E4E3DD2
:103D300025640D0A0000000041542B4349505345AF
:103D4000525645523D312C25750D0A005AA55AA5EB
:103D5000F0B591B00C4605000DD064B10026266088
:103D60006660A66005224AA1E660FCF711FB28B157
:103D7000B01E11B0F0BD4FF0FF30FAE76D1D0FA976
:103D80006846009500F0D8FC10B90F98042802D9B5
:103D90006FF00200EDE72070009810F8011B009012
:103DA0002C2902D06FF00400E3E70FA9684600F069
:103DB000C3FC20B90F984FF48037B84202D36FF09C
:103DC0000500D6E76080009908783A2804D02C28AE
:103DD00004D06FF00700CCE7267156E0491C0120A3
:103DE000009120710878222801D0009820E0491C19
:103DF0000846009101E0401C0090027852B1222A4E
:103E0000F9D1451A401C009002782C2A05D06FF099
:103E10000900AEE76FF00800ABE7401C0090002DF2
:103E200001DD2E2D0DDB6FF00B00A2E7401C009092
:103E300002781AB12C2AF9D1451AEEE76FF00A0080
:103E400097E72A4603A8FCF74EFA03A80146465511
:103E500004F10802022000F033FB012802D06FF0C9
:103E60000C0086E70FA9684600F066FC10B90F98B1
:103E7000B84202D36FF00D007BE7A0810098007874
:103E80003A2802D06FF00E0073E7002071E70000BF
:103E90002B4950442C0000002DE9FF471746DDE96F
:103EA0000CA90E004FF0FF3444D0EFB300F050F9EE
:103EB00005003FD0E86AB8B3002407E031190022BA
:103EC000E86A02F0D9F8012802D1641CBC42F5DB93
:103ED000BCB9A86B05E000BFB8F10A0F11DDA8F16D
:103EE0000A0080460A21286B02F062F90128F3D10A
:103EF00007E031190022E86A02F0BEF8012802D179
:103F0000641CBC42F5DB002C14DDBAF1000F11D0AB
:103F1000B9F1000F0ED01C3595E80F008DE80F00A9
:103F200010226946504600E004E0FCF7DCF910215D
:103F3000C9F8001004B02046BDE8F0872DE9F04F25
:103F40008FB015460F464FF0FF360A280FD277B1D3
:103F50008DB1DFF8A4B000F0FBF8040007D03146C3
:103F6000606B02F025F9207A012815D105E0304672
:103F70000FB0BDE8F08F0020FAE7607A01280BD17E
:103F80006068401C08D0B8460027302102A8FCF722
:103F9000C3F94FF4006A25E000231A461946606B06
:103FA00001F00CFFE3E75646B54200D82E460096D6
:103FB00012A2302102A86368FEF7FAFE002141F246
:103FC0008839CDE900190B460A4602A95846FFF781
:103FD00085F908EB07014B4632465846FFF7D5F9FD
:103FE0003744AD1B002DDEDC00231A461946606BFA
:103FF00001F0E4FE3846BBE7B054002041542B43A7
:10400000495053454E443D25752C25750D0A000039
:104010001968074B03EB801012B1012A03D004E0AA
:10402000C0F8741A01E0C0F8781A00207047000048
:10403000B05400202DE9F0410F464FF0FF3601F05B
:1040400077FB00F0B9F8040014D000F04DF801211E
:104050000546217220602A4611A0FEF799FE002035
:10406000002D0CDA20721BA02660FEF791FE284678
:1040700000F050F802F016FB3046BDE8F0816072A7
:10408000A072E772E06020616061A061E06120627F
:1040900060626660A06202F005FB2846EDE7000062
:1040A000657370383236365F736F636B657420707A
:1040B000736F636B65742D3E6F70656E5F666C61C8
:1040C000672025642C736F636B66642025640D0A7A
:1040D00000000000657370383236365F736F636BB3
:1040E00065740D0A0000000010B502004FF0FF30AB
:1040F00008D0074B002100BF53F821401CB1491CD8
:104100000A29F9DB10BD43F82120084610BD000044
:104110008854002010B504460A2802D34FF0FF301F
:1041200010BD014603A0FEF733FE0849002041F808
:10413000240010BD66645F736F636B65745F6672A5
:1041400065652066642025640D0A000088540020FF
:104150000A2801D300207047014951F82000704718
:104160008854002013B50A23012269460248FEF74D
:10417000E7F800981CBD00005C09002010B50D4A4E
:104180005FF0000102EB8113D3F8404A844207D16B
:1041900093F8454A012C08D093F8443A012B04D0F7
:1041A000491C0529EEDB002010BD02EB811000F652
:1041B0003C2010BDB0540020064A002102EB8110C3
:1041C000437A13B9037A002B03D0491C0529F5DB88
:1041D00000207047EC5E00202DE9F041884604463F
:1041E00016461FA14046FCF7A2F8002508B125603D
:1041F00006E01DA14046FCF79AF8012758B1276058
:10420000C4F8845BD4F8380ABDE8F04100231A46AC
:10421000194601F0D3BD17A14046FCF788F80028E5
:10422000E5D115A14046FCF782F80028E7D1D4F883
:104230002C0A0A2812D204EB8000711CC0F8041A60
:10424000D4F82C0A414604EB0023401CC4F82C0A85
:10425000181D721CBDE8F041FCF745B8BDE8F081BF
:1042600053454E44204F4B0053454E442046414950
:104270004C0000004F4B00004552524F52000000CE
:1042800010B5D0F8840B0C46012827D02C212046ED
:10429000FCF75FF8002821D0611C88421ED12078ED
:1042A00030281BD3342819D83038C0B2FFF766FF46
:1042B000040013D0207A002810D001F039FA08A0A9
:1042C000FEF766FD2068FFF725FF00202072607270
:1042D000401E2060BDE8104002F0E4B910BD0000AF
:1042E00068616E646C655F636C6F7365645F65764F
:1042F000656E740D0A000000F0B587B0054669468A
:104300001046FFF725FD002820D1BDF802102AA095
:10431000FEF73EFD9DF80000FFF730FF04004FF070
:10432000FF362ED1002201210220FFF783FE002854
:104330000EDABDF8024006E0EB68324605A92846D1
:1043400098470028F8D1641EA4B2F5D207B0F0BD9A
:10435000FFF7FEFE044601F0EBF90220A08302986D
:10436000206204F11C07BDF80C0000F02DF87880E5
:104370009DF800000121606021726172A17202F05B
:1043800091F900270DE0EB68324604A928469847CA
:1043900028B900231A4604A9E06A01F00FFD7F1C2A
:1043A000BFB2BDF80200B842EDD800231A46194644
:1043B000206B01F003FDC9E76970645F6C656E20D6
:1043C00025640D0A00000000010241EA102080B2BD
:1043D000704700002DE9F04789460546014616461C
:1043E000002002E03254401C491C0A781AB1202AED
:1043F00001D00728F6DB4FF0000806F800800878A7
:10440000202803D04FF0FF30BDE8F087491C0C4650
:1044100000E0641C207818B1202801D03F28F8D192
:10442000671A402F00DB3F273A4606F10800FBF7EA
:104430005AFFF119304681F808801CA1FBF79AFF5A
:1044400010B920783F2805D019A13046FBF792FF1C
:10445000F0B124E0641C20212046FBF77AFF08B16C
:10446000051B02E0611BA9EB0105C4B1002D16DD9F
:10447000802D00DB7F25214606F148002A460446B0
:10448000FBF731FF711981F84880C6F8C8400AE08F
:1044900009A12846FBF74BFF08B1041DE2E786F8A7
:1044A0004880C6F8C8800020AEE7000047455400A9
:1044B000504F5354000000000D0A0D0A0000000088
:1044C00070B586B00E46022803D04FF0FF3006B01C
:1044D00070BD154605AA04A8CDE9000202AC22462B
:1044E00009A13046231DFBF763FF042804D10020F7
:1044F00054F82010FF2901D90020E8E72954401C76
:104500000428F5DB0120E2E725642E25642E2564CE
:104510002E2564000025DFF85080DFF850A0FF262C
:104520004FF48069B8F80070B8F80240642F00D2E8
:104530006427B44205D0261E4FF0000504D000F0D9
:104540001FF8012C03D00AE000F012F807E0143540
:10455000BD4204D3002549465046FCF777FE14209F
:1045600000F0AAFFDEE7000068000020001402400F
:10457000012291020148FCF771BE000000140240C4
:1045800000224FF480610148FCF768BE001402402D
:10459000FCF772FFFEF7E6F8FDF7CCFFFDF784FFAE
:1045A000FEF726F8FEF704F8FEF73EF800F018F8DC
:1045B000FDF7B0FF00F026F8FEE7010241EA102007
:1045C00080B2704710B5EFF3058111B16FF00504AB
:1045D00003E0002408B100F06FFF204610BD00008A
:1045E000EFF3058010B16FF00500704704480168D3
:1045F00011B14FF0FF30704701210160002070477A
:10460000CC00002010B5EFF3058010B16FF005006D
:1046100010BD08480168012902D04FF0FF3010BDDD
:10462000054A002182F8141D0221016001F03CF8C6
:10463000002010BDCC0000200BE000E02DE9FF4180
:104640004FEA01034FF00005EFF30581039549BBE5
:1046500040B38027182100244AB3166806B13446B7
:1046600096691EB13146761E382E02D21679F607AB
:1046700003D0002004B0BDE8F081566906B1B70848
:10468000D2F808C0BCF1000F0DD0D5685C2D18D34E
:1046900012693AB136B18DE806103A46214601F06A
:1046A000AAFE03900DE0D6685EB912694AB903AA62
:1046B000CDE90012BAB2214601F070FE012800D007
:1046C00003950398D6E72DE9F0471D4616460400EA
:1046D00089464FF0FF382DD00846B9F1000F29D098
:1046E00046B3002D26DDFBF73EFE0746207808B3D3
:1046F0003A4649462046FBF74BFE10B9E05D3D289F
:1047000006D02078B0B1262804F10104F9D1EDE7F4
:10471000E1190020491C6D1E01E03254401C0A5C66
:104720001AB1262A01D0A842F7DB002131540846ED
:10473000BDE8F0874046FBE7F0B500231D466FF06B
:104740002F06026806E003EB8303012506EB430313
:104750002344521C1478A4F13007092FF3D91DB15A
:104760000B6002600020F0BD4FF0FF30F0BD000094
:104770002DE9F041134C0F460546E6682068001D00
:1047800000F066FD681C07D137B12168BDE8F04133
:104790000D48091D00F0ACBD20683544B5424560A8
:1047A000216805D2A06BBDE8F041091D00F088BD6D
:1047B000606B091D00F084FDA06A854200D2A562ED
:1047C000BDE8F0817C000020A41000202DE9F0411C
:1047D000054600F099FD2D4CA068401CA0602068A3
:1047E0002B4F10B1606930B32BE02560A068012821
:1047F00027D1002606EB860007EB800000F052FD73
:10480000761C382EF6D3234800F04CFD2148143096
:1048100000F048FD1F48283000F044FD1D483C30A2
:1048200000F040FD1B48503000F03CFD194860632B
:104830001430A06305E02068E96AC06A884200D8A5
:104840002560606A401C60626864E86A2169884289
:1048500000D9206100EB800007EB8000291D00F0EB
:1048600047FD00F071FD606900280CD02068E96AFE
:10487000C06A884207D208494FF080500860BFF3F1
:104880004F8FBFF36F8FBDE8F08100007C000020E8
:10489000F40B00205410002004ED00E038B500F0C7
:1048A00033FD104C2068C8B90F4800F0FBFC0E48DF
:1048B000143000F0F7FC0C48E060143020610A4B23
:1048C0000020F03B009003F1500210210A2001F07B
:1048D000FEF9206010B105A100F0B8FDBDE8384038
:1048E00000F032BDB8000020A8110020546D7251B4
:1048F0000000000030B4026C0B46002A0BD0C168E7
:104900001144C1608468A14201D30168C16030BC18
:104910001846FBF7E8BC30BC70472DE9F041856BC9
:10492000174604460026026C82B1C7B1E068FBF767
:10493000DAFCE168206C091AE1602268914202D237
:10494000A168081AE060022F16D017E02068A8B905
:10495000A06801F0F3FD06460020A0600EE060684C
:10496000FBF7C1FC216C606808446060A168884264
:1049700004D32068606001E005B16D1E6D1CA56365
:104980003046BDE8F08110B5044690F8590058B1A2
:1049900001280CD002280FD0502080F31188BFF3DB
:1049A0004F8FBFF36F8FFEE7206B00F0E1FC2046D6
:1049B000BDE8104000F0DCBC10BD000010484FF412
:1049C0007051420706D0C01D0D4920F00700411A62
:1049D000C1F570510B4A00230144C2E900030839B4
:1049E000183A21F0070111604B600B600B1AC0E907
:1049F000001393604FF00040536050617047000017
:104A000088180020E8000020144E154CA6F29C47A0
:104A10004FF08058DFF84C9012E000BF00F074FCBB
:104A2000F068C568281D00F013FCA068401EA06057
:104A30006068401E606000F087FC2846FFF7A3FF17
:104A400060680028EAD138680128F9D9C9F80080DF
:104A5000BFF34F8FBFF36F8FF2E70000901000207D
:104A60007C00002004ED00E0002807D000218160D8
:104A700001600B460A46C16001F0A0B97047000012
:104A800070B51D46049C51B1C4F80020C4E90F0163
:104A90000121204601F04EF984F84C5070BD24608D
:104AA000F4E700002DE9F05F8846DDE90B94154638
:104AB000834691009A460A9EA522206BFBF725FCAF
:104AC0006FF00301206B01EB8501084420F007071C
:104AD000780707D0502080F31188BFF34F8FBFF3C2
:104AE0006F8FFEE70025B8F1000F0FD05FF00000D8
:104AF000221818F8001082F8341018F8001011B1BC
:104B0000401C1028F4D384F8435001E084F834505A
:104B1000382E00D33726E662C4E91365201D00F065
:104B2000CCFB04F1180000F0C8FB2461C6F138008A
:104B30006462A061656584F858505246594638460B
:104B400000F066FA2060B9F1000F01D0C9F800400A
:104B5000BDE8F09F30B5114900E011460A68824275
:104B6000FBD34B685C18844203D14068184448600A
:104B7000084643681C18944209D1084C183C246824
:104B8000A24209D052681A4442600A681268026060
:104B9000814200D0086030BD0460F9E7E8000020E1
:104BA00070B5002441600B4D0061914206D8D11AC6
:104BB0008269914206D2011D286907E09A4203D218
:104BC000994201D3012403E0011DE86800F078FB5D
:104BD000204670BDB800002010B5044600F094FBDC
:104BE000A06B28B15FF0000400F0AEFB204610BDC2
:104BF0000124F9E730B589B03C4D6EE004980028F7
:104C000006DADDE90601059A90470498002864DB7E
:104C1000069C606910B1201D00F01AFB03A800F08B
:104C2000D7F8024604980A2857D2DFE800F00505B5
:104C3000052D334A05052D3394F8280040F0010076
:104C400084F828000599A069059B01442046FFF7D8
:104C5000A7FF68B3216A2046884794F828004007D8
:104C60003BD5002000900598A16900234218194601
:104C7000204601F0A9FDD8B9502080F31188BFF378
:104C80004F8FBFF36F8FFEE714F8280F20F001005D
:104C9000207022E094F8280040F0010084F82800F9
:104CA0000598A06128B1811813462046FFF778FFC8
:104CB00013E0502080F31188BFF34F8FBFF36F8F45
:104CC000FEE794F82800810703D4204600F050FB4B
:104CD00003E020F0010084F82800002204A92868DD
:104CE00001F0CAF9002889D109B030BDB800002010
:104CF0002DE9FC410F46054600F01AFD01A800F021
:104D000067F80446019818B101F0CCFCBDE8FC81BD
:104D1000254EAFB130690068D0B30027291B3A4651
:104D2000306800F0A7FB01F0BDFC0028EED11F4960
:104D30004FF080500860BFF34F8FBFF36F8FE5E7F0
:104D4000A542EBD801F0AEFCF0682746C068C46805
:104D5000201D00F07DFA94F82800410719D5A069BC
:104D60002B4641193A462046FFF71AFFA8B100200A
:104D70000346014600902A46204601F025FD60B911
:104D8000502080F31188BFF34F8FBFF36F8FFEE782
:104D900007E020F0010084F82800216A20468847B7
:104DA000B4E70127BAE70000B800002004ED00E0F6
:104DB0000648416B096829B1416BC968C9684968EF
:104DC000816270474FF0FF31FAE700007C0000205D
:104DD00070B5054601F048FB064E0446B0688442B3
:104DE00003D200F009F8012000E0002028602046EE
:104DF000B46070BDB8000020F8B5194D20E0C0685F
:104E0000C4680668201D00F023FA216A20468847FE
:104E100094F82800400713D5A0693044B04206D961
:104E200024616060211DE86800F04AFA08E0002073
:104E30000346014600903246204601F0C5FC38B1D9
:104E4000E86801680029DAD12969C5E90310F8BDCD
:104E5000502080F31188BFF34F8FBFF36F8FFEE7B1
:104E6000B800002008484068401C4FF0500080F314
:104E7000118804D0BFF34F8FBFF36F8FFEE7BFF3EE
:104E80004F8FBFF36F8FFEE7F0000020074CE06804
:104E9000016841B1C0680021D0F80000FFF728FF89
:104EA000FFF7A8FEF3E701210020F7E7B800002094
:104EB0002DE9F041044600F027FA94F9455004F139
:104EC000240609E0606A48B1304601F0B3FB08B13E
:104ED00000F068FB6D1E6DB2002DF3DC4FF0FF3665
:104EE00084F8456000F030FA00F00EFA94F944506E
:104EF00004F1100709E0206948B1384601F09AFB37
:104F000008B100F04FFB6D1E6DB2002DF3DC84F88C
:104F10004460BDE8F04100F017BA00002DE9F0410F
:104F20000546002700F004FC324E306808B9FFF750
:104F300045FD706905424ED1C5B3083568070ED0EE
:104F400005F00700C0F108000544680707D05020AD
:104F500080F31188BFF34F8FBFF36F8FFEE72DB340
:104F60007068854237D82348183001460C6801E044
:104F700020460C466168A94202D221680029F7D177
:104F800031688C4227D00768216801606068083763
:104F9000411B10290FD96019420708D0502080F317
:104FA0001188BFF34F8FBFF36F8FFEE713E04160AF
:104FB0006560FFF7CFFD61687068401A7060B26885
:104FC000904200D2B060706901430020C4E9000142
:104FD000F068401CF06001F065FB780707D05020B6
:104FE00080F31188BFF34F8FBFF36F8FFEE7384612
:104FF000BDE8F081D00000200449086818B10868B5
:10500000026D521C02650868704700007C00002099
:1050100010B5031F4FF080741C601B1F21F00101AD
:105020001960191F044B0B6014390A60091F6FF0D7
:10503000020244380A6010BD654E00082DE9FC47A5
:10504000814640F6B83001900024042017460E46F1
:10505000009001AB22462146484600F071F8A04678
:105060007D1E10E03A1B311900234846521EFEF700
:105070001FF9002809DD044419A106F80480304610
:10508000FBF755F908B9AC42ECDB17A13046FBF74A
:105090004EF9F0B10F30FBF7BDFA074610A13046CC
:1050A000FBF745F9A8B1002F13DD3119001D081ACF
:1050B0000AE0311900233A464846FEF7F9F800287D
:1050C0000ADD044406F804803F1A002F01DDAC42DB
:1050D000EFDB2046BDE8FC87322000F0EDF9F8E771
:1050E0000D0A0D0A00000000436F6E74656E742D8A
:1050F0004C656E6774683A00F0B50546C1B00F465E
:1051000016461046FBF72FF9044600903B460B4A23
:105110004FF4807101A8FDF74BFE01A8FBF723F9BE
:105120000246002301A92846FEF7D5F800232246AF
:1051300031462846FEF7CFF841B0F0BD1C690008A3
:1051400038B5049C0094FEF763FF38BD7CB5FBF7CF
:105150007BFD0E48408810B1FFF712FA01E0FFF71F
:1051600007FA002518242B464FF4807208A10B483B
:10517000CDE9004501F012F900234FF4007208A1B7
:105180000A48CDE9004501F009F97CBD680000201E
:105190006C65645F626C696E6B0000001545000809
:1051A000687474705F73727600000000A557000881
:1051B00038B5446900226946606800F05DFF012847
:1051C000F8D0002038BD000070B5446903220021EA
:1051D000012000F05BFD01214D02206000222846E5
:1051E00000F054FD60600849A068884202D12A4658
:1051F000064904E00649884203D12A460549FCF7DE
:10520000D0FD002070BD00005C09002008010020D6
:10521000A40900200803002010B54069406800F090
:105220002BFF08B1002010BD012010BD70B54469EE
:105230001D4692B2A068FDF7D3F82946206800F019
:10524000B7FF012802D04FF0FF3070BD002070BDC5
:10525000D0E9013201699A60D0E901235A604A68B5
:10526000824201D182684A60002202610868401EC1
:105270000860086870470000034B036003F15C009E
:105280000860802010607047D0110020044B03603C
:1052900003F15C0008604FF48070106070470000FC
:1052A0002C14002000F108014FF0FF32C0E9011278
:1052B000C1600161002101607047002101617047F8
:1052C00030B50B685A1C02D000F1080202E00269F6
:1052D00004E02246546825689D42FAD953684B6021
:1052E00099608A60516008610168491C016030BDA5
:1052F00042684A6093688B60936859609160086166
:105300000168491C01607047502080F31188BFF389
:105310004F8FBFF36F8F0A494868401C48600128CF
:105320000CD10848006810F0FF0F07D0502080F320
:105330001188BFF34F8FBFF36F8FFEE770470000F8
:10534000F000002004ED00E00849486828B1401E44
:10535000486001D180F311887047502080F3118894
:10536000BFF34F8FBFF36F8FFEE70000F000002008
:1053700070B500282AD0164DA0F10804606869694C
:10538000084207D1502080F31188BFF34F8FBFF33D
:105390006F8FFEE722683AB1502080F31188BFF387
:1053A0004F8FBFF36F8FFEE78843606000F0C0F956
:1053B00060686968084468602046FFF7CBFB28698D
:1053C000401C2861BDE8704001F06CB970BD000060
:1053D000D00000204FF0E0200021016181610549EB
:1053E0004FF47A720968B1FBF2F1491E416107215D
:1053F000016170477800002010B5FAF72DFF1149C0
:1054000010280ED300F1E02090F8F0030A789042C3
:1054100007D2502080F31188BFF34F8FBFF36F8FF7
:10542000FEE709480068896800F4E060884207D90F
:10543000502080F31188BFF34F8FBFF36F8FFEE7CB
:1054400010BD0000F00000200CED00E010B5084B8E
:10545000002200BF53F832401CB1521C082AF9D375
:1054600010BD43F8321003EBC201486010BD0000CC
:10547000B40B002070B515460E460446FFF744FFF6
:1054800094F944100020491C01D184F8440094F997
:105490004510491C01D184F84500FFF755FFA06B6A
:1054A00028B92A46314604F1240000F099F8204634
:1054B000BDE87040FFF7FCBC10B5020014D00F48E7
:1054C000006B38B1502080F31188BFF34F8FBFF3CA
:1054D0006F8FFEE700F02CF900211046FFF748F926
:1054E00001F0E0F8002807D105494FF0805008602E
:1054F000BFF34F8FBFF36F8F10BD00007C00002003
:1055000004ED00E070B50546FFF7FEFE1E4C05B940
:105510002568281DFFF79CFEA86A18B105F1180040
:10552000FFF796FE606A401C60622068854207D1E2
:10553000291D1648FFF7DCFE6068401C606007E02C
:10554000A068401EA0602846FFF71DFAFFF730FC58
:10555000FFF7FAFE6069002814D02068854211D157
:10556000206B38B1502080F31188BFF34F8FBFF309
:105570006F8FFEE706494FF080500860BFF34F8FF2
:10558000BFF36F8F70BD00007C00002090100020E2
:1055900004ED00E002490A6A0260C9684160704790
:1055A0007C00002001490120C86170477C00002078
:1055B00010B50C4650B1094909681831FFF780FE53
:1055C0002046BDE810400121FFF7D2B8502080F3FB
:1055D0001188BFF34F8FBFF36F8FFEE77C00002071
:1055E00070B514460D4668B10A4909681831FFF7CD
:1055F0007FFE0CB14FF0FF3521462846BDE87040D4
:10560000FFF7B6B8502080F31188BFF34F8FBFF378
:105610006F8FFEE77C00002070B504003ED0226D45
:10562000A2B1E06C884200D30146E06A884235D0DE
:10563000012A33D11A4D2A6894420FD1502080F3A9
:105640001188BFF34F8FBFF36F8FFEE7502080F3B9
:105650001188BFF34F8FBFF36F8FFEE7E162A2693E
:10566000002A02DBC1F13801A1610E4E00EB80007F
:10567000616906EB8000814210D1201DFFF7E8FD33
:10568000E06A2969884200D9286100EB800006EBB6
:105690008000211DBDE87040FFF72ABE70BD0000EC
:1056A0007C000020F40B002030B587B00024039468
:1056B00005AA04A903A80494FFF7DEFDDDE90301B0
:1056C0000094CDE90110002315A11748059A00F0B8
:1056D00092FE164D0028E8621FD001F045F801281F
:1056E00009D0401C19D1502080F31188BFF34F8F8F
:1056F000BFF36F8FFEE7502080F31188BFF34F8F09
:10570000BFF36F8F4FF0FF30A86201206861EC603B
:1057100007B0BDE8304000F001BA07B030BD00006E
:1057200049444C4500000000094A00087C00002064
:105730000248016B491C0163704700007C00002097
:10574000164810B5016B11B10121C16110BD0021D6
:10575000C1610169124A01E0B9B1491E01EB81033F
:1057600052F82330002BF7D001EB810302EB8302C8
:1057700002F1080453685B685360A34201D15B687F
:105780005360DA680260016110BD502080F3118817
:10579000BFF34F8FBFF36F8FFEE700007C00002048
:1057A000F40B00202DE9F04FE5B071A0FDF77CFD72
:1057B00073A176A0FDF776FD40F6B8305C9000222C
:1057C00001210220FDF709FE060001D571A013E0BA
:1057D000002756970220ADF85801579758975997C8
:1057E0005020FEF7F1FDADF85A01102256A93046BF
:1057F000FDF754FD40B16DA0FDF7CAFA0020FFF798
:1058000081FE65B0BDE8F08F04213046FDF74EFD06
:1058100050216CA0FDF7BCFADFF8C8910DF10C081F
:1058200041F2883A002211463046FDF735FD04006A
:1058300003D5C820FFF740FEF4E7042000220090C3
:105840005CAB11462046FFF77BFC40F2FF32664915
:105850002046FFF7F3FB051E7EDD634801464755F2
:1058600062A0FDF795FACC2101A8FAF755FD01AA2F
:1058700029465D48FEF7AEFD08B163A270E033989B
:1058800008B1034600E069A3424601A969A0FDF7FB
:105890007FFA70A101A8FAF76DFD20B96EA140460C
:1058A000FAF768FD28B16BA101A8FAF763FD20B1F2
:1058B00008E06A486AA1026853E070A14046FAF71E
:1058C00059FD28B16FA101A8FAF754FD68B111E0A4
:1058D000B9F800100091B9F802306CA2802135A807
:1058E000FDF766FA35AA71A13BE078A14046FAF7C8
:1058F00041FD08B178A233E04FF0000B4FF4FA7588
:10590000082361AA7CA13398FEF7DDFE18B961A8CF
:10591000FAF780FE834610235DAA78A13398FEF73C
:10592000D2FE50B95DA8FAF775FE0546642801DA83
:10593000642502E0554500DD55462A46594671A0CA
:10594000FDF726FAA9F80050A9F802B05B464FA26D
:10595000802136A8009500E006E0FDF729FA36AA76
:1059600052A12046FFF7C8FB2046FDF799FC59E7F6
:1059700073746D33325F66345F7561727432000028
:1059800077787731323334353600000054656E64F1
:10599000610000005B485454505D20736F636B6579
:1059A00074206661696C65640D0A00005B4854549C
:1059B000505D2062696E64206661696C65640D0AE1
:1059C000000000005B485454505D206C697374659E
:1059D0006E696E67206F6E20706F72742025640D83
:1059E0000A00000068000020080500202D2D2D2D44
:1059F0002D204854545020524551202D2D2D2D2D11
:105A00000D0A25730D0A00007B226F6B223A666136
:105A10006C73652C226D7367223A22626164207276
:105A2000657175657374227D000000004E554C4C05
:105A3000000000006D6574686F643D25732C207054
:105A40006174683D25732C20706172616D733D2512
:105A5000730D0A00474554002F000000600000202D
:105A6000746578742F68746D6C3B20636861727321
:105A700065743D7574662D38000000002F737461E5
:105A800074757300504F5354000000007B226F6BFD
:105A9000223A747275652C226C6564223A25642C56
:105AA0002266726571223A25647D00006170706C17
:105AB00069636174696F6E2F6A736F6E3B206368F0
:105AC00061727365743D7574662D38002F636F6E57
:105AD00074726F6C000000007B226F6B223A66616B
