:020000040800F2
:100000005862002011030008EF2A00081D2900088B
:10001000ED2A0008FF100008CD32000800000000A3
:100020000000000000000000000000005102000875
:10003000D511000800000000AD020008FD2C0008EA
:100040002B0300082B0300082B0300082B030008D8
:100050002B0300082B0300082B0300082B030008C8
:100060002B0300082B0300082B0300082B030008B8
:100070002B0300082B0300082B0300082B030008A8
:10008000011100080D1100082B0300082B030008C4
:100090002B0300082B0300082B0300082B03000888
:1000A0002B030008BD2D00082B0300082B030008BC
:1000B0002B0300082B0300082B0300082B03000868
:1000C0002B0300082B0300082B0300082B03000858
:1000D0002B030008B5320008C13200082B030008CA
:1000E0002B0300082B0300082B0300082B03000838
:1000F0002B0300082B0300082B0300082B03000828
:100100002B0300082B0300082B0300082B03000817
:100110002B0300082B0300082B0300082B03000807
:100120002B0300082B030008191100082B030008FB
:100130002B0300082B0300082B0300082B030008E7
:100140002B0300082B0300082B0300082B030008D7
:100150002B0300082B030008251100082B030008BF
:100160002B0300082B0300082B0300082B030008B7
:100170002B0300082B0300082B03000800000000DD
:100180002B0300082B03000800F002F800F050F8E1
:100190000AA090E8000C82448344AAF10107DA45E2
:1001A00001D100F045F8AFF2090EBAE80F0013F0E4
:1001B000010F18BFFB1A43F001031847405C000011
:1001C000605C0000103A24BF78C878C1FAD85207A2
:1001D00024BF30C830C144BF04680C6070470000C1
:1001E0000023002400250026103A28BF78C1FBD840
:1001F000520728BF30C148BF0B607047642900F028
:100200009981752900F09681732900F002850020FC
:1002100070471FB505F0B4FD00F066FF0400002034
:10022000002105F097FD401C60601FBD10B510BD9A
:1002300000F01EFF1146FFF7ECFF03F013FF00F084
:1002400045FF03B4FFF7F2FF03BC00F051FF0000CD
:100250002C4B19680868B0E8F04F80F30988BFF3A9
:100260006F8F4FF0000080F311887047000000008E
:1002700008480068006880F308884FF0000080F3A9
:10028000148862B661B6BFF34F8FBFF36F8F00DF84
:1002900000BF00BF08ED00E0DFF80C00016841F48A
:1002A00070010160704700BF88ED00E0EFF3098046
:1002B000BFF36F8F134B1A681EF0100F08BF20EDAD
:1002C000108A20E9F04F106009B44FF0500080F31D
:1002D0001188BFF34F8FBFF36F8F04F07FFE4FF095
:1002E000000080F3118809BC19680868B0E8F04F75
:1002F0001EF0100F08BFB0EC108A80F30988BFF31E
:100300006F8F704770000020EFF30580704700008A
:100310000948804709480047FEE7FEE7FEE7FEE799
:10032000FEE7FEE7FEE7FEE7FEE7FEE704480549D5
:10033000054A064B70470000AD2D000889010008F2
:10034000585C002058620020585E0020585E002053
:1003500053EA020C00F069802DE9F04B4FF00006E3
:10036000002B1FBFB3FA83F503FA05F424FA05F650
:100370005E4012BF1643B2FA82F502FA05F4C5F1E7
:1003800020051EBF22FA05FC44EA0C04203556EA7B
:10039000044C4FEA144418BF641C4FF000084FF09F
:1003A0000009904271EB030C39D3002919BFB1FA4F
:1003B00081F701FA07F6B0FA80F700FA07F6C7F1FD
:1003C00020071EBF20FA07FC46EA0C062037B6FBC2
:1003D000F4FCA7EB0507103F07F01F0BCBF120063D
:1003E0000CFA0BFB2CFA06F644BFB3460026202F6E
:1003F000A4BF5E464FF0000B5BEA060C08BF4FF04F
:10040000010B19EB0B09ABFB027C48EB0608C01B88
:1004100006FB02CC0BFB03CC71EB0C01C1E70B46D6
:10042000024641464846BDE8F08B13B54FF0000048
:100430004FF00001AFF30080BDE81C4070470000A2
:100440000FB47CB50C0009AA009001D02044401ED6
:10045000084B7B4469460190089800F0A8FB0546CC
:100460001CB10020694600F0B5FB28467CBC5DF855
:1004700014FB0000890700002DE9F0410E460446F8
:10048000002020622046E168884730B3252805D047
:10049000D4E901219047206A401CF2E7E168204638
:1004A00000278847050018D0A5F14100192802D877
:1004B00020354FF400673246294620462760FFF773
:1004C0009DFE40B1012804D0F61D26F0070608362F
:1004D000D8E7361DD6E72846DAE7206ABDE8F0817E
:1004E00070B50C460546012A05D02878800600D54F
:1004F000EA69002302E0012305E05B1C934202D27B
:10050000E05C0028F9D1A869E618C01AA861286A39
:10051000184428622846AFF3008004E0D5E90121A1
:1005200014F8010B9047B442F8D32846AFF300808B
:1005300070BD00002DE9F0410646002410687529C1
:10054000314616A510D0AFF30080002802DA4042F1
:1005500013A507E031688A0701D512A502E0490713
:1005600004D511A5012401E0AFF3008000210A2287
:1005700006F1240709E0B0FBF2FCB0FBF2F302FB4A
:100580001C00303078541846491C0028F3D123460B
:100590002A463046BDE8F04100F0ABBA000000004A
:1005A0002D0000002B000000200000000FB400B55B
:1005B0008DB010A9099000910B904FF0FF300A9078
:1005C00000200C90064878440690064878446A4615
:1005D00007900F9909A800F035FB0DB05DF814FBEA
:1005E0009B060000B30600002DE9FF5F1D464FF09B
:1005F000FF3B91464FF000085F46D5E90146A969E7
:1006000001987F1C8847296A824688470028F6D1CE
:10061000BAF1FF3F0CD0002E24F4C06419DD60064F
:1006200014D5BAF12B0F09D0BAF12D0F0ED103E07A
:10063000584604B0BDE8F09F44F48064A96901986D
:100640007F1C8847761E8246002E02DDBAF1300FED
:1006500003D0B9F1000F26D032E0A969761E0198C7
:100660007F1C44F400748847002E824605DDBAF1F1
:10067000780F06D0BAF1580F03D0B9F1000F10D09F
:100680001EE0B9F1000F02D0B9F1100F18D1A9691D
:10069000761E01987F1C24F400748847824610203F
:1006A00002E0082000E00A20814609E0A96908FB71
:1006B0000908761E01987F1C44F40074884782461E
:1006C000002E05DD4946504600F0A7FA0028EDDA75
:1006D000E96901988847A00502D46FF00100A8E7F6
:1006E000E00725D1600613D5600502D5C8F10000EA
:1006F00000E0404629680A1D2A600968220501D5E4
:10070000087015E0220701D5088011E008600FE0AD
:100710002868011D29600068210502D580F8008045
:1007200006E0210702D5A0F8008001E0C0F80080B3
:1007300038467EE72DE9FF5F4FF0000899461446E2
:1007400046469169D2E901A7DDF838B0019888479B
:10075000054659EA0B0005D009E0A1690198761C0D
:1007600088470546216A284688470028F5D1681C35
:1007700003D05FEACA7005D015E04FF0FF3004B037
:10078000BDE8F09F2068011D2160D0F800800AE0DC
:100790005FEACA7001D108F8015BA169761C019873
:1007A0007F1E88470546002F1ADD681C18D0B9F156
:1007B000000F0DD0E81705EBD060421120F01F00AC
:1007C00059F822102A1A012090400142E0D107E096
:1007D000BBF1000FDCD12846216A88470028D7D01A
:1007E000E16901988847BBF1000F07D1002E05DDB4
:1007F0005FEACA7002D1002188F80010A068B842F0
:1008000003DDBBF1000F03D017B16FF00100B6E7B5
:100810003046B4E7401ECAB210F8011F8A4202D027
:100820000029F9D10020704730B505460B462A460D
:1008300013F8014B12F8010B08B1A042F8D01CB11B
:10084000002802D06D1CF1E7284630BD10B5431CCE
:1008500002E010F8011B71B18107FAD14FF00132AB
:1008600002C88C1A8C4314EAC211F9D0C01A0A06C5
:1008700003D0C01E10BDC01A10BD0A0401D0801ED6
:1008800010BD0902FCD0401E10BD40EA010370B546
:100890009B072ED14FF00136042A2AD308C810C96D
:1008A0009D1B9D43121F15EAC61517D0D8B2E1B2A1
:1008B000401A50EA056110D198B2A1B2401A50EA2C
:1008C00005410AD123F07F4024F07F41401A50EACD
:1008D000052102D1180EA0EB146070BDA342DBD03D
:1008E00018BA21BA884201D9012070BD4FF0FF30FB
:1008F00070BD0AB9002070BD10F8013B11F8014B22
:1009000063B1A3420AD1521E08D010F8013B11F87E
:10091000014B1BB1A34201D1521EEDD1181B70BD7A
:10092000032A40F2308010F0030C00F0158011F81B
:10093000013BBCF1020F624498BF11F801CB00F8F3
:10094000013B38BF11F8013BA2F1040298BF00F847
:1009500001CB38BF00F8013B11F0030300F0258004
:10096000083AC0F0088051F8043B083A51F804CB2B
:10097000A0E80810F5E7121D5CBF51F8043B40F8F1
:10098000043BAFF30080D20724BF11F8013B11F8FC
:1009900001CB48BF11F8012B24BF00F8013B00F840
:1009A00001CB48BF00F8012B704710B5203AC0F0CA
:1009B0000B80B1E81850203AA0E81850B1E8185060
:1009C000A0E81850BFF4F5AF5FEA027C24BFB1E89D
:1009D0001850A0E8185044BF18C918C0BDE810400E
:1009E0005FEA827C24BF51F8043B40F8043B08BF17
:1009F0007047D20728BF31F8023B48BF11F8012BDE
:100A000028BF20F8023B48BF00F8012B704702F0D6
:100A1000FF0343EA032242EA024200F045B94FF0E5
:100A2000000200B5134694469646203922BFA0E83E
:100A30000C50A0E80C50B1F12001BFF4F7AF09074A
:100A400028BFA0E80C5048BF0CC05DF804EB89003B
:100A500028BF40F8042B08BF704748BF20F8022B7E
:100A600011F0804F18BF00F8012B70474FF0013C88
:100A700050F8042B51F8043B9A4221D1A2EB0C030D
:100A8000934313EACC1317D150F8042B51F8043BCD
:100A90009A4215D1A2EB0C03934313EACC130BD16A
:100AA00050F8042B51F8043B9A4209D1A2EB0C03F5
:100AB000934313EACC13DBD04FF00000704700BF24
:100AC000D01A01BAB1FA81F101F0180122FA01F04D
:100AD000CB40C1F12001DBB2C0B2C01A2CFA01F345
:100AE000D11A914311EAC311E6D17047704770479C
:100AF00070472DE9F0470D4699469246044600F1AD
:100B000024080168880604D5E06921F010012160FD
:100B100000E00120A84201DD471B00E00027A16999
:100B20007A1902EB0900081AA0612078C00602D4E5
:100B30002046AFF30080002608E0D4E901211AF82E
:100B400006009047206A401C761C20624E45F4DB6C
:100B50002078C0060AD52046AFF3008006E0D4E92D
:100B6000012130209047206A401C2062381EA7F1E6
:100B70000107F4DC07E0D4E9012118F805009047EB
:100B8000206A401C2062281EA5F10105F3DC2046E6
:100B9000AFF300802078000602D50220BDE8F08780
:100BA0000120FBE701694A1C02610878704700B523
:100BB0008FB0CDE901310021059105497944CDE996
:100BC000031011466846FFF757FC0FB000BD000048
:100BD000E5FFFFFF0A6802F8010B0A607047D1E9E0
:100BE00000239A4202D2531C0B601070704710B55C
:100BF000436913B1AFF3008001E0FFF771FC0120FE
:100C000010BD127800F124010A7000224A700122FE
:100C1000EDE711684FF0FF32E9E73A2800D23038AB
:100C200020F02002412A01D3A2F13700884201D3EB
:100C30004FF0FF30704700000268114413780160E4
:100C400018467047D1600549794451610449794497
:100C5000116200211161114600F050B8EDFFFFFF55
:100C600097000000426842B1016811F8013B23B1CE
:100C7000521EC0E90012184670470121C160881E4B
:100C8000704742685AB1C368016843B983688B42B0
:100C900005D0491E521CC0E90012002070474FF0D9
:100CA000FF3070474FF000020429C0F0128010F0AE
:100CB000030C3FF4B6AECCF1040CBCF1020F18BF2C
:100CC00000F8012BA8BF20F8022BA1EB0C01FFF7C5
:100CD000A8BE5FEAC17C24BF00F8012B00F8012BFD
:100CE00048BF00F8012B704710B5044600F0E6F944
:100CF0000068005D00F0010010BD00002DE9F34F19
:100D00004FF0000A0C4656468DB001200C9001F1C0
:100D10000C000B9062690B9801219047051E2DD0A5
:100D2000252D2CD0216A8847C0B162690B9801211A
:100D30009047216A88470028F7D16269411E0B98C5
:100D4000904700E0761CA1690D988847216A884782
:100D50000028F7D1E1690D988847DBE7A1690D9874
:100D60008847A842074601D1761CD3E7E1690D9870
:100D700088477F1C02D1BAF1000F6FD06CE1626925
:100D80000B9800273D46394690472A2804D16269CE
:100D90000B98012190470125DFF8D08262690B98FA
:100DA00001219047A0F130010A290AD24745E5DC2C
:100DB00007EB870100EB4107303FDFD445F010051A
:100DC000ECE7E90601D46FF000476C280AD04C2804
:100DD00014D0682815D06A280DD074281CD07A2821
:100DE0001AD01DE062690B98012190476C2802D04F
:100DF00045F0040514E045F002050DE045F020053E
:100E00000AE062690B9801219047682802D045F0FA
:100E1000080505E045F4006562690B9801219047DB
:100E2000C4E9015765283DD019DC58287AD00CDC7C
:100E3000452837D004DC252826D041289ED131E032
:100E400046282FD0472899D12CE05B2877D06128FD
:100E500028D063287CD0642823D15AE0F7E06F289B
:100E600048D008DC66281DD067281BD0692821D00F
:100E70006E2816D127E0702845D0732868D07528D1
:100E800047D078280DD14DE0A1690D9888472528D5
:100E900005463FF469AFE1690D9888476D1C3FF442
:100EA0006AAFD9E00D9923466A466FF00100AFF3AF
:100EB0000080C6E045F0400023464FF0000260602D
:100EC000A80736D43EE0E8077FF447AF2068011D4D
:100ED00021600068290501D506701BE7290701D5A7
:100EE000068017E7A90703D5F117C0E9006111E7EC
:100EF00006600FE745F0400023464FF008026060AF
:100F0000A80716D41EE040F60E0125EA0100606035
:100F100016E045F0400023464FF00A026060A80743
:100F200007D40FE045F040006060A80708D52346CD
:100F300010220D996FF00100AFF3008081E007E00F
:100F4000102223460D996FF00100FFF74DFB78E06A
:100F50004FF0000963284F46C8464B46CB4602D0A7
:100F60005B2807D039E02079C00601D40120A060B9
:100F7000012732E06269D4F80CB00B980121904748
:100F80005E2807D14FF0010949466269D4F80CB0D8
:100F90000B989047216939B900210A4603AB43F801
:100FA0002120491C0829FADBD8B3216949B308F18B
:100FB000010862690B98012190475D28F4D1B9F1CD
:100FC000000F09D0002003A951F82020D24341F896
:100FD0002020401C0828F7DB03AB2069002820797B
:100FE0004FEA40701ED05B462246CDF80080CDE926
:100FF00001970D9900286FF0010020DAAFF300800F
:101000001FE0C11703AA00EBD1614B1121F01F01B2
:1010100002EB8302411A13680120884003431360E6
:10102000C7E719E00D99224600286FF001000097EC
:1010300002DAAFF3008004E0FFF77CFB01E0AFF3DE
:10104000008000280ADA401C06D10C9820B14FF02D
:10105000FF300FB0BDE8F08F5046FAE7E90701D145
:101060000AF1010A064400200C9053E6CCCCCC0CCB
:10107000754600F035F8AE4605006946534620F047
:101080000700854618B020B5FFF750F9BDE82040AD
:101090004FF000064FF000074FF000084FF0000B34
:1010A00021F00701AC46ACE8C009ACE8C009ACE8E7
:1010B000C009ACE8C0098D467047000010B500F0CB
:1010C00013F8001D10BD00BF8D4C000010B5044684
:1010D000AFF300802046BDE81040FFF7B2B8000033
:1010E00000487047F85B002000487047185C0020FB
:1010F00001491820ABBEFEE7260002007047FEE75C
:10110000014800F0DDB80000F4110020014800F0B3
:10111000D7B8000054120020014800F0D1B80000F8
:1011200034110020014800F0CBB8000094110020D9
:1011300001681823CAB2103AB2FBF3F2054B6FF301
:101140000901032A9B5CC36500D9091D8165084616
:1011500070470000B05D000810B5014600208B69A3
:101160008A6A4FF0C07453B1B3F5005F15D072B105
:10117000012A0CD0022A0AD0032A09D104E01AB1AC
:10118000012A06D0022A03D1C96AC90100D501206B
:1011900010BDC96AA142FAD010BD002AF7D0012AB9
:1011A000F2D0022AF3D0032AF3D010BD30B5046880
:1011B000256825F480252560046863608368402BDA
:1011C000036803D099600068C26030BD9A6000680F
:1011D000C16030BD704772B6FEE7000070B5094DC2
:1011E0000646002455F8240001683046FFF73EFC0F
:1011F00020B1641C022CF5D3002070BD55F82400EA
:1012000070BD0000000000202DE9F0410446876D0C
:1012100000F0C6FA064694F835000025022806D0EC
:101220008020606584F834500120BDE8F08120689A
:10123000016821F0160101602068416921F08001F8
:101240004161206C08B9A06C20B12068016821F0D0
:10125000080101602068016821F0010101600CE0D3
:1012600000F09EFA801B052807D920206065032026
:1012700084F8350084F83450D7E720680068C00748
:10128000EED194F85C103F208840B860012084F8CB
:10129000350084F834500020C7E790F83510022953
:1012A00003D08021416501207047052180F8351069
:1012B0000068016821F00101016000207047000012
:1012C0002DE9F84304464FF00009CDF8009063483B
:1012D0004FF41651A56D0068B0FBF1F72E6894F835
:1012E0005C10082000FA01F131420FD021680A6831
:1012F00052070BD50A6822F004020A6094F85C10C9
:101300008840A860606D40F00100606594F85C1052
:101310004FF0010808FA01F0304208D0216849690D
:10132000090604D5A860606D40F00200606594F87D
:101330005C1004208840304208D021680968890781
:1013400004D5A860606D40F00400606594F85C10FE
:1013500010208840304218D021680968090714D548
:10136000A86020680168490304D50068000308D517
:10137000A16C07E00168C90503D4016821F00801E8
:101380000160216C09B12046884794F85C10202048
:101390008840304231D021680968C9062DD5A8603F
:1013A00094F8350005282068016806D0490347D520
:1013B000006800031DD4616C1CE021F0160101607F
:1013C0002068416921F080014161206C08B9A06C5E
:1013D00020B12068016821F00801016094F85C10D8
:1013E0003F208840A86084F8358084F83490216DCF
:1013F0001FE0E16B09B120468847606D00282BD0C3
:10140000606DC00714D0052084F83500206801689D
:1014100021F0010101600098401C0090B84203D8FF
:1014200020680068C007F6D184F8358084F83490CD
:10143000E16C002910D001B02046BDE8F043084718
:101440000168C905D5D4016821F01001016084F854
:10145000358084F83490CCE7BDE8F8836C00002038
:101460002DE9F041044600F09BF906465CB10220EC
:1014700084F83500002584F834502068016821F094
:10148000010101600DE00120BDE8F08100F088F964
:10149000801B052805D920206065032084F83500CD
:1014A000F2E720680068C007F0D122681168204880
:1014B0000140D4E901031843D4E903363343184308
:1014C00063691843A3691843E3691843236A1843FF
:1014D0000843616A042903D1D4E90B131943084373
:1014E000106020684069666A20F0070130460E43AC
:1014F000012704280CD1A06A0643E06A40B12046C7
:10150000FFF72AFE20B14020606584F83570BAE705
:10151000206846612046FFF70BFE94F85C203F21CF
:1015200091408160656584F835700020ACE700006B
:101530003F8010F02DE9F0410446866D90F83400AC
:10154000002501280DD0012084F8340094F835706E
:101550000020012F07D084F8340002252846BDE87A
:10156000F0810220FBE7022784F835706065204691
:10157000FFF71CFE94F85C103F208840B0602068A4
:10158000016841F016010160206C20B120680168FB
:1015900041F0080101602068016841F0010101602B
:1015A000DCE700002DE9F84FDFF8BCA1002201259F
:1015B00003264FF00F090AF1040BAAF1040E00BF35
:1015C0000B6805FA02F42340A34270D10F7907F0AB
:1015D0000307012F01D0022F16D187684FEA420876
:1015E00006FA08FC27EA0C07D1F80CC00CFA08FC34
:1015F0004CEA070CC0F808C04768A7430C79C4F34D
:10160000001494403C4344600C79E443A4070AD09E
:10161000C4684FEA420C06FA0CF7BC438F6807FA1D
:101620000CF72743C7600C7904F00304022C12D195
:10163000D40800EB840CDCF820405707FF0E09FAB1
:1016400007F824EA0804D1F8108008FA07F848EAF5
:101650000408CCF8208004684FEA420C06FA0CF724
:10166000BC430F7907F0030707FA0CF7274307601D
:101670004C6814F4403F70D03C4C276847F48047D6
:101680002760246822F0030704F480440094384C57
:1016900007EB040CDCF8084897074FEA177809FABB
:1016A00008F7BC43334FB84202D1002724E054E08E
:1016B000314FB84201D101271EE0304FB84201D16D
:1016C000022719E02E4FB84201D1032714E02D4F15
:1016D000B84201D104270FE02B4FB84201D10527B2
:1016E0000AE02A4FB84201D1062705E0284FB84248
:1016F00001D1072700E0082707FA08F72743CCF8AD
:101700000878DAF800405746D1F804C09C435FEAF5
:10171000CC2C00D51C433C60DBF800405F46D1F880
:1017200004C09C435FEA8C2C00D51C433C60DEF86F
:1017300000407746D1F804C09C435FEA8C3C00D55A
:101740001C433C60084F083F3C68D1F804C09C43F0
:101750005FEACC3C00D51C433C60521C102AFFF4CD
:101760002FAFBDE8F88F0000083C0140443802402C
:101770000030014000000240000402400008024026
:10178000000C024000100240001402400018024009
:10179000001C02400AB1816170470904FBE70000A8
:1017A00001488068704700006000002070B50400A8
:1017B00025D094F83D00002520B984F83C502046FF
:1017C00000F0B8F8242084F83D002068016821F07A
:1017D000010101602068016841F400410160206856
:1017E000016821F40041016000F058FA4D4A616837
:1017F000914201D84C4900E04C49884201D2012075
:1018000070BD4B492368B0FBF1F15E6826F03F06DE
:101810000E435E606368934206D94FF49673594352
:101820004FF47A73B1FBF3F12368491C1E6A26F06A
:101830003F06314319626168914210D84900401E49
:10184000B0FBF1F2521CC2F30B02042A01D20420B5
:1018500022E0B0FBF1F0401CC0F30B001CE0A268DA
:10186000F2B301EBC10303EB0116431EB3FBF6F326
:101870005B1C43F480431B0549D092B301EBC102CA
:1018800002EB0111401EB0FBF1F0401CC0F30B0055
:1018900040F4804040F400402168CA694CF6FF7370
:1018A0009A431043C861D4E90710014320680268D5
:1018B00022F0C00211430160D4E903010143206812
:1018C000826848F2FF339A4311438160D4E90501ED
:1018D00008432168CA6822F0FF021043C86001E093
:1018E0000EE016E02068016841F001010160256406
:1018F000202084F83D00256384F83E50002070BD10
:1019000001EB4106431EB3FBF6F35B1CB3E701207A
:10191000C2E701EB4101401EB0FBF1F0401CC0F3F7
:101920000B00B7E7A086010080841E0000093D007F
:1019300040420F0010B586B0044614216846FFF7F8
:101940006EF814492068884221D1134800210268AA
:1019500042F002020260006800F0020005904FF4BD
:10196000407000901220CDE9010103200390042073
:10197000049069460948FFF715FE074810300168D2
:1019800041F400110160006800F40010059006B0F9
:1019900010BD0000005400403038024000040240F6
:1019A000024881680278114481607047600000201D
:1019B0000B4810B5016841F400710160016841F401
:1019C00080610160016841F480710160032000F0D2
:1019D00099F80F2000F006F800F04AF8002010BD3A
:1019E000003C024030B505461C4887B00024016821
:1019F00041F001010160006806A900F001000090BB
:101A000001A800F02BF900F059F915494000B0FB8E
:101A1000F1F11548134A491E026040F2E732C0E96D
:101A20000324C0E90114846100F042FB040012D1D8
:101A30000D4800F06BFB04000DD1192000F034F8C4
:101A4000102D07D200222946192000F03BF8074844
:101A5000056000E0012407B0204630BD4438024054
:101A600040420F0000000140B4120020640000203A
:101A70000C4882B0016841F480410160006800F4C4
:101A8000804000900748001F016841F080510160CC
:101A90000068002200F0805000900F21901E02B0DC
:101AA00000F010B844380240002809DB00F01F02A3
:101AB000012191404009800000F1E020C0F80011B0
:101AC00070470000F0B40E4B1B680C46C3F30223B2
:101AD000C3F10705042D00D90425191D072901D2DA
:101AE000002300E0DB1E012606FA05F1491E214015
:101AF00099409E40761E16403143F0BC01F0E7BB92
:101B00000CED00E0064900F0070208684FF6FF03FD
:101B1000184040EA0220034A104308607047000062
:101B20000CED00E00000FA052DE9F0470E46050037
:101B300065D0DFF81481D8F80000F7B200F0070094
:101B4000B04207D288F80070D8F8000000F0070013
:101B5000B04254D128683D4C810712D5400703D5C7
:101B6000206840F4E05020602878000703D5206802
:101B700040F4604020602068A96820F0F00008432D
:101B800020602878C0072DD03049686808390128BE
:101B900012D0022813D0032811D009688907002920
:101BA0002DDA216821F0030101432160FFF7F8FDE0
:101BB000814641F2883A0EE009688903EFE7096837
:101BC0008901ECE7FFF7ECFDA0EB0901514502D9D3
:101BD0000320BDE8F0872068696800F00C00B0EBD6
:101BE000810FEFD1D8F80010404601F00701B14253
:101BF00007D90770006800F00700B04201D001204B
:101C0000E7E72878400705D52068E96820F4E05028
:101C1000084320602878000706D52068296920F449
:101C2000604040EAC100206000F058F82168084A8E
:101C3000C1F30311515CC8400649086006480068BA
:101C4000FFF7D0FE0020C4E7003C02400838024005
:101C5000B85D00086C000020640000200F220260C4
:101C60000C4A136803F003034360136803F0F003A6
:101C70008360136803F4E053C36012684FF4E053C9
:101C800003EAD20202610448006800F0070008601D
:101C90007047000008380240003C024004480549F3
:101CA00000680968044AC1F38221515CC84070474A
:101CB0006C00002008380240C85D0008044805494F
:101CC00000680968044AC1F34231515CC84070475A
:101CD0006C00002008380240C85D0008154810B5A7
:101CE000006810F00C02144813D01449042A0FD0D5
:101CF000082A0ED10F4C241F2268236802F03F02ED
:101D00005B0207D52068C0F38810A0FB010106E044
:101D1000084610BD2168C1F38811A1FB0001002312
:101D2000FEF716FB2168C1F30141491C4900B0FBD5
:101D3000F1F010BD083802400024F40040787D0125
:101D40002DE9F84F04006ED02078DFF84C93C007DF
:101D5000A9F104054AD009F104000168C1F3810129
:101D6000012908D00068C0F3810002280AD1D9F8FF
:101D70000000400206D52868800337D56068002837
:101D8000E1D033E06068B0F5803F10D0B0F5A02F0F
:101D9000286810D020F480302860286820F4802043
:101DA00028606068A8B1FFF7FBFC06460DE02868D4
:101DB00040F48030F4E740F480202860F7E700BF6B
:101DC000FFF7EEFC801B642873D828688003F7D5E2
:101DD0000CE0FFF7E5FC064605E000BFFFF7E0FC7E
:101DE000801B6428F0D828688003F7D42078DFF8B7
:101DF000AC8280074FF0000A3ED5A748001D01685D
:101E000011F00C0F08D00068C0F3810002280BD13C
:101E1000D9F80000400207D42868800716D5E0688A
:101E2000012800D112E033E1E068B8B10120C8F820
:101E30000000FFF7B5FC064605E000BFFFF7B0FC69
:101E4000801B0228C0D828688007F7D52868216938
:101E500020F0F80040EAC10028600DE0C8F800A0BA
:101E6000FFF79EFC064604E0FFF79AFC801B022861
:101E70001FD828688007F7D42078000722D5864F1E
:101E800087486169703771B101210160FFF788FCF3
:101E9000064604E0FFF784FC801B022809D8386856
:101EA0008007F7D50EE0C0F800A0FFF779FC0646E2
:101EB00005E082E0FFF774FC801B02287DD83868BB
:101EC0008007F7D42078400768D5DFF8CCB1002729
:101ED0000BF13C0BDBF80000C0000BD4DBF800106A
:101EE00041F08051CBF80010DBF80000012700F032
:101EF000805000906B4E3068C00510D4306840F4BC
:101F000080703060FFF74CFC009005E0FFF748FC64
:101F10000099401A022850D83068C005F6D55E4EA8
:101F2000A0686C3601280FD00528306810D020F04A
:101F300001003060306820F004003060A068B8B163
:101F4000FFF72EFC00900FE0306840F00100F4E74E
:101F500040F004003060F7E7FFF722FC0099411AD7
:101F600041F28830814266D830688007F4D50EE0AF
:101F7000FFF716FC009007E0FFF712FC0099411AEA
:101F800041F28830814256D830688007F4D42FB1AE
:101F9000DBF8001021F08051CBF80010A069C8B325
:101FA0003D49091D0968C1F3810102294AD002286F
:101FB000504607D0C8F8600000E03CE0FFF7F0FBB7
:101FC00004463BE04746C8F86000FFF7E9FB0646D9
:101FD00005E000BFFFF7E4FB801B02282BD8286830
:101FE0008001F7D4D4E907010843A16A2E4A4908C1
:101FF00002EB0141626A41EA8211084394F82C1015
:1020000040EA0161C9F8001001203866FFF7C8FBFB
:10201000044606E03EE000BFFFF7C2FB001B0228BB
:1020200009D828688001F7D534E000BFFFF7B8FB76
:10203000001B022802D90320BDE8F88F2868800120
:10204000F4D427E00128F7D0D9F80000E26900F4C1
:10205000800191421CD1226A00F03F01914217D1C8
:1020600047F6C071626A0140B1EB821F10D1A26ACB
:102070004FF0FF3300F4403103EB5202B1EB024F5B
:1020800006D194F82C1000F07060B0EB016F01D015
:102090000120D1E70020CFE704380240000047428A
:1020A000800E4742007000400000FFFF70477047FD
:1020B00010B5040003D094F83D0010B107E00120F2
:1020C00010BD002084F83C00204600F01EF80220DD
:1020D00084F83D00211D206800F076FE012084F880
:1020E000460084F83E0084F83F0084F8400084F8FD
:1020F000410084F8420084F8430084F8440084F8E6
:10210000450084F83D00002010BD704790F83D1058
:10211000012901D001207047022180F83D1001689B
:10212000CA6842F00102CA6000681149884214D0AE
:10213000B0F1804F11D00F4988420ED00E4988422D
:102140000BD00E49884208D00D49884205D00D4970
:10215000884202D00C49884204D1816801F007010D
:10216000062903D0016841F0010101600020704799
:10217000000001400004004000080040000C004046
:1021800000040140004001400018004070472DE964
:10219000F04104460068C66805694FF00007A907CA
:1021A00013D5B10711D5F91E0161012020772068F0
:1021B00080698007204602D0FFF7E8FF04E000F0C6
:1021C0007EF8204600F07CF82777680716D5700760
:1021D00014D521686FF00400086102202077206880
:1021E000806910F4407F204602D0FFF7CFFF04E063
:1021F00000F065F8204600F063F82777280715D52A
:10220000300713D521686FF008000861042020779B
:102210002068C0698007204602D0FFF7B7FF04E0BE
:1022200000F04DF8204600F04BF82777E80616D569
:10223000F00614D521686FF010000861082020779F
:102240002068C06910F4407F204602D0FFF79EFF4F
:1022500004E000F034F8204600F032F82777E80771
:1022600008D0F00706D021686FF001000861204611
:1022700000F028F8280608D5300606D521686FF04A
:10228000800008612046FFF711FF680608D5700638
:1022900006D521686FF040000861204600F01CF868
:1022A000A8060AD5B00608D521686FF0200008619D
:1022B0002046BDE8F041FFF7FABEBDE8F081704767
:1022C0007047000000680349884201D1FFF768BBEE
:1022D0007047000000000140704738B5044690F890
:1022E0004200202801D0022038BD61B15AB101203E
:1022F000206300206063204600F094FF0028F3D1A3
:10230000216B012901D0012038BD21680A68496884
:10231000009121680C3151E8002F42F0100241E891
:102320000023002BF5D138BD2DE9F04107461948AF
:102330000E468068B84210D1164CDFF85C80E56824
:1023400008E000BF002308EB05011A46606803F0AF
:1023500077F86D1CB542F5DB14E00E48103080684C
:10236000B8420FD10B4CDFF834801034E56807E039
:10237000002308EB05011A46606803F061F86D1C44
:10238000B542F5DBE660786B002800D1E060BDE87F
:10239000F081000008000020F0000020F002002082
:1023A000016882B000230A684A6800920A684A6895
:1023B00000920A684A6800920A68496800910C49CC
:1023C0004FF400728968814203D10949CB60094901
:1023D00008E0074910318968814206D1044910316B
:1023E000CB60054902B0FFF778BF02B0704700002C
:1023F00008000020F0000020F0020020F8B501687D
:1024000004460868CA684B6910F00F0F4FF00005CA
:1024100059D003F0010602F49077374365D0C10725
:1024200005D0D10503D5616C41F00101616441071C
:1024300005D5D90703D0616C41F0020161648107C1
:1024400005D5D90703D0616C41F00401616401072F
:1024500007D502F02001314303D0616C41F008013F
:102460006164616C00293AD0800604D5900602D5DB
:10247000204600F0EFFD20684069616CC0F38010D9
:10248000090700D460B3204600F0AFFD2068406922
:10249000400621D52068143050E8001F21F040018B
:1024A00040E80012002AF5D1E06BA8B16E49016541
:1024B000E06BFEF7F2FE002811D0E06B016D01B079
:1024C000BDE8F040084783060FD593060DD520469A
:1024D000BDE8F84000F0BEBD2046FFF761FFF8BD43
:1024E0002046FFF75DFF6564F8BD266B2023012EB3
:1024F0007DD1C6067BD5D60679D508684868009098
:1025000048694FF00206400641D5E16B0868406813
:102510000004000CE8D0A28D8242E5D9E085C869AC
:10252000B0F5807F2DD020680C3050E8001F21F4DA
:10253000807140E80012002AF5D12068143050E87C
:10254000001F21F0010140E80012002AF5D12068A7
:10255000143050E8001F21F0400140E80012002A2A
:10256000F5D184F84230256320680C3050E8001F14
:1025700021F0100140E80012002AF5D1E06BFEF7CF
:1025800043FE6663A08DE18D401A81B22AE0A08DE2
:10259000E18D401A81B2E08D0028A5D00029A3D09A
:1025A00022680C3252E8000F20F4907042E80007D5
:1025B000002FF5D12068143050E8002F22F00102DE
:1025C00040E80027002FF5D184F8423025632068C9
:1025D0000C3050E8002F22F0100240E80023002BBE
:1025E000F5D166632046FFF79FFEF8BDFFE70506BD
:1025F0002BD5150629D594F841002128F5D1A068DE
:10260000B0F5805F01D12069B0B1206A411C216220
:10261000216800784860E08C401E0004000CE084D3
:10262000E3D12068C16821F08001C1602068C168E1
:1026300041F04001C160D8E7206A0088C0F308007B
:102640004860206A801C2062E5E74006CDD5500630
:10265000CBD5CA68204622F04002CA6084F84130D7
:1026600000F046F9C1E70000A12E000870B5040093
:1026700004D094F84100002510B106E0012070BD9F
:1026800084F84050204600F023F8242084F84100CC
:102690002068C16821F40051C160204600F03CFD73
:1026A0002068016921F4904101612068416921F0AD
:1026B0002A0141612068C16841F40051C16065642C
:1026C000202084F8410084F842006563002070BD3A
:1026D0002DE9F04F87B0044614216846FEF79FF9B4
:1026E000DFF870C1022126685B4803220723DFF868
:1026F0006C8100258F064FF4807A4FF0400B4FF429
:10270000806966454ED1544E1436D6F800C04CF060
:10271000100CC6F800C0366806F01006059606686C
:1027200046F001060660006800F0010005905002C6
:102730008DE8230069464046CDE90323FEF732FFCA
:10274000484E4748B8463060C6E90175C6E90359A6
:102750007561C6E9065A35624F4630467562FEF726
:102760007FFE08B1FEF737FDE663B4633D4E3C489B
:1027700060367830C6E903577561B561F561356239
:10278000756286E801093046FEF76AFE08B1FEF779
:1027900022FDA663002205212520B463FFF792F9EC
:1027A000252051E0DFF8C0C066454FD12A4E1036D3
:1027B000D6F800C04CF4003CC6F800C0366806F4F9
:1027C00000360596066846F001060660006800F0CF
:1027D000010005900C208DE8230069464046CDE9B4
:1027E0000323FEF7DFFE1F4E2048C036B846306098
:1027F000C6E90175C6E903597561C6E9065A35622D
:102800004F4630467562FEF72BFE08B1FEF7E3FC3B
:10281000E663B463164E1548C6E903577561B561A2
:10282000F56135621830756286E801093046FEF7B9
:1028300017FE08B1FEF7CFFCA66300220521262073
:10284000B463FFF73FF92620FFF72EF907B0BDE884
:10285000F08F0000001001403038024000000240BC
:10286000406402403411002000440040886002406F
:10287000541200207047704770B5044690F841002C
:10288000202801D0022070BD49B342B32162A28446
:10289000E28400206064212384F84130A56B114B51
:1028A000EB63A56B104B2B64A56B104BEB64A36B18
:1028B0001865256813462A1DA06BFEF73BFE2168AC
:1028C0006FF0400008602068143050E8001F41F0AD
:1028D000800140E80012002AF5D1002070BD0120DF
:1028E00070BD00009F2F0008E12F0008B12E0008E6
:1028F000084A9268824201D1064906E0054A103230
:102900009268824201D1034910310868002102F027
:10291000F6BD0000080000207047000008B5074B16
:102920000649181D0C310A1D1C68009404680094A7
:102930000C6800941468009400BEF5E728ED00E0F0
:10294000194808B5016841F480010160016801F48B
:1029500080010091016841F40011016000680022CB
:1029600000F40010009005211020FFF7ABF81020B4
:10297000FFF79AF8002205211120FFF7A3F8112094
:10298000FFF792F8002205213A20FFF79BF83A2042
:10299000FFF78AF8002205214620FFF793F8BDE8EB
:1029A00008404620FFF780B83038024010B5044A8E
:1029B0000021044801F0ACFB0349086010BD000091
:1029C0008C5D0008F12A00085C00002070B586B01C
:1029D00014216846FEF723F816480024016841F0E8
:1029E00020010160016801F020010591016841F0BA
:1029F00001010160016801F001010591016841F0E8
:102A00000201016000680C4E00F002004FF4C06546
:102A10000590002229463046FEF7BCFE01200095B5
:102A2000CDE90104694630460394FEF7BBFD06B0CC
:102A300070BD000030380240001402400D4810B54F
:102A40000B4901600C49416000214FF480428160D4
:102A5000C0E9031241618161C1610162FEF7A6FE16
:102A6000002803D0BDE81040FEF7B5BB10BD000044
:102A70000054004050100020A08601000C4810B502
:102A80000A4901604FF4E1314160002181600C226C
:102A9000C160C0E904128161C161FFF7E7FD002850
:102AA00003D0BDE81040FEF796BB10BD00100140FA
:102AB000A41000200C4810B50A4901604FF4E13120
:102AC0004160002181600C22C160C0E90412816173
:102AD000C161FFF7CBFD002803D0BDE81040FEF731
:102AE0007ABB10BD00440040EC100020FEE7FEE77A
:102AF00003A106A001F026F9012001F0CDFAFBE7C1
:102B000077787731323334353600000054656E649F
:102B100061000000ADF5047DDFF8A4B169A0FEF707
:102B20005DFB064600204FF4FF79471E8046EA46CB
:102B30008090F3683A4681A9304698478098484586
:102B400024D880999DF8040254460AF8010080991F
:102B5000514481F801808098042859D35DA16846CA
:102B6000FDF762FE050053D03A21FDF753FEA8B3EE
:102B700068793038C4B2042C17D82C21681DFDF7B1
:102B800049FE90B100256FF02F0219E04FF48072DA
:102B9000684640A9FDF709FF9DF804028DF8000181
:102BA0008DF8018140F201103FE0CDF800828DF8F0
:102BB0000080BEE705EB850302EB430319448DB2A9
:102BC00010F8011FA1F13003092BF3D9204601F0C1
:102BD000E5F982900028ACD000240FE018E0F368FB
:102BE0003A4683A93046984730B9829800231A465E
:102BF000C06A83A902F074FB641CA4B2AC42EED399
:102C0000829800231A46006B194602F069FBCCE754
:102C1000809840B1204410F8010C0D2803D1809811
:102C2000205C0A2803D08098401C809081E780981F
:102C30004546401E809004F8008028A16846FDF7B4
:102C4000F3FD00BB28A16846FDF7EEFD20B12C2165
:102C50006846FDF7DFFD2EE025A16846FDF7E4FD9F
:102C600010B1CBF8005007E022A16846FDF7DCFD6B
:102C700050B10121CBF8001000231A461946DBF8A9
:102C8000380A02F02DFB16E0DBF82C0A0A2812D2D3
:102C900080990BEB8000491CC0F8041ADBF82C0A61
:102CA00069460BEB0023401CCBF82C0A809A181DB8
:102CB000521CFDF735FE80958DF8005039E7000075
:102CC000F004002073746D33325F66345F75617297
:102CD000743200002B4950442C0000002C434F4E0E
:102CE0004E454354000000002C434C4F53454400D4
:102CF0004F4B00004552524F5200000010B54FF0AC
:102D0000E020006902F034FE012803D0BDE8104045
:102D100002F010BA10BD000030B593B03021684603
:102D2000FDF77DFE14210CA8FDF779FE1D48002556
:102D3000016841F080510160006800F080501190FE
:102D40001948016841F4804101600068022400F4E0
:102D5000804011900120039010200490009406946C
:102D60000820CDE90750A820CDE9090404200B90E4
:102D70006846FEF7E5FF08B172B6FEE70CA90F2022
:102D800081E831004FF4A0500F904FF48050109024
:102D900005210CA8FEF7C8FE002801D072B6FEE798
:102DA00013B030BD40380240007000400248016856
:102DB00041F470010160704788ED00E00148FFF7C1
:102DC000E6B90000B4120020F0B50268294C2A4D83
:102DD0002A4E2B4F2B4B4FF0804CA04209D0604520
:102DE00007D0A84205D0B04203D0B84201D09842E3
:102DF00004D122F0700E4A6842EA0E02A0421BD0B3
:102E0000604519D0A84217D0B04215D0B84213D0AF
:102E1000984211D01C4DA8420ED01C4DA8420BD098
:102E20001B4DA84208D01B4DA84205D01A4DA84200
:102E300002D01A4DA84203D122F44075CA682A4331
:102E40004D6922F080022A4302608A68C2620A68E1
:102E50008262A04201D0984201D109690163012137
:102E600041610169C90703D0016921F001010161D4
:102E7000F0BD0000000001400004004000080040D8
:102E8000000C0040000401400040014000440140AB
:102E90000048014000180040001C00400020004095
:102EA00010B5806B0021C185C184FFF779FA10BD90
:102EB00070B5846B2068406994F84110C0F3C0106D
:102EC0000025212904D118B1E584204600F0B4F88A
:102ED0002068406994F84210C0F38010222904D180
:102EE00018B1E585204600F080F8606C40F01000D5
:102EF00060642046FFF754FA70BD10B50146806B40
:102F0000096809684FF00002C9052ED4C28501681E
:102F10000C3151E8003F23F4807341E80034002C69
:102F2000F5D10168143151E8003F23F0010341E875
:102F30000034002CF5D10168143151E8003F23F032
:102F4000400341E80034002CF5D1202180F84210E4
:102F5000016B012909D101680C3151E8003F23F0D0
:102F6000100341E80034002CF5D14263016B0129C4
:102F700002D0FFF77FFC10BD818DFFF7D5F910BDA2
:102F800010B5806B01214163016B012902D0FFF76D
:102F900072FC10BD818D4908FFF7C6F910BD10B550
:102FA0000146806B09680968C90516D40021C184EF
:102FB0000168143151E8002F22F0800241E800231B
:102FC000002BF5D101680C3151E8002F42F040028E
:102FD00041E80023002BF5D110BDFFF789FC10BD9F
:102FE00010B5806BFFF798FC10BD01680C3151E8FB
:102FF000002F22F4907241E80023002BF5D10168E4
:10300000143151E8002F22F0010241E80023002B87
:10301000F5D1016B012909D101680C3151E8002F6C
:1030200022F0100241E80023002BF5D1202180F886
:10303000421000210163704701680C3151E8002FF4
:1030400022F0C00241E80023002BF5D1202180F8B6
:103050004110704708B590F84210222901D0022093
:1030600008BD82684FF480539A4201D1016921B1B1
:10307000816A9A421BD04AB10AE00268816A5268AA
:10308000C2F308020A80816A891C08E0026972B1F1
:103090000268526802F07F020A70816A491C8162EC
:1030A000C18D491E0904090CC18503D01BE00268CB
:1030B0005268F1E70168CA6822F02002CA6001681C
:1030C000CA6822F48072CA6001684A6922F001026B
:1030D0004A61202180F8421000214163026B012ADD
:1030E00003D0FFF7C7FB002008BD016301680C3166
:1030F00051E8002F22F0100241E80023002BF5D107
:1031000001680A68D20602D50A6849680091818D73
:10311000FFF70AF9E7E7000070B5044600680169A7
:10312000E26821F44051114301612169A068E2691C
:1031300008436169114308432168CA6849F20C6376
:103140009A430243CA6020684169A26921F4407130
:103150001143416131492068884202D03049884298
:1031600002D1FEF7ABFD01E0FEF798FDE269002316
:10317000192164253226B2F5004F626828D0A0FBE1
:103180000101930F9200FDF7E3F80146B0FBF5F063
:103190006FF01802504301EB800006EB0010B0FB0B
:1031A000F5F000F0F002B1FBF5F002EB0012B1FB1C
:1031B000F5F06FF01803584301EB800006EB0010A8
:1031C000B0FBF5F000F00F0021681044886070BD7E
:1031D000A0FB010192185B41FDF7BAF80146B0FB74
:1031E000F5F00201B1FBF5F06FF01803584301EB65
:1031F000800006EBC000B0FBF5F000F0F80002EB39
:103200004002B1FBF5F0584301EB800006EBC00033
:10321000B0FBF5F000F00700D6E700000010014019
:103220000014014038B581620446828500201346AF
:103230006064222284F84220E56B1B4AEA63E56B56
:103240001A4A2A64E56B1A4AEA64E26B10650A4678
:103250002168E06B091DFEF76DF920680168406880
:103260000090206948B120680C3050E8001F41F4FC
:10327000807140E80012002AF5D12068143050E82F
:10328000001F41F0010140E80012002AF5D120683A
:10329000143050E8001F41F0400140E80012002ABD
:1032A000F5D1002038BD0000FB2E0008812F00085A
:1032B000B12E00080148FFF7A1B80000A4100020BB
:1032C0000148FFF79BB80000EC100020FEE709075B
:1032D000090E002804DB00F1E02080F8001470479C
:1032E00000F00F0000F1E02080F8141D70472DE978
:1032F000F05F8A46DDE90A7904464FF0FF31D0F8E5
:10330000586B9B4690460D46D0F8340A02F0E2F91D
:103310000020C4F82C0A2060282104F60420FDF7C0
:103320007EFB5046FDF792FA0246D6F808C04B469F
:1033300051463046E0474FF47A7109FB01F0B0FB8B
:10334000F1F1D4F8380A02F0C5F901281ED1B8F11C
:10335000000F1AD00020054611E004EB8501D1F8DA
:10336000042ABA4200D93A468618BE4206D804EB6F
:1033700005214044091DFDF7D3FA30466D1CD4F8F1
:103380002C1AA942E9D8CBF80000256800231A4678
:103390001946D4F8340A01F0A3FF2846BDE8F09F8F
:1033A0002DE9F74F9CB09046DFF8889100F0ECFDD6
:1033B00006004FF0FF3B5ED0B07A02285BD1307A36
:1033C000002858D01BAA6946484600F031FA1990E7
:1033D000002850DB5FF00005C5EBC50109EBC10417
:1033E00094F8490A012825D194F84A0A012821D1E4
:1033F000002704F5246A09E007EB8701684600EB23
:103400008101504601F04FFBA0B97F1C19988742FB
:10341000F2DBD4F86C0A48B100208DF86800002374
:103420001A461AA9D4F86C0A01F05AFF51464846C8
:1034300001F01AFB6D1C052DCEDB002718E000BF44
:1034400007EB870A6C4604EB8A05286901280ED130
:10345000F08900F01CFEE989884208D154F82A005E
:1034600000F09CFD58B1294601F01DFB38B17F1CCE
:1034700019988742E4DB58461FB0BDE8F08F00F092
:10348000AFFD0400F7D0012060722072A07207EB3C
:103490008701684600EB81014968E1725DF82A0006
:1034A00002276060A783A8682062A88900F0AAFDAF
:1034B0000C36E08396E80F0004F10C0C8CE80F004A
:1034C000E06A28B900220121642001F071FEE06267
:1034D000206B18B9012001F060FE2063606B18B901
:1034E000012001F05AFE6063204600F00DFD060049
:1034F00004D52146484601F0B7FABCE726601D987E
:10350000B0B1B8F1000F13D0D8F8000010280FD3D5
:103510001D9C002020606060A060E0602780A8689B
:103520006060A88900F06EFD60801021C8F800106E
:103530003046A1E7F00400202DE9F04700260D46B3
:10354000B1464FF0FF380A2816D2ADB1102A13D376
:103550002988022910D1334F00F016FD04000BD04A
:10356000688800F094FD38B14146606B02F0B2F813
:10357000207A01283AD102E04046BDE8F087E07A9F
:10358000012801D0022831D1A07A78BB607A0128C5
:103590002CD06068401C29D1E08938BB4146D7F85F
:1035A000300A02F097F800BFC6EBC60007EBC00078
:1035B00000F52460A0420CD0017A012909D181894B
:1035C000022906D1C0896988884202D14FF00109D9
:1035D00002E0761C052EE7DB00231A461946D7F8D1
:1035E000300A01F07DFEB9F1000F06D000231A4623
:1035F0001946606B01F074FEBEE70020E0602061B8
:103600006061A06195E80F0004F10C0686E80F00E8
:1036100002200023A0811A461946606B01F060FE6B
:103620000020AAE7F00400202DE9F14F94B0754E78
:10363000149800F0A9FC0446302102A8FDF7EFF928
:103640004FF0000A8DF838A05046D0464FF0FF31B9
:103650000FAA914642F82010401C0528F9DB149867
:103660000A280AD24EB144B18B46606B02F032F8A0
:10367000207A012805D0606BBDE0084615B0BDE892
:10368000F08F6068401C17D0302102A8FDF7C7F901
:10369000A07A022814D05CA2302102A86368FCF74B
:1036A000CFFE00BF41F28831CDE900A100231A46C8
:1036B00002A93046FFF71BFEA07A022806D056E08A
:1036C00056A2302102A8FCF7BBFEEBE7E08900F030
:1036D000DEFC4FF000084746CDF80000C7EBC700FE
:1036E00006EBC00505F52465A5423DD0297A05F114
:1036F0000C00012938D1A97A012935D1408800F080
:10370000C6FC009988422FD1284600F017FC49F8E2
:1037100028005946686B01F0DDFF00220EA9E86A17
:1037200001F03CFF0128F8D085F808A0C5F804B0E6
:1037300085F80AA085F80BA0C5F80CA0C5F810A064
:10374000C5F814A0C5F818A0C5F81CA0C5F820A09D
:10375000C5F824A00023C5F828A01A461946686BAE
:1037600001F0BEFD08F101087F1C052FB6DB002229
:103770000EA9E06A01F012FF0128F8D084F808A031
:10378000C4F804B084F80AA084F80BA0C4F80CA014
:10379000C4F810A0C4F814A0C4F818A0C4F81CA061
:1037A000C4F820A0C4F824A00023C4F828A05546DB
:1037B0005F461A461946606B01F092FD3946D6F80D
:1037C000300A01F087FF6572149800F0C7FB0024EF
:1037D0004F460CE057F82400002807DB00F0D4FB2C
:1037E00000B1457257F8240000F0B8FB641C444552
:1037F000F0DBD6F8300A00231A46194601F070FDB6
:1038000000203BE7F004002041542B434950434C37
:103810004F53453D25750D0A0000000041542B43D0
:1038200049505345525645523D300D0A00000000A4
:103830002DE9F04F054699B04FF0FF3017465FEA8B
:10384000010B4FF00006804617907DD0002F7BD0F3
:1038500000248146386041F28830CDE9004023469B
:10386000224642A12846FFF742FD010005F604204A
:10387000824606D0C5F82C4A28212C60FDF7CFF8E7
:1038800066E0D5F82C0A002862D017AA3BA1281DB3
:10389000FCF78CFE01285BD11798386001274CE0BB
:1038A00005EB0720001D80460B2237A1FCF7EDFF3A
:1038B000002841D1CDF810900794ADF81440ADF830
:1038C000184011941294202109A81394FDF7A7F829
:1038D00007AB06AA05A909A88DE80F0011AB04AA39
:1038E0002CA14046FCF762FE062825D108AA09A9AA
:1038F0000220089400F08CFB01281DD106EB860104
:103900000BEB81080499C8F800100899C8F8081052
:10391000BDF81410A8F80C10BDF81810A8F80E1077
:103920000799C8F8101026A111A8FDF79FF8D0B18B
:103930000121761CC8F804107F1CD5F82C0AB84267
:1039400005DD0A2F03DA00E00AE0052EA8DBB04609
:10395000C5F82C4A282150462C60FDF760F84046F7
:1039600019B0BDE8F08F0221E3E7000041542B437A
:1039700049505354415455530D0A00005354415477
:1039800055533A25640000002B4349505354415489
:1039900055533A002B4349505354415455533A25FB
:1039A000642C2225395B5E225D222C222533315B7B
:1039B0005E225D222C2568752C2568752C256400F7
:1039C0005544500070B58CB00446202102A8FDF784
:1039D00026F800260A96D4F85C0B354600280BD151
:1039E00041F28830CDE9006000231A4617A1204635
:1039F000FFF77DFC10B100200CB070BDD4F82C0A8C
:103A000000280FDD04EB052002AA13A1001DFCF71E
:103A1000CDFD012810D0D4F82C0A6D1CA84201DD80
:103A20000A2DEFDBC4F82C6A282104F60420266056
:103A3000FCF7F5FF0A98DFE70AAA02A9022000F0C6
:103A4000E7FA0A98C4F85C0BECE7000041542B43FA
:103A5000494653520D0A00002B43494653523A53EC
:103A6000544149502C222533315B5E225D220000F7
:103A70002DE9F041214D4FF436612846FCF7CFFF88
:103A8000012001F08AFBC5F8300A012001F085FB16
:103A9000C5F8340A03220021012001F089FBC5F892
:103AA000380A03220021012001F082FB002637465C
:103AB000C5F83C0AC6EBC60005EBC0040021C4F8FB
:103AC000406A84F8497A0A2004F5246401F048FB2E
:103AD0002063012001F061FB60630022012164206A
:103AE00001F066FBE062761CA772052EE2DB04A003
:103AF000FDF774FBC5F8580BBDE8F081F004002019
:103B000073746D33325F66345F75617274320000B6
:103B10002DE9F04393B00D464FF0FF360A2815D239
:103B2000002D01DC012502E0042D00DD0425DFF875
:103B3000BC8000F029FA040008D0B1463146606B21
:103B400001F0C8FD207A012839D103E0304613B0D6
:103B5000BDE8F083E07A012831D1E08900282ED039
:103B6000A07A02282BD0002741F28836CDE90076D2
:103B70003B463A461EA14046FFF7B9FBF8B92B4633
:103B80001FA2402102A8FCF75BFCCDE900760023D0
:103B90001A4602A94046FFF7AAFBE08900F077FA2F
:103BA00003461EA2402102A8FCF74AFCCDE900769C
:103BB00000231A4602A94046FFF799FB38B10023BB
:103BC0001A461946606B01F08BFB4846BFE7184860
:103BD00060600220A0720120002360721A4619461C
:103BE000606B01F07DFB0020B1E70000F0040020D5
:103BF00041542B4349504D55583D310D0A000000AA
:103C000041542B4349505345525645524D41584318
:103C10004F4E4E3D25640D0A0000000041542B43D9
:103C200049505345525645523D312C25750D0A00D9
:103C30005AA55AA52DE9F84317468846002400F0F6
:103C4000A3F9054612A0FDF7C9FA0646611E1DB18B
:103C5000286B01F03FFD08E00846BDE8F88300BF8F
:103C60009DF8001008F80410641CBC4206DA00221B
:103C70006946E86A01F092FC0128F1D0B5684FF47A
:103C80007A73224641463046A8472046E5E70000C1
:103C900073746D33325F66345F7561727431000026
:103CA0002DE9F0470D464FF0FF37022824D1012DB2
:103CB00001D0022D20D1224E00F092F904001BD039
:103CC000B9463946D6F8300A01F004FD204600F026
:103CD0001BF907004FF0010884F8088038460DD51D
:103CE00000F03CF900231A461946D6F8300A01F0D4
:103CF000F7FA4846BDE8F0873846FBE700231A4646
:103D00001946D6F8300A01F0EBFA4E464946606B88
:103D100001F0E0FC84F8088000206072A072E57277
:103D2000E06020616061A061E061206260626660C5
:103D30000023A0621A461946606B01F0D1FADBE756
:103D4000F0040020E4B089468246504FFFF790FE11
:103D5000D7F8580B0025009501234FF4E13644684D
:103D600008223146A0474AA0FDF738FA0095012302
:103D7000D0F804C0044608223146E04748490520EF
:103D8000CDE9000100234FF4007246A1494801F03B
:103D900097FD43F698264FF08008CDE9008660AB8A
:103DA00027AA45A13846FFF7A2FA00900028FDD1C6
:103DB0004FF47A7001F016F8534641A2802107A80B
:103DC000CDF80090FCF73CFBCDE9008660AB27AA5C
:103DD00007A93846FFF78BFA00900028FDD1384636
:103DE000FFF7F0FDCDE9005600231A463AA1384608
:103DF000FFF77DFA0090002201210220FFF750FF1B
:103E0000064603950220ADF80C000495059506952D
:103E100040F2093000F0F6F8ADF80E0004AA32A125
:103E2000022000F0F5F810200246619003A9304608
:103E3000FFF782FB0A213046FFF76AFE61AA03A959
:103E40003046FFF7ADFA050005F130008DF8880126
:103E5000F4D46423A7680C2227A12046B847642322
:103E6000A768012262A92046B8476423A7680222F6
:103E700012A12046B8470123642247A92846FFF72C
:103E8000D9FE2846FFF7D0FBD8E70000F004002059
:103E900073746D33325F66345F7561727431000024
:103EA0005800002053746172745F726563765F74AA
:103EB00061736B00152B0008415445300D0A00005A
:103EC00041542B43574A41503D222573222C222531
:103ED00073220D0A0000000041542B4349504D55F8
:103EE000583D310D0A0000003139322E3136382E5E
:103EF000302E3135320000000D0A636C69656E7436
:103F00005F66643A0000000010B502004FF0FF3019
:103F100008D0094B002100BF53F821401CB1491CB7
:103F20000A29F9DB10BD43F821200120107253F853
:103F300021000160084610BDFC1200200146064A1F
:103F4000002000BF52F820308B4204D0401C0A28C9
:103F5000F8DB4FF0FF307047FC12002010B54FF037
:103F6000FF320A2801D3104610BD0649002351F83C
:103F70002040237251F82040226041F8203018463A
:103F800010BD0000FC1200200A2801D30020704759
:103F9000014951F820007047FC12002010B50F4A6B
:103FA0005FF00001C1EBC10302EBC303D3F8444A45
:103FB000844207D193F8494A012C08D093F8483A33
:103FC000012B04D0491C0529ECDB002010BDC1EBFE
:103FD000C10002EBC00000F5246010BDF004002019
:103FE000074A0021C1EBC10002EBC000437A13B9BC
:103FF000037A002B03D0491C0529F3DB002070470E
:10400000300F0020010241EA102080B2704700000A
:1040100070B586B00E46022803D04FF0FF3006B0D0
:1040200070BD154605AA04A8CDE9000202AC2246DF
:1040300009A13046231DFCF7B9FA042804D1002059
:1040400054F82010FF2901D90020E8E72954401C2A
:104050000428F5DB0120E2E725642E25642E256483
:104060002E256400FDF7A4FCFEF756FEFEF7AEFC1D
:10407000FEF766FCFEF702FDFEF7E0FCFEF71AFD18
:1040800000F018F8FEF792FC00F026F8FEE70102B7
:1040900041EA102080B2704710B5EFF3058111B1ED
:1040A0006FF0050403E0002408B100F09BFE2046F9
:1040B00010BD0000EFF3058010B16FF005007047F0
:1040C0000448016811B14FF0FF30704701210160D1
:1040D00000207047C000002010B5EFF3058010B13C
:1040E0006FF0050010BD08480168012902D04FF0AB
:1040F000FF3010BD054A002182F8141D0221016025
:1041000000F020FF002010BDC00000200BE000E008
:104110002DE9FF414FEA01034FF00005EFF3058160
:10412000039549BB40B38027182100244AB3166881
:1041300006B1344696691EB13146761E382E02D23B
:104140001679F60703D0002004B0BDE8F081566967
:1041500006B1B708D2F808C0BCF1000F0DD0D56881
:104160005C2D18D312693AB136B18DE806103A4683
:10417000214601F0D2FB03900DE0D6685EB91269CA
:104180004AB903AACDE90012BAB2214601F098FB60
:10419000012800D003950398D6E700002DE9F041EF
:1041A000134C0F460546E6682068001D00F0E6FC4B
:1041B000681C07D137B12168BDE8F0410D48091DE1
:1041C00000F02CBD20683544B5424560216805D219
:1041D000A06BBDE8F041091D00F008BD606B091D32
:1041E00000F004FDA06A854200D2A562BDE8F0811E
:1041F00070000020141800202DE9F041054600F061
:1042000019FD2D4CA068401CA06020682B4F10B1F8
:10421000606930B32BE02560A068012827D1002613
:1042200006EB860007EB800000F0D2FC761C382EEF
:10423000F6D3234800F0CCFC2148143000F0C8FC31
:104240001F48283000F0C4FC1D483C3000F0C0FC82
:104250001B48503000F0BCFC194860631430A06368
:1042600005E02068E96AC06A884200D82560606A73
:10427000401C60626864E86A2169884200D9206154
:1042800000EB800007EB8000291D00F0C7FC00F068
:10429000F1FC606900280CD02068E96AC06A884295
:1042A00007D208494FF080500860BFF34F8FBFF32B
:1042B0006F8FBDE8F08100007000002064130020C3
:1042C000C417002004ED00E038B500F0B3FC104C3A
:1042D0002068C8B90F4800F07BFC0E48143000F08D
:1042E00077FC0C48E060143020610A4B0020F03B62
:1042F000009003F1500210210A2000F07AFF2060A4
:1043000010B105A100F038FDBDE8384000F0B2BCA6
:10431000AC00002018190020546D725100000000FC
:1043200030B4026C0B46002A0BD0C1681144C16046
:104330008468A14201D30168C16030BC1846FCF713
:10434000EFBA30BC70472DE9F041856B1746044643
:104350000026026C82B1C7B1E068FCF7E1FAE168BF
:10436000206C091AE1602268914202D2A168081A01
:10437000E060022F16D017E02068A8B9A06801F00D
:104380006FFB06460020A0600EE06068FCF7C8FAEC
:10439000216C606808446060A168884204D320688A
:1043A000606001E005B16D1E6D1CA5633046BDE87F
:1043B000F08110B5044690F8590058B101280CD08E
:1043C00002280FD0502080F31188BFF34F8FBFF326
:1043D0006F8FFEE7206B00F061FC2046BDE81040C7
:1043E00000F05CBC10BD000010484FF47051420753
:1043F00006D0C01D0D4920F00700411AC1F57051CB
:104400000B4A00230144C2E900030839183A21F09D
:10441000070111604B600B600B1AC0E90013936039
:104420004FF000405360506170470000F81F0020BB
:10443000DC000020144E154CA6F29C474FF080582B
:10444000DFF84C9012E000BF00F0F4FBF068C568A4
:10445000281D00F093FBA068401EA0606068401E0D
:10446000606000F007FC2846FFF7A3FF60680028A3
:10447000EAD138680128F9D9C9F80080BFF34F8F15
:10448000BFF36F8FF2E700000018002070000020DB
:1044900004ED00E0002807D00021816001600B4698
:1044A0000A46C16000F01CBF7047000070B51D4691
:1044B000049C51B1C4F80020C4E90F010121204639
:1044C00000F0CAFE84F84C5070BD2460F4E7000090
:1044D0002DE9F05F8846DDE90B941546834691008F
:1044E0009A460A9EA522206BFCF791FA6FF0030111
:1044F000206B01EB8501084420F00707780707D0FF
:10450000502080F31188BFF34F8FBFF36F8FFEE70A
:104510000025B8F1000F0FD05FF00000221818F846
:10452000001082F8341018F8001011B1401C102847
:10453000F4D384F8435001E084F83450382E00D38B
:104540003726E662C4E91365201D00F04CFB04F138
:10455000180000F048FB2461C6F138006462A061D5
:10456000656584F8585052465946384600F066FA58
:104570002060B9F1000F01D0C9F80040BDE8F09FFC
:1045800030B5114900E011460A688242FBD34B68FE
:104590005C18844203D14068184448600846436868
:1045A0001C18944209D1084C183C2468A24209D036
:1045B00052681A4442600A6812680260814200D060
:1045C000086030BD0460F9E7DC00002070B500240D
:1045D00041600B4D0061914206D8D11A8269914227
:1045E00006D2011D286907E09A4203D2994201D3FD
:1045F000012403E0011DE86800F0F8FA204670BDD0
:10460000AC00002010B5044600F014FBA06B28B1EC
:104610005FF0000400F02EFB204610BD0124F9E7F6
:1046200030B589B03C4D6EE00498002806DADDE92B
:104630000601059A90470498002864DB069C60698F
:1046400010B1201D00F09AFA03A800F0D7F8024636
:1046500004980A2857D2DFE800F00505052D334AF3
:1046600005052D3394F8280040F0010084F8280057
:104670000599A069059B01442046FFF7A7FF68B391
:10468000216A2046884794F8280040073BD500203F
:1046900000900598A169002342181946204601F0B0
:1046A00025FBD8B9502080F31188BFF34F8FBFF39B
:1046B0006F8FFEE714F8280F20F00100207022E031
:1046C00094F8280040F0010084F828000598A061C3
:1046D00028B1811813462046FFF778FF13E05020D9
:1046E00080F31188BFF34F8FBFF36F8FFEE794F80D
:1046F0002800810703D4204600F0D0FA03E020F020
:10470000010084F82800002204A9286800F046FF70
:10471000002889D109B030BDAC0000202DE9FC4152
:104720000F46054600F052FC01A800F067F8044669
:10473000019818B101F048FABDE8FC81254EAFB1EF
:1047400030690068D0B30027291B3A46306800F072
:1047500027FB01F039FA0028EED11F494FF08050B5
:104760000860BFF34F8FBFF36F8FE5E7A542EBD82B
:1047700001F02AFAF0682746C068C468201D00F0DE
:10478000FDF994F82800410719D5A0692B46411975
:104790003A462046FFF71AFFA8B10020034601461B
:1047A00000902A46204601F0A1FA60B9502080F31B
:1047B0001188BFF34F8FBFF36F8FFEE707E020F044
:1047C000010084F82800216A20468847B4E70127C1
:1047D000BAE70000AC00002004ED00E00648416BA1
:1047E000096829B1416BC968C96849688162704725
:1047F0004FF0FF31FAE700007000002070B5054669
:1048000001F0C4F8064E0446B068844203D200F0BA
:1048100009F8012000E0002028602046B46070BD47
:10482000AC000020F8B5194D20E0C068C4680668E7
:10483000201D00F0A3F9216A2046884794F828003B
:10484000400713D5A0693044B04206D924616060A6
:10485000211DE86800F0CAF908E00020034601467F
:1048600000903246204601F041FA38B1E86801680C
:104870000029DAD12969C5E90310F8BD502080F379
:104880001188BFF34F8FBFF36F8FFEE7AC0000209E
:1048900008484068401C4FF0500080F3118804D055
:1048A000BFF34F8FBFF36F8FFEE7BFF34F8FBFF3A1
:1048B0006F8FFEE7E4000020074CE068016841B11B
:1048C000C0680021D0F80000FFF728FFFFF7A8FE1E
:1048D000F3E701210020F7E7AC0000202DE9F041CB
:1048E000044600F0A7F994F9455004F1240609E0C4
:1048F000606A48B1304601F02FF908B100F0A0FA23
:104900006D1E6DB2002DF3DC4FF0FF3684F845606C
:1049100000F0B0F900F08EF994F9445004F110075A
:1049200009E0206948B1384601F016F908B100F0F5
:1049300087FA6D1E6DB2002DF3DC84F84460BDE88B
:10494000F04100F097B900002DE9F041054600273D
:1049500000F03CFB324E306808B9FFF745FD706946
:1049600005424ED1C5B3083568070ED005F00700E3
:10497000C0F108000544680707D0502080F3118873
:10498000BFF34F8FBFF36F8FFEE72DB37068854283
:1049900037D82348183001460C6801E020460C4601
:1049A0006168A94202D221680029F7D131688C429E
:1049B00027D007682168016060680837411B10290B
:1049C0000FD96019420708D0502080F31188BFF337
:1049D0004F8FBFF36F8FFEE713E041606560FFF715
:1049E000CFFD61687068401A7060B268904200D272
:1049F000B060706901430020C4E90001F068401C08
:104A0000F06001F0E1F8780707D0502080F31188BA
:104A1000BFF34F8FBFF36F8FFEE73846BDE8F081DD
:104A2000C40000200449086818B10868026D521CCF
:104A300002650868704700007000002010B5031F71
:104A40004FF080741C601B1F21F001011960191FB9
:104A5000044B0B6014390A60091F6FF002024438DE
:104A60000A6010BD9148000810B50C001AD0607A99
:104A7000002817D0207A10B12068FFF76FFAE06A9B
:104A800010B1002100F0E8FB002020726072A072DB
:104A90006060E072E06120626062A062E0602061BC
:104AA0006061A06110BD70B50C46050014D09CB1CA
:104AB0006868216888420FD1286AA16888420BD1B2
:104AC000A089FFF79FFAE98B884205D1E089FFF7BB
:104AD00099FAE989884201D0002070BD012070BD9B
:104AE00038B5446900226946606800F057FD012826
:104AF000F8D038BD70B5446903220021012000F0D0
:104B000057FB01214D0220600022284600F050FB97
:104B100060600849A068884202D12A46064904E03C
:104B20000649884203D12A460549FDF7D6FB0020F5
:104B300070BD0000A4100020F0000020EC10002048
:104B4000F002002010B54069406800F027FD08B170
:104B5000002010BD012010BD70B544691D4692B201
:104B6000A068FDF789FE2946206800F0B3FD012802
:104B700002D04FF0FF3070BD002070BDD0E901328F
:104B800001699A60D0E901235A604A68824201D1E2
:104B900082684A60002202610868401E0860086856
:104BA00070470000034B036003F15C000860802045
:104BB0001060704740190020044B036003F15C0053
:104BC00008604FF480701060704700009C1B00204C
:104BD00000F108014FF0FF32C0E90112C16001612C
:104BE00000210160704700210161704730B50B68FA
:104BF0005A1C02D000F1080202E0026904E02246D9
:104C0000546825689D42FAD953684B6099608A6060
:104C1000516008610168491C016030BD42684A600A
:104C200093688B6093685960916008610168491CC2
:104C300001607047502080F31188BFF34F8FBFF39E
:104C40006F8F0A494868401C486001280CD1084809
:104C5000006810F0FF0F07D0502080F31188BFF3D9
:104C60004F8FBFF36F8FFEE770470000E400002016
:104C700004ED00E00849486828B1401E486001D1B1
:104C800080F311887047502080F31188BFF34F8F55
:104C9000BFF36F8FFEE70000E400002070B500282E
:104CA0002AD0164DA0F1080460686969084207D14E
:104CB000502080F31188BFF34F8FBFF36F8FFEE753
:104CC00022683AB1502080F31188BFF34F8FBFF3B1
:104CD0006F8FFEE78843606000F078F9606869686C
:104CE000084468602046FFF74BFC2869401C286197
:104CF000BDE8704000F068BF70BD0000C400002037
:104D00004FF0E02000210161816105494FF47A7282
:104D10000968B1FBF2F1491E416107210161704749
:104D20006C00002010B5FBF7EFFA114910280ED3E4
:104D300000F1E02090F8F0030A78904207D250206A
:104D400080F31188BFF34F8FBFF36F8FFEE70948E1
:104D50000068896800F4E060884207D9502080F339
:104D60001188BFF34F8FBFF36F8FFEE710BD0000B8
:104D7000E40000200CED00E010B5084B002200BF5D
:104D800053F832401CB1521C082AF9D310BD43F825
:104D9000321003EBC201486010BD00002413002054
:104DA00070B515460E460446FFF744FF94F94410CB
:104DB0000020491C01D184F8440094F94510491C95
:104DC00001D184F84500FFF755FFA06B28B92A46AA
:104DD000314604F1240000F051F82046BDE870404F
:104DE000FFF77CBD10B5020014D00F48006B38B13E
:104DF000502080F31188BFF34F8FBFF36F8FFEE712
:104E000000F0E4F800211046FFF7C8F900F0DCFEDE
:104E1000002807D105494FF080500860BFF34F8F3D
:104E2000BFF36F8F10BD00007000002004ED00E0A4
:104E300002490A6A0260C968416070477000002038
:104E400001490120C86170477000002010B50C4670
:104E500050B1094909681831FFF7C8FE2046BDE87E
:104E600010400121FFF79AB9502080F31188BFF359
:104E70004F8FBFF36F8FFEE77000002070B51446B0
:104E80000D4668B10A4909681831FFF7C7FE0CB131
:104E90004FF0FF3521462846BDE87040FFF77EB948
:104EA000502080F31188BFF34F8FBFF36F8FFEE761
:104EB0007000002070B504003ED0226DA2B1E06CFD
:104EC000884200D30146E06A884235D0012A33D1B6
:104ED0001A4D2A6894420FD1502080F31188BFF3F5
:104EE0004F8FBFF36F8FFEE7502080F31188BFF321
:104EF0004F8FBFF36F8FFEE7E162A269002A02DBEA
:104F0000C1F13801A1610E4E00EB8000616906EB32
:104F10008000814210D1201DFFF730FEE06A296930
:104F2000884200D9286100EB800006EB8000211D3B
:104F3000BDE87040FFF772BE70BD00007000002039
:104F40006413002030B587B00024039405AA04A997
:104F500003A80494FFF726FEDDE903010094CDE9E0
:104F60000110002315A11748059A00F0D6FC164D34
:104F70000028E8621FD000F089FE012809D0401CFB
:104F800019D1502080F31188BFF34F8FBFF36F8F7B
:104F9000FEE7502080F31188BFF34F8FBFF36F8F70
:104FA0004FF0FF30A86201206861EC6007B0BDE8F7
:104FB000304000F045B807B030BD000049444C45D2
:104FC0000000000035440008700000200248016B1A
:104FD000491C01637047000070000020164810B59E
:104FE000016B11B10121C16110BD0021C1610169D5
:104FF000124A01E0B9B1491E01EB810352F8233096
:10500000002BF7D001EB810302EB830202F10804CD
:1050100053685B685360A34201D15B685360DA68F0
:105020000260016110BD502080F31188BFF34F8FE3
:10503000BFF36F8FFEE700007000002064130020B4
:105040001CB537480168374A914207D1502080F398
:105050001188BFF34F8FBFF36F8FFEE700683149B0
:10506000491E884207D1502080F31188BFF34F8F2B
:10507000BFF36F8FFEE72C4908780190FF2008707E
:1050800008788DF800009DF800009DF8002000F0E1
:10509000F000904207D0502080F31188BFF34F8F6B
:1050A000BFF36F8FFEE79DF80000204C00F050002A
:1050B00020700720A06005E09DF8002052008DF8C8
:1050C0000020401E9DF800201206F5D4A0600328A1
:1050D00007D0502080F31188BFF34F8FBFF36F8F3D
:1050E000FEE74FF44070A060019808700C48203033
:1050F000016841F470010160016841F07041016094
:10510000FFF7FEFD00206060FBF7C6F80848016865
:1051100041F040410160FBF7ABF800201CBD0000EE
:1051200000ED00E071C20F4100E400E0E400002067
:1051300034EF00E010B5502080F31188BFF34F8F9B
:10514000BFF36F8F00F028FC18B104494FF0805076
:105150000860002080F3118810BD000004ED00E01D
:1051600010B50C4648B184420FD9502080F3118805
:10517000BFF34F8FBFF36F8FFEE7502080F311888E
:10518000BFF34F8FBFF36F8FFEE70222002100F0C5
:105190000FF8002800D0846310BD10B5024600212E
:1051A000012000F005F80446FFF774F9204610BD11
:1051B000F8B517460E46050013D005FB06F0503033
:1051C000FFF7C2FB04000AD0002084F8460004F177
:1051D00050023B46314628460094FFF767F92046C7
:1051E000F8BD502080F31188BFF34F8FBFF36F8F4E
:1051F000FEE738B5049D18B153B1CAB181B120E0C2
:10520000502080F31188BFF34F8FBFF36F8FFEE7FD
:10521000502080F31188BFF34F8FBFF36F8FFEE7ED
:10522000502080F31188BFF34F8FBFF36F8FFEE7DD
:1052300039B1502080F31188BFF34F8FBFF36F8FC8
:10524000FEE750241C46012384F846302B46009488
:10525000FFF72CF9204638BD70B50D46040025D067
:10526000FFF7E8FCD4E90F20216802FB0011A160E0
:105270000021A163216861600A46D4E90F01401E44
:1052800000FB0121E16021464FF0FF3001F8440F9F
:10529000487004F110008DB1FFF79AFC04F124006E
:1052A000FFF796FCFFF7E6FC012070BD502080F36D
:1052B0001188BFF34F8FBFF36F8FFEE7216900297D
:1052C000F0D000F049FC0028ECD004494FF08050A9
:1052D0000860BFF34F8FBFF36F8FE3E704ED00E08B
:1052E0002DE9FF4782B01D468A464FF000080400B2
:1052F00003D0BAF1000F08D011E0502080F31188DC
:10530000BFF34F8FBFF36F8FFEE7206C38B1502093
:1053100080F31188BFF34F8FBFF36F8FFEE7022D2D
:105320000AD1E06B012807D0502080F31188BFF329
:105330004F8FBFF36F8FFEE700F01AFB3F4F4FF028
:1053400000094FF0805648B9049838B1502080F3D6
:105350001188BFF34F8FBFF36F8FFEE7FFF76AFC33
:10536000A06BE16B884207D3022D05D00498D0B121
:10537000B8F1000F1AD01EE02A4651462046FEF72B
:10538000E2FF616A19B104F1240000F0E5FB20B1ED
:105390003E60BFF34F8FBFF36F8FFFF76BFC0120B1
:1053A00006B0BDE8F087FFF765FC22E06846FFF72E
:1053B0003FFD4FF00108FFF75DFCFFF707FEFFF729
:1053C00039FC94F94400401C01D184F8449094F9CC
:1053D0004500401C01D184F84590FFF74BFC04A91F
:1053E000684600F033FA30B12046FFF777FA00F054
:1053F000EBFB0020D4E7FFF71DFCA06BE16B8842BC
:1054000013D1FFF737FC04F110000499FFF71EFDDC
:105410002046FFF763FA00F0D7FB00289ED13E60DC
:10542000BFF34F8FBFF36F8F98E7FFF723FC204642
:10543000FFF754FA00F0C8FB90E7000004ED00E02D
:105440002DE9F0471F4690468946040003D0B9F184
:10545000000F08D011E0502080F31188BFF34F8F68
:10546000BFF36F8FFEE7206C38B1502080F31188B6
:10547000BFF34F8FBFF36F8FFEE7022F0AD1E06BB0
:10548000012807D0502080F31188BFF34F8FBFF35E
:105490006F8FFEE7FFF746FC5020EFF3118680F395
:1054A0001188BFF34F8FBFF36F8FA06BE16B884202
:1054B00006D3022F04D0002086F31188BDE8F087C0
:1054C00094F94550A06B3A4649462046FEF73BFF0B
:1054D000681C04D06D1C84F845500120ECE7606A1C
:1054E0000028FAD004F1240000F036FB0028F4D0A4
:1054F000B8F1000FF1D00121C8F80010EDE770B548
:105500000E46040009D0206C78B1502080F3118839
:10551000BFF34F8FBFF36F8FFEE7502080F31188EA
:10552000BFF34F8FBFF36F8FFEE7206848B9A068C5
:1055300038B1502080F31188BFF34F8FBFF36F8FC6
:10554000FEE7FFF7EFFB5020EFF3118580F31188A2
:10555000BFF34F8FBFF36F8FA16BE06B884218D9F9
:1055600094F94500491CA163411C04D0401C84F8F7
:10557000450001200EE0606A0028FAD004F1240002
:1055800000F0EAFA0028F4D0002EF2D001203060BA
:10559000EFE7002085F3118870BD00002DE9F74783
:1055A000002683B08A46040003D0BAF1000F08D069
:1055B00011E0502080F31188BFF34F8FBFF36F8F3E
:1055C000FEE7206C38B1502080F31188BFF34F8F75
:1055D000BFF36F8FFEE700F0CBF9DFF8F4804FF0F8
:1055E00000094FF0805748B9059838B1502080F332
:1055F0001188BFF34F8FBFF36F8FFEE7FFF71AFBE2
:10560000A56BC5B151462046FEF78AFE6D1EA56307
:10561000206950B104F1100000F09EFA28B1C8F8DA
:105620000070BFF34F8FBFF36F8FFFF723FB012095
:1056300006B0BDE8F087059808B11EB106E0FFF797
:1056400019FB27E06846FFF7F3FB0126FFF712FB83
:10565000FFF7BCFCFFF7EEFA94F94400401C01D1BF
:1056600084F8449094F94500401C01D184F8459099
:10567000FFF700FB05A9684600F0E8F8002820467F
:105680000AD0FFF72BF900F09FFA2046FEF7BAFF89
:105690000028B3D00020CBE7FEF7B4FF90B104F1AF
:1056A00024000599FFF7D2FB2046FFF717F900F019
:1056B0008BFA0028A2D1C8F80070BFF34F8FBFF358
:1056C0006F8F9BE72046FFF709F900F07DFA95E719
:1056D00004ED00E02DE9F343002683B004003546D5
:1056E00009D0206C78B1502080F31188BFF34F8F20
:1056F000BFF36F8FFEE7502080F31188BFF34F8F09
:10570000BFF36F8FFEE700F033F9DFF83C814FF015
:1057100000094FF0805748B9049838B1502080F301
:105720001188BFF34F8FBFF36F8FFEE7FFF782FA49
:10573000A06BC8B1401EA063206810B9FFF772F9D2
:10574000A060206950B104F1100000F005FA28B102
:10575000C8F80070BFF34F8FBFF36F8FFFF78AFA5F
:10576000012005B0BDE8F083049808B166B10FE0F0
:105770003DB1502080F31188BFF34F8FBFF36F8F7F
:10578000FEE7FFF777FA5DE06846FFF751FB012679
:10579000FFF770FAFFF71AFCFFF74CFA94F9440090
:1057A000401C01D184F8449094F94500401C01D17B
:1057B00084F84590FFF75EFA04A9684600F046F8C1
:1057C0000028204612D0FFF789F800F0FDF92046A6
:1057D000FEF718FF0028A9D09DB3FFF72BFA606AE7
:1057E00050B3206B0068C0F1380126E0FEF70AFFD5
:1057F000E0B1206838B9FFF71DFAA06800F070F931
:105800000546FFF737FA04F124000499FFF71EFB61
:105810002046FFF763F800F0D7F9002886D1C8F8D2
:105820000070BFF34F8FBFF36F8F7FE72046FFF706
:1058300055F800F0C9F979E70021A068FFF73AFBB5
:105840009FE7FFE700208CE704ED00E02DE9F04141
:105850000C46050011D0C4B1FFF7ECF9174BDA681C
:105860006E682068911B471C17D02F681B6A9F42E7
:1058700019D0964217D8012410E0502080F31188E7
:10588000BFF34F8FBFF36F8FFEE7502080F3118877
:10589000BFF34F8FBFF36F8FFEE70024FFF7EAF9E6
:1058A0002046BDE8F081884205D9401A206028468C
:1058B000FFF7BEFAF1E700202060DCE7700000206F
:1058C0002DE9FF5F8346DDE90E87994616468A4635
:1058D0009000FFF739F805001CD05C20FFF734F882
:1058E000040014D00020256384F85900CDE902405B
:1058F000CDE900874B46324651465846FEF7E8FD53
:105900002046FEF779FC012004B0BDE8F09F284650
:10591000FFF7C4F94FF0FF30F6E7F0B585B0DDE9E9
:105920000B640A9DA6B1DCB15C27009726630226B2
:1059300084F85960002604AFCDE90246CDE900574E
:10594000FEF7C6FD2046FEF757FC049805B0F0BDF3
:10595000502080F31188BFF34F8FBFF36F8FFEE7A6
:10596000502080F31188BFF34F8FBFF36F8FFEE796
:105970000548416919B1006B18B10020704701203A
:105980007047022070470000700000200148C06886
:1059900070470000700000202DE9F0412E4C0027D8
:1059A000206B28B1A069401CA0613846BDE8F08199
:1059B000E668761CE66013D1606B006838B1502051
:1059C00080F31188BFF34F8FBFF36F8FFEE7606BDB
:1059D000A16B6163A063206A401C2062FEF7FEFE9B
:1059E000A06ADFF87880864209D3606B0068A0B1B6
:1059F000606BC068C5686868864211D2A062206882
:105A0000C06A00EB800158F82100012800D9012765
:105A1000E0690028C9D00127C7E74FF0FF30EDE764
:105A2000281DFFF7ABF8A86A18B105F11800FFF7B9
:105A3000A5F8E86A2169884200D9206100EB80015D
:105A400008EB8100291DFFF7E9F8E86A2168C96AB7
:105A50008842CAD30127C8E77000002064130020E1
:105A600070B504004FF0000133D01B4D286884420C
:105A700007D0502080F31188BFF34F8FBFF36F8F93
:105A8000FEE7206D38B1401E2065E36CE26A9A4261
:105A90001FD040B11DE0502080F31188BFF34F8F1D
:105AA000BFF36F8FFEE7201DFFF768F8E06CE06240
:105AB000C0F13800A061E06A2969884200D92861F4
:105AC000064900EB800001EB8000211DFFF7A6F8DE
:105AD0000121084670BD0000700000206413002002
